{
  "_format": "hh-sol-artifact-1",
  "contractName": "PresaleVault",
  "sourceName": "contracts/PresaleVault.sol",
  "abi": [
    {
      "inputs": [
        {
          "internalType": "address",
          "name": "_token",
          "type": "address"
        },
        {
          "internalType": "address",
          "name": "_treasury",
          "type": "address"
        },
        {
          "internalType": "address",
          "name": "_owner",
          "type": "address"
        }
      ],
      "stateMutability": "nonpayable",
      "type": "constructor"
    },
    {
      "inputs": [],
      "name": "EnforcedPause",
      "type": "error"
    },
    {
      "inputs": [],
      "name": "ExpectedPause",
      "type": "error"
    },
    {
      "inputs": [
        {
          "internalType": "address",
          "name": "owner",
          "type": "address"
        }
      ],
      "name": "OwnableInvalidOwner",
      "type": "error"
    },
    {
      "inputs": [
        {
          "internalType": "address",
          "name": "account",
          "type": "address"
        }
      ],
      "name": "OwnableUnauthorizedAccount",
      "type": "error"
    },
    {
      "inputs": [],
      "name": "ReentrancyGuardReentrantCall",
      "type": "error"
    },
    {
      "anonymous": false,
      "inputs": [
        {
          "indexed": true,
          "internalType": "address",
          "name": "treasury",
          "type": "address"
        },
        {
          "indexed": false,
          "internalType": "uint256",
          "name": "amount",
          "type": "uint256"
        }
      ],
      "name": "FundsWithdrawn",
      "type": "event"
    },
    {
      "anonymous": false,
      "inputs": [
        {
          "indexed": true,
          "internalType": "address",
          "name": "previousOwner",
          "type": "address"
        },
        {
          "indexed": true,
          "internalType": "address",
          "name": "newOwner",
          "type": "address"
        }
      ],
      "name": "OwnershipTransferred",
      "type": "event"
    },
    {
      "anonymous": false,
      "inputs": [
        {
          "indexed": false,
          "internalType": "address",
          "name": "account",
          "type": "address"
        }
      ],
      "name": "Paused",
      "type": "event"
    },
    {
      "anonymous": false,
      "inputs": [
        {
          "indexed": true,
          "internalType": "uint8",
          "name": "roundIndex",
          "type": "uint8"
        },
        {
          "indexed": false,
          "internalType": "uint256",
          "name": "totalRaised",
          "type": "uint256"
        }
      ],
      "name": "RoundClosed",
      "type": "event"
    },
    {
      "anonymous": false,
      "inputs": [
        {
          "indexed": true,
          "internalType": "uint8",
          "name": "roundIndex",
          "type": "uint8"
        },
        {
          "indexed": false,
          "internalType": "uint256",
          "name": "startTime",
          "type": "uint256"
        },
        {
          "indexed": false,
          "internalType": "uint256",
          "name": "endTime",
          "type": "uint256"
        }
      ],
      "name": "RoundOpened",
      "type": "event"
    },
    {
      "anonymous": false,
      "inputs": [
        {
          "indexed": true,
          "internalType": "address",
          "name": "buyer",
          "type": "address"
        },
        {
          "indexed": true,
          "internalType": "uint8",
          "name": "roundIndex",
          "type": "uint8"
        },
        {
          "indexed": false,
          "internalType": "uint256",
          "name": "nativeAmount",
          "type": "uint256"
        },
        {
          "indexed": false,
          "internalType": "uint256",
          "name": "tokenAmount",
          "type": "uint256"
        }
      ],
      "name": "TokensPurchased",
      "type": "event"
    },
    {
      "anonymous": false,
      "inputs": [
        {
          "indexed": true,
          "internalType": "address",
          "name": "newTreasury",
          "type": "address"
        }
      ],
      "name": "TreasuryUpdated",
      "type": "event"
    },
    {
      "anonymous": false,
      "inputs": [
        {
          "indexed": false,
          "internalType": "address",
          "name": "account",
          "type": "address"
        }
      ],
      "name": "Unpaused",
      "type": "event"
    },
    {
      "anonymous": false,
      "inputs": [
        {
          "indexed": true,
          "internalType": "address",
          "name": "claimer",
          "type": "address"
        },
        {
          "indexed": false,
          "internalType": "uint256",
          "name": "tokenAmount",
          "type": "uint256"
        }
      ],
      "name": "VestingClaimed",
      "type": "event"
    },
    {
      "anonymous": false,
      "inputs": [
        {
          "indexed": false,
          "internalType": "uint256",
          "name": "newDuration",
          "type": "uint256"
        }
      ],
      "name": "VestingDurationUpdated",
      "type": "event"
    },
    {
      "inputs": [],
      "name": "activeRound",
      "outputs": [
        {
          "internalType": "enum PresaleVault.RoundType",
          "name": "",
          "type": "uint8"
        }
      ],
      "stateMutability": "view",
      "type": "function"
    },
    {
      "inputs": [
        {
          "internalType": "bytes32[]",
          "name": "merkleProof",
          "type": "bytes32[]"
        }
      ],
      "name": "buyTokens",
      "outputs": [],
      "stateMutability": "payable",
      "type": "function"
    },
    {
      "inputs": [],
      "name": "claimVested",
      "outputs": [],
      "stateMutability": "nonpayable",
      "type": "function"
    },
    {
      "inputs": [
        {
          "internalType": "address",
          "name": "wallet",
          "type": "address"
        }
      ],
      "name": "claimableAmount",
      "outputs": [
        {
          "internalType": "uint256",
          "name": "",
          "type": "uint256"
        }
      ],
      "stateMutability": "view",
      "type": "function"
    },
    {
      "inputs": [],
      "name": "closeCurrentRound",
      "outputs": [],
      "stateMutability": "nonpayable",
      "type": "function"
    },
    {
      "inputs": [],
      "name": "getAllRounds",
      "outputs": [
        {
          "components": [
            {
              "internalType": "uint256",
              "name": "pricePerToken",
              "type": "uint256"
            },
            {
              "internalType": "uint256",
              "name": "hardcap",
              "type": "uint256"
            },
            {
              "internalType": "uint256",
              "name": "totalRaised",
              "type": "uint256"
            },
            {
              "internalType": "uint256",
              "name": "minBuy",
              "type": "uint256"
            },
            {
              "internalType": "uint256",
              "name": "maxBuy",
              "type": "uint256"
            },
            {
              "internalType": "uint256",
              "name": "startTime",
              "type": "uint256"
            },
            {
              "internalType": "uint256",
              "name": "endTime",
              "type": "uint256"
            },
            {
              "internalType": "bool",
              "name": "whitelistRequired",
              "type": "bool"
            },
            {
              "internalType": "bytes32",
              "name": "merkleRoot",
              "type": "bytes32"
            },
            {
              "internalType": "bool",
              "name": "finalized",
              "type": "bool"
            }
          ],
          "internalType": "struct PresaleVault.Round[3]",
          "name": "",
          "type": "tuple[3]"
        }
      ],
      "stateMutability": "view",
      "type": "function"
    },
    {
      "inputs": [
        {
          "internalType": "uint8",
          "name": "roundIndex",
          "type": "uint8"
        },
        {
          "internalType": "uint256",
          "name": "startTime",
          "type": "uint256"
        },
        {
          "internalType": "uint256",
          "name": "endTime",
          "type": "uint256"
        },
        {
          "internalType": "bytes32",
          "name": "merkleRoot",
          "type": "bytes32"
        }
      ],
      "name": "openRound",
      "outputs": [],
      "stateMutability": "nonpayable",
      "type": "function"
    },
    {
      "inputs": [],
      "name": "owner",
      "outputs": [
        {
          "internalType": "address",
          "name": "",
          "type": "address"
        }
      ],
      "stateMutability": "view",
      "type": "function"
    },
    {
      "inputs": [],
      "name": "pause",
      "outputs": [],
      "stateMutability": "nonpayable",
      "type": "function"
    },
    {
      "inputs": [],
      "name": "paused",
      "outputs": [
        {
          "internalType": "bool",
          "name": "",
          "type": "bool"
        }
      ],
      "stateMutability": "view",
      "type": "function"
    },
    {
      "inputs": [],
      "name": "renounceOwnership",
      "outputs": [],
      "stateMutability": "nonpayable",
      "type": "function"
    },
    {
      "inputs": [],
      "name": "roundTimeLeft",
      "outputs": [
        {
          "internalType": "uint256",
          "name": "",
          "type": "uint256"
        }
      ],
      "stateMutability": "view",
      "type": "function"
    },
    {
      "inputs": [
        {
          "internalType": "uint256",
          "name": "",
          "type": "uint256"
        }
      ],
      "name": "rounds",
      "outputs": [
        {
          "internalType": "uint256",
          "name": "pricePerToken",
          "type": "uint256"
        },
        {
          "internalType": "uint256",
          "name": "hardcap",
          "type": "uint256"
        },
        {
          "internalType": "uint256",
          "name": "totalRaised",
          "type": "uint256"
        },
        {
          "internalType": "uint256",
          "name": "minBuy",
          "type": "uint256"
        },
        {
          "internalType": "uint256",
          "name": "maxBuy",
          "type": "uint256"
        },
        {
          "internalType": "uint256",
          "name": "startTime",
          "type": "uint256"
        },
        {
          "internalType": "uint256",
          "name": "endTime",
          "type": "uint256"
        },
        {
          "internalType": "bool",
          "name": "whitelistRequired",
          "type": "bool"
        },
        {
          "internalType": "bytes32",
          "name": "merkleRoot",
          "type": "bytes32"
        },
        {
          "internalType": "bool",
          "name": "finalized",
          "type": "bool"
        }
      ],
      "stateMutability": "view",
      "type": "function"
    },
    {
      "inputs": [],
      "name": "saleOpen",
      "outputs": [
        {
          "internalType": "bool",
          "name": "",
          "type": "bool"
        }
      ],
      "stateMutability": "view",
      "type": "function"
    },
    {
      "inputs": [
        {
          "internalType": "uint8",
          "name": "roundIndex",
          "type": "uint8"
        },
        {
          "internalType": "bytes32",
          "name": "root",
          "type": "bytes32"
        }
      ],
      "name": "setMerkleRoot",
      "outputs": [],
      "stateMutability": "nonpayable",
      "type": "function"
    },
    {
      "inputs": [
        {
          "internalType": "uint8",
          "name": "roundIndex",
          "type": "uint8"
        },
        {
          "internalType": "uint256",
          "name": "pricePerToken",
          "type": "uint256"
        }
      ],
      "name": "setRoundPrice",
      "outputs": [],
      "stateMutability": "nonpayable",
      "type": "function"
    },
    {
      "inputs": [
        {
          "internalType": "address",
          "name": "newTreasury",
          "type": "address"
        }
      ],
      "name": "setTreasury",
      "outputs": [],
      "stateMutability": "nonpayable",
      "type": "function"
    },
    {
      "inputs": [
        {
          "internalType": "uint256",
          "name": "duration",
          "type": "uint256"
        }
      ],
      "name": "setVestingDuration",
      "outputs": [],
      "stateMutability": "nonpayable",
      "type": "function"
    },
    {
      "inputs": [],
      "name": "token",
      "outputs": [
        {
          "internalType": "contract VaultXToken",
          "name": "",
          "type": "address"
        }
      ],
      "stateMutability": "view",
      "type": "function"
    },
    {
      "inputs": [],
      "name": "totalHardcap",
      "outputs": [
        {
          "internalType": "uint256",
          "name": "cap",
          "type": "uint256"
        }
      ],
      "stateMutability": "view",
      "type": "function"
    },
    {
      "inputs": [],
      "name": "totalRaisedAllRounds",
      "outputs": [
        {
          "internalType": "uint256",
          "name": "total",
          "type": "uint256"
        }
      ],
      "stateMutability": "view",
      "type": "function"
    },
    {
      "inputs": [
        {
          "internalType": "address",
          "name": "newOwner",
          "type": "address"
        }
      ],
      "name": "transferOwnership",
      "outputs": [],
      "stateMutability": "nonpayable",
      "type": "function"
    },
    {
      "inputs": [],
      "name": "treasury",
      "outputs": [
        {
          "internalType": "address",
          "name": "",
          "type": "address"
        }
      ],
      "stateMutability": "view",
      "type": "function"
    },
    {
      "inputs": [],
      "name": "unpause",
      "outputs": [],
      "stateMutability": "nonpayable",
      "type": "function"
    },
    {
      "inputs": [],
      "name": "vestingDuration",
      "outputs": [
        {
          "internalType": "uint256",
          "name": "",
          "type": "uint256"
        }
      ],
      "stateMutability": "view",
      "type": "function"
    },
    {
      "inputs": [
        {
          "internalType": "address",
          "name": "",
          "type": "address"
        }
      ],
      "name": "vestingOf",
      "outputs": [
        {
          "internalType": "uint192",
          "name": "totalTokens",
          "type": "uint192"
        },
        {
          "internalType": "uint64",
          "name": "vestStart",
          "type": "uint64"
        },
        {
          "internalType": "uint128",
          "name": "claimedTokens",
          "type": "uint128"
        }
      ],
      "stateMutability": "view",
      "type": "function"
    },
    {
      "inputs": [
        {
          "internalType": "address",
          "name": "",
          "type": "address"
        },
        {
          "internalType": "uint8",
          "name": "",
          "type": "uint8"
        }
      ],
      "name": "walletRaised",
      "outputs": [
        {
          "internalType": "uint256",
          "name": "",
          "type": "uint256"
        }
      ],
      "stateMutability": "view",
      "type": "function"
    },
    {
      "inputs": [],
      "name": "withdrawFunds",
      "outputs": [],
      "stateMutability": "nonpayable",
      "type": "function"
    },
    {
      "stateMutability": "payable",
      "type": "receive"
    }
  ],
  "bytecode": "0x60a060405262ed4e00602055348015610016575f80fd5b506040516122d73803806122d7833981016040819052610035916104a3565b806001600160a01b03811661006457604051631e4fbdf760e01b81525f60048201526024015b60405180910390fd5b61006d81610439565b5060017f9b779b17422d0df92223018b32b4d1fa46e071723d6817e2486d003becc55f00556001600160a01b0383166100e85760405162461bcd60e51b815260206004820152601860248201527f50726573616c655661756c743a207a65726f20746f6b656e0000000000000000604482015260640161005b565b6001600160a01b03821661013e5760405162461bcd60e51b815260206004820152601b60248201527f50726573616c655661756c743a207a65726f2074726561737572790000000000604482015260640161005b565b6001600160a01b038381166080908152601f8054928516620100000262010000600160b01b031990931692909217909155604080516101408082018352652d79883d200080835268056bc75e2d6310000060208085018290525f858701819052662386f26fc100006060808801829052671bc16d674ec80000888b0181905260a0808a0185905260c0808b01869052600160e0808d01829052610100808e018990526101209d8e018990529a825560029990995560038790556004869055600593909355600686905560078690556008805460ff1990811685179091556009879055600a805490911690558b51998a018c52655af3107a40008a52681b1ae4d6e2ef500000968a019690965299880184905290870191909152674563918244f4000098860198909852958401869052830185905282018590528101839052908101919091529080600a02015f820151815f01556020820151816001015560408201518160020155606082015181600301556080820151816004015560a0820151816005015560c0820151816006015560e0820151816007015f6101000a81548160ff0219169083151502179055506101008201518160080155610120820151816009015f6101000a81548160ff02191690831515021790555090505060405180610140016040528065b5e620f480008152602001686c6b935b8bbd40000081526020015f81526020016611c37937e080008152602001678ac7230489e8000081526020015f81526020015f81526020015f151581526020015f801b81526020015f15158152506001600280811115610398576103986104e3565b60ff16600381106103ab576103ab6104f7565b8251600a91909102919091019081556020820151600182015560408201516002820155606082015160038201556080820151600482015560a0820151600582015560c0820151600682015560e082015160078201805491151560ff1992831617905561010083015160088301556101209092015160099091018054911515919092161790555061050b915050565b5f80546001600160a01b038381166001600160a01b0319831681178455604051919092169283917f8be0079c531659141344cd1fd0a4f28419497f9722a3daafe3b4186f6b6457e09190a35050565b80516001600160a01b038116811461049e575f80fd5b919050565b5f805f606084860312156104b5575f80fd5b6104be84610488565b92506104cc60208501610488565b91506104da60408501610488565b90509250925092565b634e487b7160e01b5f52602160045260245ffd5b634e487b7160e01b5f52603260045260245ffd5b608051611dad61052a5f395f81816105b501526112210152611dad5ff3fe6080604052600436106101b2575f3560e01c806389885049116100e7578063d96e44db11610087578063f0f4426011610062578063f0f4426014610552578063f2fde38b14610571578063f6a3b1dd14610590578063fc0c546a146105a4575f80fd5b8063d96e44db14610509578063e5066bbf1461051d578063ec92335d1461053e575f80fd5b806399288dbb116100c257806399288dbb14610435578063ab98089f14610453578063c47cfca114610466578063d01c44cd146104f5575f80fd5b8063898850491461038d5780638c65c81f146103ac5780638da5cb5b14610419575f80fd5b806354d77e0e1161015257806361d027b31161012d57806361d027b314610309578063715018a614610346578063808d30231461035a5780638456cb5914610379575f80fd5b806354d77e0e146102ad5780635c975abb146102cc5780635e98ab90146102f5575f80fd5b806322a958691161018d57806322a958691461023057806324600fc31461024f57806338c68d8d146102635780633f4ba83a14610299575f80fd5b80630ffbdcaa146101bd57806311f0281e146101de5780631514617e1461020d575f80fd5b366101b957005b5f80fd5b3480156101c8575f80fd5b506101dc6101d7366004611a1d565b6105d7565b005b3480156101e9575f80fd5b50601f546101f79060ff1681565b6040516102049190611a48565b60405180910390f35b348015610218575f80fd5b5061022260205481565b604051908152602001610204565b34801561023b575f80fd5b506101dc61024a366004611a83565b61066c565b34801561025a575f80fd5b506101dc610846565b34801561026e575f80fd5b5061022261027d366004611acf565b602160209081525f928352604080842090915290825290205481565b3480156102a4575f80fd5b506101dc6109b5565b3480156102b8575f80fd5b506101dc6102c7366004611b00565b6109c5565b3480156102d7575f80fd5b505f54600160a01b900460ff165b6040519015158152602001610204565b348015610300575f80fd5b50610222610a16565b348015610314575f80fd5b50601f5461032e906201000090046001600160a01b031681565b6040516001600160a01b039091168152602001610204565b348015610351575f80fd5b506101dc610a5c565b348015610365575f80fd5b506101dc610374366004611b00565b610a6d565b348015610384575f80fd5b506101dc610b75565b348015610398575f80fd5b506102226103a7366004611b28565b610b85565b3480156103b7575f80fd5b506103cb6103c6366004611a1d565b610be2565b604080519a8b5260208b0199909952978901969096526060880194909452608087019290925260a086015260c0850152151560e0840152610100830152151561012082015261014001610204565b348015610424575f80fd5b505f546001600160a01b031661032e565b348015610440575f80fd5b50601f546102e590610100900460ff1681565b6101dc610461366004611b41565b610c3f565b348015610471575f80fd5b506104be610480366004611b28565b60226020525f9081526040902080546001909101546001600160c01b03821691600160c01b900467ffffffffffffffff16906001600160801b031683565b604080516001600160c01b03909416845267ffffffffffffffff90921660208401526001600160801b031690820152606001610204565b348015610500575f80fd5b506101dc6110ce565b348015610514575f80fd5b506101dc6112c6565b348015610528575f80fd5b5061053161134d565b6040516102049190611bb2565b348015610549575f80fd5b5061022261140a565b34801561055d575f80fd5b506101dc61056c366004611b28565b61147d565b34801561057c575f80fd5b506101dc61058b366004611b28565b61152e565b34801561059b575f80fd5b5061022261156b565b3480156105af575f80fd5b5061032e7f000000000000000000000000000000000000000000000000000000000000000081565b6105df6115ad565b5f81116106335760405162461bcd60e51b815260206004820152601b60248201527f50726573616c655661756c743a207a65726f206475726174696f6e000000000060448201526064015b60405180910390fd5b60208181556040518281527fe41050a384bb8564f1f0f7deee716caf1c0a20a94b147933a4a217427fceaace910160405180910390a150565b6106746115ad565b60038460ff16106106975760405162461bcd60e51b815260040161062a90611c5e565b8282116106e65760405162461bcd60e51b815260206004820152601860248201527f50726573616c655661756c743a206261642077696e646f770000000000000000604482015260640161062a565b60018460ff16600381106106fc576106fc611c95565b600a02016009015460ff16156107545760405162461bcd60e51b815260206004820152601f60248201527f50726573616c655661756c743a20616c72656164792066696e616c697a656400604482015260640161062a565b601f54610100900460ff161561078457601f546107849060ff16600281111561077f5761077f611a34565b6115d9565b5f60018560ff166003811061079b5761079b611c95565b600a020190508381600501819055508281600601819055508181600801819055508460ff1660028111156107d1576107d1611a34565b601f805460ff191660018360028111156107ed576107ed611a34565b0217905550601f805461ff001916610100179055604080518581526020810185905260ff8716917f4e14f0de5191ba77ffd2040a79626c9bb4adb4e36196281dd3853be8909679bf910160405180910390a25050505050565b61084e6115ad565b61085661166a565b47806108ae5760405162461bcd60e51b815260206004820152602160248201527f50726573616c655661756c743a206e6f7468696e6720746f20776974686472616044820152607760f81b606482015260840161062a565b601f546040515f916201000090046001600160a01b03169083908381818185875af1925050503d805f81146108fe576040519150601f19603f3d011682016040523d82523d5f602084013e610903565b606091505b50509050806109545760405162461bcd60e51b815260206004820152601d60248201527f50726573616c655661756c743a207472616e73666572206661696c6564000000604482015260640161062a565b601f54604051838152620100009091046001600160a01b0316907feaff4b37086828766ad3268786972c0cd24259d4c87a80f9d3963a3c3d999b0d9060200160405180910390a250506109b360015f80516020611d5883398151915255565b565b6109bd6115ad565b6109b3611685565b6109cd6115ad565b60038260ff16106109f05760405162461bcd60e51b815260040161062a90611c5e565b8060018360ff1660038110610a0757610a07611c95565b600a0201600801819055505050565b5f805b60038160ff161015610a585760018160ff1660038110610a3b57610a3b611c95565b600a02016002015482610a4e9190611cbd565b9150600101610a19565b5090565b610a646115ad565b6109b35f6116d9565b610a756115ad565b60038260ff1610610a985760405162461bcd60e51b815260040161062a90611c5e565b5f8111610ae75760405162461bcd60e51b815260206004820152601860248201527f50726573616c655661756c743a207a65726f2070726963650000000000000000604482015260640161062a565b60018260ff1660038110610afd57610afd611c95565b600a02016009015460ff1615610b555760405162461bcd60e51b815260206004820152601760248201527f50726573616c655661756c743a2066696e616c697a6564000000000000000000604482015260640161062a565b8060018360ff1660038110610b6c57610b6c611c95565b600a0201555050565b610b7d6115ad565b6109b3611728565b6001600160a01b0381165f90815260226020526040812080546001600160c01b03168203610bb557505f92915050565b5f610bbf8261176a565b6001830154909150610bda906001600160801b031682611cd0565b949350505050565b60018160038110610bf1575f80fd5b600a020180546001820154600283015460038401546004850154600586015460068701546007880154600889015460099099015497995095979496939592949193909260ff9081169291168a565b610c4761166a565b610c4f611802565b601f54610100900460ff16610ca65760405162461bcd60e51b815260206004820152601b60248201527f50726573616c655661756c743a2073616c65206e6f74206f70656e0000000000604482015260640161062a565b601f545f9060ff166002811115610cbf57610cbf611a34565b90505f60018260ff1660038110610cd857610cd8611c95565b600a020190508060050154421015610d325760405162461bcd60e51b815260206004820152601960248201527f50726573616c655661756c743a206e6f74207374617274656400000000000000604482015260640161062a565b8060060154421115610d865760405162461bcd60e51b815260206004820152601960248201527f50726573616c655661756c743a20726f756e6420656e64656400000000000000604482015260640161062a565b600981015460ff1615610ddb5760405162461bcd60e51b815260206004820152601d60248201527f50726573616c655661756c743a20726f756e642066696e616c697a6564000000604482015260640161062a565b8060030154341015610e2f5760405162461bcd60e51b815260206004820152601b60248201527f50726573616c655661756c743a2062656c6f77206d696e206275790000000000604482015260640161062a565b335f90815260216020908152604080832060ff86168452909152812054610e57903490611cbd565b90508160040154811115610ead5760405162461bcd60e51b815260206004820181905260248201527f50726573616c655661756c743a20657863656564732077616c6c657420636170604482015260640161062a565b5f348360020154610ebe9190611cbd565b90508260010154811115610f145760405162461bcd60e51b815260206004820152601d60248201527f50726573616c655661756c743a20686172646361702072656163686564000000604482015260640161062a565b600783015460ff1615610f7957610f2d8433888861182c565b610f795760405162461bcd60e51b815260206004820152601d60248201527f50726573616c655661756c743a206e6f742077686974656c6973746564000000604482015260640161062a565b82545f90610f8f34670de0b6b3a7640000611ce3565b610f999190611cfa565b60028501839055335f81815260216020908152604080832060ff8b1684528252808320889055928252602290529081208054929350916001600160c01b03169003610ffe5780546001600160c01b0316600160c01b4267ffffffffffffffff16021781555b8054829082905f9061101a9084906001600160c01b0316611d19565b92506101000a8154816001600160c01b0302191690836001600160c01b031602179055508560ff16336001600160a01b03167f78408fb808ae2018d121a91ae47221eb4b85530dc14522ce2ddcb93083e269d63485604051611086929190918252602082015260400190565b60405180910390a3846001015483036110ae576110a2866115d9565b601f805461ff00191690555b5050505050506110ca60015f80516020611d5883398151915255565b5050565b6110d661166a565b6110de611802565b335f90815260226020526040902080546001600160c01b03166111435760405162461bcd60e51b815260206004820152601b60248201527f50726573616c655661756c743a206e6f20616c6c6f636174696f6e0000000000604482015260640161062a565b5f61114d8261176a565b60018301549091505f9061116a906001600160801b031683611cd0565b90505f81116111bb5760405162461bcd60e51b815260206004820152601e60248201527f50726573616c655661756c743a206e6f7468696e6720746f20636c61696d0000604482015260640161062a565b6001830180548291905f906111da9084906001600160801b0316611d38565b82546001600160801b039182166101009390930a9283029190920219909116179055506040516340c10f1960e01b8152336004820152602481018290526001600160a01b037f000000000000000000000000000000000000000000000000000000000000000016906340c10f19906044015f604051808303815f87803b158015611262575f80fd5b505af1158015611274573d5f803e3d5ffd5b50506040518381523392507f9fe9b7be9d151c7a8b6de49a1312ff27a15096d0d1d12999af85fe4310e0b125915060200160405180910390a25050506109b360015f80516020611d5883398151915255565b6112ce6115ad565b601f54610100900460ff166113255760405162461bcd60e51b815260206004820152601b60248201527f50726573616c655661756c743a206e6f206f70656e20726f756e640000000000604482015260640161062a565b601f546113409060ff16600281111561077f5761077f611a34565b601f805461ff0019169055565b6113556119a5565b6040805160608101909152600160035f835b82821015611401576040805161014081018252600a84028601805482526001808201546020808501919091526002830154948401949094526003820154606084015260048201546080840152600582015460a0840152600682015460c0840152600782015460ff908116151560e0850152600883015461010085015260099092015490911615156101208301529083529092019101611367565b50505050905090565b601f545f90610100900460ff1661142057505f90565b601f545f9060019060ff16600281111561143c5761143c611a34565b60ff166003811061144f5761144f611c95565b600a0201905080600601544210611467575f91505090565b4281600601546114779190611cd0565b91505090565b6114856115ad565b6001600160a01b0381166114db5760405162461bcd60e51b815260206004820152601a60248201527f50726573616c655661756c743a207a65726f2061646472657373000000000000604482015260640161062a565b601f805462010000600160b01b031916620100006001600160a01b038416908102919091179091556040517f7dae230f18360d76a040c81f050aa14eb9d6dc7901b20fc5d855e2a20fe814d1905f90a250565b6115366115ad565b6001600160a01b03811661155f57604051631e4fbdf760e01b81525f600482015260240161062a565b611568816116d9565b50565b5f805b60038160ff161015610a585760018160ff166003811061159057611590611c95565b600a020160010154826115a39190611cbd565b915060010161156e565b5f546001600160a01b031633146109b35760405163118cdaa760e01b815233600482015260240161062a565b6001808260ff16600381106115f0576115f0611c95565b600a02016009015f6101000a81548160ff0219169083151502179055508060ff167fcffbcd5ac020e5594157981cb2e68b4b5b8d3fdeedb04cadb2a08e09bbdc642a60018360ff166003811061164857611648611c95565b600a02016002015460405161165f91815260200190565b60405180910390a250565b6116726118cb565b60025f80516020611d5883398151915255565b61168d6118fa565b5f805460ff60a01b191690557f5db9ee0a495bf2e6ff9c91a7834c1ba4fdd244a5e8aa4e537bd38aeae4b073aa335b6040516001600160a01b03909116815260200160405180910390a1565b5f80546001600160a01b038381166001600160a01b0319831681178455604051919092169283917f8be0079c531659141344cd1fd0a4f28419497f9722a3daafe3b4186f6b6457e09190a35050565b611730611802565b5f805460ff60a01b1916600160a01b1790557f62e78cea01bee320cd4e420270b5ea74000d11b0c9f74754ebdbfc544b05a2586116bc3390565b80545f90600160c01b900467ffffffffffffffff16421161178c57505f919050565b81545f906117ab90600160c01b900467ffffffffffffffff1642611cd0565b9050620151808110156117c057505f92915050565b60205481106117d8575050546001600160c01b031690565b60205483546117f19083906001600160c01b0316611ce3565b6117fb9190611cfa565b9392505050565b5f54600160a01b900460ff16156109b35760405163d93c066560e01b815260040160405180910390fd5b6040516bffffffffffffffffffffffff19606085901b1660208201525f9081906034016040516020818303038152906040528051906020012090506118c18484808060200260200160405190810160405280939291908181526020018383602002808284375f9201919091525060019250505060ff8916600381106118b3576118b3611c95565b600a02016008015483611923565b9695505050505050565b5f80516020611d58833981519152546002036109b357604051633ee5aeb560e01b815260040160405180910390fd5b5f54600160a01b900460ff166109b357604051638dfc202b60e01b815260040160405180910390fd5b5f8261192f8584611938565b14949350505050565b5f81815b8451811015611972576119688286838151811061195b5761195b611c95565b602002602001015161197c565b915060010161193c565b5090505b92915050565b5f818310611996575f8281526020849052604090206117fb565b505f9182526020526040902090565b60405180606001604052806003905b611a076040518061014001604052805f81526020015f81526020015f81526020015f81526020015f81526020015f81526020015f81526020015f151581526020015f80191681526020015f151581525090565b8152602001906001900390816119b45790505090565b5f60208284031215611a2d575f80fd5b5035919050565b634e487b7160e01b5f52602160045260245ffd5b6020810160038310611a6857634e487b7160e01b5f52602160045260245ffd5b91905290565b803560ff81168114611a7e575f80fd5b919050565b5f805f8060808587031215611a96575f80fd5b611a9f85611a6e565b966020860135965060408601359560600135945092505050565b80356001600160a01b0381168114611a7e575f80fd5b5f8060408385031215611ae0575f80fd5b611ae983611ab9565b9150611af760208401611a6e565b90509250929050565b5f8060408385031215611b11575f80fd5b611b1a83611a6e565b946020939093013593505050565b5f60208284031215611b38575f80fd5b6117fb82611ab9565b5f8060208385031215611b52575f80fd5b823567ffffffffffffffff811115611b68575f80fd5b8301601f81018513611b78575f80fd5b803567ffffffffffffffff811115611b8e575f80fd5b8560208260051b8401011115611ba2575f80fd5b6020919091019590945092505050565b6103c0810181835f5b6003811015611c55578151805184526020810151602085015260408101516040850152606081015160608501526080810151608085015260a081015160a085015260c081015160c085015260e0810151611c1960e086018215159052565b506101008101516101008501526101208101519050611c3d61012085018215159052565b50610140929092019160209190910190600101611bbb565b50505092915050565b6020808252601b908201527f50726573616c655661756c743a20696e76616c696420726f756e640000000000604082015260600190565b634e487b7160e01b5f52603260045260245ffd5b634e487b7160e01b5f52601160045260245ffd5b8082018082111561197657611976611ca9565b8181038181111561197657611976611ca9565b808202811582820484141761197657611976611ca9565b5f82611d1457634e487b7160e01b5f52601260045260245ffd5b500490565b6001600160c01b03818116838216019081111561197657611976611ca9565b6001600160801b03818116838216019081111561197657611976611ca956fe9b779b17422d0df92223018b32b4d1fa46e071723d6817e2486d003becc55f00a2646970667358221220ee0cf62cb375ad5c0b5b31338de3648663f1d2ee6650bc522ad7c7bfd6e8872864736f6c634300081a0033",
  "linkReferences": {},
  "deployedLinkReferences": {}
}