{
  "_format": "hh-sol-artifact-1",
  "contractName": "PresaleVault",
  "sourceName": "contracts/PresaleVault.sol",
  "abi": [
    {
      "inputs": [
        {
          "internalType": "address",
          "name": "_token",
          "type": "address"
        },
        {
          "internalType": "address",
          "name": "_treasury",
          "type": "address"
        },
        {
          "internalType": "address",
          "name": "_owner",
          "type": "address"
        }
      ],
      "stateMutability": "nonpayable",
      "type": "constructor"
    },
    {
      "inputs": [],
      "name": "EnforcedPause",
      "type": "error"
    },
    {
      "inputs": [],
      "name": "ExpectedPause",
      "type": "error"
    },
    {
      "inputs": [
        {
          "internalType": "address",
          "name": "owner",
          "type": "address"
        }
      ],
      "name": "OwnableInvalidOwner",
      "type": "error"
    },
    {
      "inputs": [
        {
          "internalType": "address",
          "name": "account",
          "type": "address"
        }
      ],
      "name": "OwnableUnauthorizedAccount",
      "type": "error"
    },
    {
      "inputs": [],
      "name": "ReentrancyGuardReentrantCall",
      "type": "error"
    },
    {
      "anonymous": false,
      "inputs": [
        {
          "indexed": true,
          "internalType": "address",
          "name": "treasury",
          "type": "address"
        },
        {
          "indexed": false,
          "internalType": "uint256",
          "name": "amount",
          "type": "uint256"
        }
      ],
      "name": "FundsWithdrawn",
      "type": "event"
    },
    {
      "anonymous": false,
      "inputs": [
        {
          "indexed": true,
          "internalType": "address",
          "name": "previousOwner",
          "type": "address"
        },
        {
          "indexed": true,
          "internalType": "address",
          "name": "newOwner",
          "type": "address"
        }
      ],
      "name": "OwnershipTransferred",
      "type": "event"
    },
    {
      "anonymous": false,
      "inputs": [
        {
          "indexed": false,
          "internalType": "address",
          "name": "account",
          "type": "address"
        }
      ],
      "name": "Paused",
      "type": "event"
    },
    {
      "anonymous": false,
      "inputs": [
        {
          "indexed": true,
          "internalType": "uint8",
          "name": "roundIndex",
          "type": "uint8"
        },
        {
          "indexed": false,
          "internalType": "uint256",
          "name": "totalRaised",
          "type": "uint256"
        }
      ],
      "name": "RoundClosed",
      "type": "event"
    },
    {
      "anonymous": false,
      "inputs": [
        {
          "indexed": true,
          "internalType": "uint8",
          "name": "roundIndex",
          "type": "uint8"
        },
        {
          "indexed": false,
          "internalType": "uint256",
          "name": "startTime",
          "type": "uint256"
        },
        {
          "indexed": false,
          "internalType": "uint256",
          "name": "endTime",
          "type": "uint256"
        }
      ],
      "name": "RoundOpened",
      "type": "event"
    },
    {
      "anonymous": false,
      "inputs": [
        {
          "indexed": true,
          "internalType": "address",
          "name": "buyer",
          "type": "address"
        },
        {
          "indexed": true,
          "internalType": "uint8",
          "name": "roundIndex",
          "type": "uint8"
        },
        {
          "indexed": false,
          "internalType": "uint256",
          "name": "nativeAmount",
          "type": "uint256"
        },
        {
          "indexed": false,
          "internalType": "uint256",
          "name": "tokenAmount",
          "type": "uint256"
        }
      ],
      "name": "TokensPurchased",
      "type": "event"
    },
    {
      "anonymous": false,
      "inputs": [
        {
          "indexed": true,
          "internalType": "address",
          "name": "newTreasury",
          "type": "address"
        }
      ],
      "name": "TreasuryUpdated",
      "type": "event"
    },
    {
      "anonymous": false,
      "inputs": [
        {
          "indexed": false,
          "internalType": "address",
          "name": "account",
          "type": "address"
        }
      ],
      "name": "Unpaused",
      "type": "event"
    },
    {
      "anonymous": false,
      "inputs": [
        {
          "indexed": true,
          "internalType": "address",
          "name": "claimer",
          "type": "address"
        },
        {
          "indexed": false,
          "internalType": "uint256",
          "name": "tokenAmount",
          "type": "uint256"
        }
      ],
      "name": "VestingClaimed",
      "type": "event"
    },
    {
      "anonymous": false,
      "inputs": [
        {
          "indexed": false,
          "internalType": "uint256",
          "name": "newDuration",
          "type": "uint256"
        }
      ],
      "name": "VestingDurationUpdated",
      "type": "event"
    },
    {
      "inputs": [],
      "name": "activeRound",
      "outputs": [
        {
          "internalType": "enum PresaleVault.RoundType",
          "name": "",
          "type": "uint8"
        }
      ],
      "stateMutability": "view",
      "type": "function"
    },
    {
      "inputs": [
        {
          "internalType": "bytes32[]",
          "name": "merkleProof",
          "type": "bytes32[]"
        }
      ],
      "name": "buyTokens",
      "outputs": [],
      "stateMutability": "payable",
      "type": "function"
    },
    {
      "inputs": [],
      "name": "claimVested",
      "outputs": [],
      "stateMutability": "nonpayable",
      "type": "function"
    },
    {
      "inputs": [
        {
          "internalType": "address",
          "name": "wallet",
          "type": "address"
        }
      ],
      "name": "claimableAmount",
      "outputs": [
        {
          "internalType": "uint256",
          "name": "",
          "type": "uint256"
        }
      ],
      "stateMutability": "view",
      "type": "function"
    },
    {
      "inputs": [],
      "name": "closeCurrentRound",
      "outputs": [],
      "stateMutability": "nonpayable",
      "type": "function"
    },
    {
      "inputs": [],
      "name": "getAllRounds",
      "outputs": [
        {
          "components": [
            {
              "internalType": "uint256",
              "name": "pricePerToken",
              "type": "uint256"
            },
            {
              "internalType": "uint256",
              "name": "hardcap",
              "type": "uint256"
            },
            {
              "internalType": "uint256",
              "name": "totalRaised",
              "type": "uint256"
            },
            {
              "internalType": "uint256",
              "name": "minBuy",
              "type": "uint256"
            },
            {
              "internalType": "uint256",
              "name": "maxBuy",
              "type": "uint256"
            },
            {
              "internalType": "uint256",
              "name": "startTime",
              "type": "uint256"
            },
            {
              "internalType": "uint256",
              "name": "endTime",
              "type": "uint256"
            },
            {
              "internalType": "bool",
              "name": "whitelistRequired",
              "type": "bool"
            },
            {
              "internalType": "bytes32",
              "name": "merkleRoot",
              "type": "bytes32"
            },
            {
              "internalType": "bool",
              "name": "finalized",
              "type": "bool"
            }
          ],
          "internalType": "struct PresaleVault.Round[3]",
          "name": "",
          "type": "tuple[3]"
        }
      ],
      "stateMutability": "view",
      "type": "function"
    },
    {
      "inputs": [
        {
          "internalType": "uint8",
          "name": "roundIndex",
          "type": "uint8"
        },
        {
          "internalType": "uint256",
          "name": "startTime",
          "type": "uint256"
        },
        {
          "internalType": "uint256",
          "name": "endTime",
          "type": "uint256"
        },
        {
          "internalType": "bytes32",
          "name": "merkleRoot",
          "type": "bytes32"
        }
      ],
      "name": "openRound",
      "outputs": [],
      "stateMutability": "nonpayable",
      "type": "function"
    },
    {
      "inputs": [],
      "name": "owner",
      "outputs": [
        {
          "internalType": "address",
          "name": "",
          "type": "address"
        }
      ],
      "stateMutability": "view",
      "type": "function"
    },
    {
      "inputs": [],
      "name": "pause",
      "outputs": [],
      "stateMutability": "nonpayable",
      "type": "function"
    },
    {
      "inputs": [],
      "name": "paused",
      "outputs": [
        {
          "internalType": "bool",
          "name": "",
          "type": "bool"
        }
      ],
      "stateMutability": "view",
      "type": "function"
    },
    {
      "inputs": [],
      "name": "renounceOwnership",
      "outputs": [],
      "stateMutability": "nonpayable",
      "type": "function"
    },
    {
      "inputs": [],
      "name": "roundTimeLeft",
      "outputs": [
        {
          "internalType": "uint256",
          "name": "",
          "type": "uint256"
        }
      ],
      "stateMutability": "view",
      "type": "function"
    },
    {
      "inputs": [
        {
          "internalType": "uint256",
          "name": "",
          "type": "uint256"
        }
      ],
      "name": "rounds",
      "outputs": [
        {
          "internalType": "uint256",
          "name": "pricePerToken",
          "type": "uint256"
        },
        {
          "internalType": "uint256",
          "name": "hardcap",
          "type": "uint256"
        },
        {
          "internalType": "uint256",
          "name": "totalRaised",
          "type": "uint256"
        },
        {
          "internalType": "uint256",
          "name": "minBuy",
          "type": "uint256"
        },
        {
          "internalType": "uint256",
          "name": "maxBuy",
          "type": "uint256"
        },
        {
          "internalType": "uint256",
          "name": "startTime",
          "type": "uint256"
        },
        {
          "internalType": "uint256",
          "name": "endTime",
          "type": "uint256"
        },
        {
          "internalType": "bool",
          "name": "whitelistRequired",
          "type": "bool"
        },
        {
          "internalType": "bytes32",
          "name": "merkleRoot",
          "type": "bytes32"
        },
        {
          "internalType": "bool",
          "name": "finalized",
          "type": "bool"
        }
      ],
      "stateMutability": "view",
      "type": "function"
    },
    {
      "inputs": [],
      "name": "saleOpen",
      "outputs": [
        {
          "internalType": "bool",
          "name": "",
          "type": "bool"
        }
      ],
      "stateMutability": "view",
      "type": "function"
    },
    {
      "inputs": [
        {
          "internalType": "uint8",
          "name": "roundIndex",
          "type": "uint8"
        },
        {
          "internalType": "bytes32",
          "name": "root",
          "type": "bytes32"
        }
      ],
      "name": "setMerkleRoot",
      "outputs": [],
      "stateMutability": "nonpayable",
      "type": "function"
    },
    {
      "inputs": [
        {
          "internalType": "uint8",
          "name": "roundIndex",
          "type": "uint8"
        },
        {
          "internalType": "uint256",
          "name": "pricePerToken",
          "type": "uint256"
        }
      ],
      "name": "setRoundPrice",
      "outputs": [],
      "stateMutability": "nonpayable",
      "type": "function"
    },
    {
      "inputs": [
        {
          "internalType": "address",
          "name": "_treasury",
          "type": "address"
        }
      ],
      "name": "setTreasury",
      "outputs": [],
      "stateMutability": "nonpayable",
      "type": "function"
    },
    {
      "inputs": [
        {
          "internalType": "uint256",
          "name": "_duration",
          "type": "uint256"
        }
      ],
      "name": "setVestingDuration",
      "outputs": [],
      "stateMutability": "nonpayable",
      "type": "function"
    },
    {
      "inputs": [],
      "name": "token",
      "outputs": [
        {
          "internalType": "contract VaultXToken",
          "name": "",
          "type": "address"
        }
      ],
      "stateMutability": "view",
      "type": "function"
    },
    {
      "inputs": [],
      "name": "totalHardcap",
      "outputs": [
        {
          "internalType": "uint256",
          "name": "cap",
          "type": "uint256"
        }
      ],
      "stateMutability": "view",
      "type": "function"
    },
    {
      "inputs": [],
      "name": "totalRaisedAllRounds",
      "outputs": [
        {
          "internalType": "uint256",
          "name": "total",
          "type": "uint256"
        }
      ],
      "stateMutability": "view",
      "type": "function"
    },
    {
      "inputs": [
        {
          "internalType": "address",
          "name": "newOwner",
          "type": "address"
        }
      ],
      "name": "transferOwnership",
      "outputs": [],
      "stateMutability": "nonpayable",
      "type": "function"
    },
    {
      "inputs": [],
      "name": "treasury",
      "outputs": [
        {
          "internalType": "address",
          "name": "",
          "type": "address"
        }
      ],
      "stateMutability": "view",
      "type": "function"
    },
    {
      "inputs": [],
      "name": "unpause",
      "outputs": [],
      "stateMutability": "nonpayable",
      "type": "function"
    },
    {
      "inputs": [],
      "name": "vestingDuration",
      "outputs": [
        {
          "internalType": "uint256",
          "name": "",
          "type": "uint256"
        }
      ],
      "stateMutability": "view",
      "type": "function"
    },
    {
      "inputs": [
        {
          "internalType": "address",
          "name": "",
          "type": "address"
        }
      ],
      "name": "vestingOf",
      "outputs": [
        {
          "internalType": "uint192",
          "name": "totalTokens",
          "type": "uint192"
        },
        {
          "internalType": "uint64",
          "name": "vestStart",
          "type": "uint64"
        },
        {
          "internalType": "uint128",
          "name": "claimedTokens",
          "type": "uint128"
        }
      ],
      "stateMutability": "view",
      "type": "function"
    },
    {
      "inputs": [
        {
          "internalType": "address",
          "name": "",
          "type": "address"
        },
        {
          "internalType": "uint8",
          "name": "",
          "type": "uint8"
        }
      ],
      "name": "walletRaised",
      "outputs": [
        {
          "internalType": "uint256",
          "name": "",
          "type": "uint256"
        }
      ],
      "stateMutability": "view",
      "type": "function"
    },
    {
      "inputs": [],
      "name": "withdrawFunds",
      "outputs": [],
      "stateMutability": "nonpayable",
      "type": "function"
    },
    {
      "stateMutability": "payable",
      "type": "receive"
    }
  ],
  "bytecode": "0x60a060405262ed4e00602055348015610016575f80fd5b5060405161545e38038061545e83398181016040528101906100389190610870565b805f73ffffffffffffffffffffffffffffffffffffffff168173ffffffffffffffffffffffffffffffffffffffff16036100a9575f6040517f1e4fbdf70000000000000000000000000000000000000000000000000000000081526004016100a091906108cf565b60405180910390fd5b6100b88161071c60201b60201c565b5060016100d76100cc6107dd60201b60201c565b61080660201b60201c565b5f01819055506100f7679d16fa2936a36d3e60c01b61080f60201b60201c565b6101116777744399978ff73f60c01b61080f60201b60201c565b61012b674e06d3073b29d14460c01b61080f60201b60201c565b6101456710e6cb5718791efe60c01b61080f60201b60201c565b5f73ffffffffffffffffffffffffffffffffffffffff168373ffffffffffffffffffffffffffffffffffffffff16036101b3576040517f08c379a00000000000000000000000000000000000000000000000000000000081526004016101aa90610942565b60405180910390fd5b6101cd6725d4c6e88bd9267360c01b61080f60201b60201c565b6101e7674eaeb4a4c186767d60c01b61080f60201b60201c565b610201674e4dc13e9e9db59460c01b61080f60201b60201c565b61021b674eca975f982e062360c01b61080f60201b60201c565b5f73ffffffffffffffffffffffffffffffffffffffff168273ffffffffffffffffffffffffffffffffffffffff1603610289576040517f08c379a0000000000000000000000000000000000000000000000000000000008152600401610280906109aa565b60405180910390fd5b6102a3675f70c042d3cdc6e160c01b61080f60201b60201c565b6102bd67e078bf9ba12b1fc460c01b61080f60201b60201c565b8273ffffffffffffffffffffffffffffffffffffffff1660808173ffffffffffffffffffffffffffffffffffffffff168152505061030b677fbf1249ad445c8660c01b61080f60201b60201c565b81601f60026101000a81548173ffffffffffffffffffffffffffffffffffffffff021916908373ffffffffffffffffffffffffffffffffffffffff16021790555061036667bc288ec48a57272360c01b61080f60201b60201c565b604051806101400160405280652d79883d2000815260200168056bc75e2d6310000081526020015f8152602001662386f26fc100008152602001671bc16d674ec8000081526020015f81526020015f81526020016001151581526020015f801b81526020015f151581525060015f60028111156103e6576103e56109c8565b5b60ff16600381106103fa576103f96109f5565b5b600a02015f820151815f01556020820151816001015560408201518160020155606082015181600301556080820151816004015560a0820151816005015560c0820151816006015560e0820151816007015f6101000a81548160ff0219169083151502179055506101008201518160080155610120820151816009015f6101000a81548160ff0219169083151502179055509050506104a96790b4fc2fbb4418af60c01b61080f60201b60201c565b604051806101400160405280655af3107a40008152602001681b1ae4d6e2ef50000081526020015f8152602001662386f26fc100008152602001674563918244f4000081526020015f81526020015f81526020016001151581526020015f801b81526020015f15158152506001806002811115610529576105286109c8565b5b60ff166003811061053d5761053c6109f5565b5b600a02015f820151815f01556020820151816001015560408201518160020155606082015181600301556080820151816004015560a0820151816005015560c0820151816006015560e0820151816007015f6101000a81548160ff0219169083151502179055506101008201518160080155610120820151816009015f6101000a81548160ff0219169083151502179055509050506105ec6785b9aa745495840260c01b61080f60201b60201c565b60405180610140016040528065b5e620f480008152602001686c6b935b8bbd40000081526020015f81526020016611c37937e080008152602001678ac7230489e8000081526020015f81526020015f81526020015f151581526020015f801b81526020015f1515815250600160028081111561066b5761066a6109c8565b5b60ff166003811061067f5761067e6109f5565b5b600a02015f820151815f01556020820151816001015560408201518160020155606082015181600301556080820151816004015560a0820151816005015560c0820151816006015560e0820151816007015f6101000a81548160ff0219169083151502179055506101008201518160080155610120820151816009015f6101000a81548160ff021916908315150217905550905050505050610a22565b5f805f9054906101000a900473ffffffffffffffffffffffffffffffffffffffff169050815f806101000a81548173ffffffffffffffffffffffffffffffffffffffff021916908373ffffffffffffffffffffffffffffffffffffffff1602179055508173ffffffffffffffffffffffffffffffffffffffff168173ffffffffffffffffffffffffffffffffffffffff167f8be0079c531659141344cd1fd0a4f28419497f9722a3daafe3b4186f6b6457e060405160405180910390a35050565b5f7f9b779b17422d0df92223018b32b4d1fa46e071723d6817e2486d003becc55f005f1b905090565b5f819050919050565b50565b5f80fd5b5f73ffffffffffffffffffffffffffffffffffffffff82169050919050565b5f61083f82610816565b9050919050565b61084f81610835565b8114610859575f80fd5b50565b5f8151905061086a81610846565b92915050565b5f805f6060848603121561088757610886610812565b5b5f6108948682870161085c565b93505060206108a58682870161085c565b92505060406108b68682870161085c565b9150509250925092565b6108c981610835565b82525050565b5f6020820190506108e25f8301846108c0565b92915050565b5f82825260208201905092915050565b7f50726573616c655661756c743a207a65726f20746f6b656e00000000000000005f82015250565b5f61092c6018836108e8565b9150610937826108f8565b602082019050919050565b5f6020820190508181035f83015261095981610920565b9050919050565b7f50726573616c655661756c743a207a65726f20747265617375727900000000005f82015250565b5f610994601b836108e8565b915061099f82610960565b602082019050919050565b5f6020820190508181035f8301526109c181610988565b9050919050565b7f4e487b71000000000000000000000000000000000000000000000000000000005f52602160045260245ffd5b7f4e487b71000000000000000000000000000000000000000000000000000000005f52603260045260245ffd5b608051614a1d610a415f395f81816125bc0152612dd30152614a1d5ff3fe6080604052600436106101ba575f3560e01c806389885049116100eb578063d96e44db11610089578063f0f4426011610063578063f0f442601461057a578063f2fde38b146105a2578063f6a3b1dd146105ca578063fc0c546a146105f4576101c1565b8063d96e44db14610510578063e5066bbf14610526578063ec92335d14610550576101c1565b806399288dbb116100c557806399288dbb14610476578063ab98089f146104a0578063c47cfca1146104bc578063d01c44cd146104fa576101c1565b806389885049146103cb5780638c65c81f146104075780638da5cb5b1461044c576101c1565b806354d77e0e1161015857806361d027b31161013257806361d027b31461034d578063715018a614610377578063808d30231461038d5780638456cb59146103b5576101c1565b806354d77e0e146102d15780635c975abb146102f95780635e98ab9014610323576101c1565b806322a958691161019457806322a958691461024157806324600fc31461026957806338c68d8d1461027f5780633f4ba83a146102bb576101c1565b80630ffbdcaa146101c557806311f0281e146101ed5780631514617e14610217576101c1565b366101c157005b5f80fd5b3480156101d0575f80fd5b506101eb60048036038101906101e6919061374d565b61061e565b005b3480156101f8575f80fd5b50610201610771565b60405161020e91906137eb565b60405180910390f35b348015610222575f80fd5b5061022b610783565b6040516102389190613813565b60405180910390f35b34801561024c575f80fd5b5061026760048036038101906102629190613895565b610789565b005b348015610274575f80fd5b5061027d610bf6565b005b34801561028a575f80fd5b506102a560048036038101906102a09190613953565b610f0e565b6040516102b29190613813565b60405180910390f35b3480156102c6575f80fd5b506102cf610f2e565b005b3480156102dc575f80fd5b506102f760048036038101906102f29190613991565b610f90565b005b348015610304575f80fd5b5061030d6110a5565b60405161031a91906139e9565b60405180910390f35b34801561032e575f80fd5b506103376110ba565b6040516103449190613813565b60405180910390f35b348015610358575f80fd5b50610361611156565b60405161036e9190613a11565b60405180910390f35b348015610382575f80fd5b5061038b61117c565b005b348015610398575f80fd5b506103b360048036038101906103ae9190613a2a565b61118f565b005b3480156103c0575f80fd5b506103c96113f0565b005b3480156103d6575f80fd5b506103f160048036038101906103ec9190613a68565b611452565b6040516103fe9190613813565b60405180910390f35b348015610412575f80fd5b5061042d6004803603810190610428919061374d565b611626565b6040516104439a99989796959493929190613aa2565b60405180910390f35b348015610457575f80fd5b50610460611695565b60405161046d9190613a11565b60405180910390f35b348015610481575f80fd5b5061048a6116bc565b60405161049791906139e9565b60405180910390f35b6104ba60048036038101906104b59190613b9d565b6116cf565b005b3480156104c7575f80fd5b506104e260048036038101906104dd9190613a68565b6121c8565b6040516104f193929190613c66565b60405180910390f35b348015610505575f80fd5b5061050e61223f565b005b34801561051b575f80fd5b506105246126c5565b005b348015610531575f80fd5b5061053a612829565b6040516105479190613e29565b60405180910390f35b34801561055b575f80fd5b5061056461293a565b6040516105719190613813565b60405180910390f35b348015610585575f80fd5b506105a0600480360381019061059b9190613a68565b612aec565b005b3480156105ad575f80fd5b506105c860048036038101906105c39190613a68565b612cb1565b005b3480156105d5575f80fd5b506105de612d35565b6040516105eb9190613813565b60405180910390f35b3480156105ff575f80fd5b50610608612dd1565b6040516106159190613e9e565b60405180910390f35b61063267308e35d27295afad60c01b612df5565b61063a612df8565b61064e673e40817de137085c60c01b612df5565b610662671abf88332135c3f760c01b612df5565b610676675701d59cebe8fde760c01b612df5565b61068a676b47f5eeb402a0d660c01b612df5565b61069e67e4b58950d66f438960c01b612df5565b5f81116106e0576040517f08c379a00000000000000000000000000000000000000000000000000000000081526004016106d790613f11565b60405180910390fd5b6106f467679c0bee3f451c4a60c01b612df5565b6107086750f258dd2161179360c01b612df5565b80602081905550610723674f785e3f71abe7ef60c01b612df5565b61073767b05fb22f8f1bd2c860c01b612df5565b7fe41050a384bb8564f1f0f7deee716caf1c0a20a94b147933a4a217427fceaace816040516107669190613813565b60405180910390a150565b601f5f9054906101000a900460ff1681565b60205481565b61079d670d85b3c894f3329160c01b612df5565b6107a5612df8565b6107b967b40acdd39090278f60c01b612df5565b6107cd675e6ccc06175094cf60c01b612df5565b6107e167a8727a68e29d54cd60c01b612df5565b6107f567729abcb991d5bf3d60c01b612df5565b61080967578ad6e51b923f6560c01b612df5565b60038460ff161061084f576040517f08c379a000000000000000000000000000000000000000000000000000000000815260040161084690613f79565b60405180910390fd5b610863671b18e6d96c3c2a7360c01b612df5565b6108776719fbeed525fc80f460c01b612df5565b61088b67215a422887cba35460c01b612df5565b61089f67aee0fda57fb7993c60c01b612df5565b8282116108e1576040517f08c379a00000000000000000000000000000000000000000000000000000000081526004016108d890613fe1565b60405180910390fd5b6108f567f81d0116a5a5f42260c01b612df5565b61090967c3b2b75fd4e1fa7660c01b612df5565b61091d67bed5e143c6ce8f6260c01b612df5565b6109316761e800cf3d3a387b60c01b612df5565b60018460ff166003811061094857610947613fff565b5b600a02016009015f9054906101000a900460ff161561099c576040517f08c379a000000000000000000000000000000000000000000000000000000000815260040161099390614076565b60405180910390fd5b6109b0674cfcc320afe9023660c01b612df5565b6109c4675410156860ac0b5260c01b612df5565b6109d867bcd3ba33681594b960c01b612df5565b601f60019054906101000a900460ff1615610a5757610a01679d162928990ca16560c01b612df5565b610a156723676f6c600964c660c01b612df5565b610a296745075bdfc942cf9360c01b612df5565b610a52601f5f9054906101000a900460ff166002811115610a4d57610a4c613778565b5b612e7f565b610a6c565b610a6b67637d1343dbd035cf60c01b612df5565b5b610a8067cccfaba166baac8d60c01b612df5565b610a9467b653afc08b4d868a60c01b612df5565b5f60018560ff1660038110610aac57610aab613fff565b5b600a02019050610ac6676de1432ef0d242db60c01b612df5565b838160050181905550610ae367ba2d62942559d60760c01b612df5565b828160060181905550610b006793e332dfc5fe492d60c01b612df5565b818160080181905550610b1d679a38b13ade3e3bd360c01b612df5565b8460ff166002811115610b3357610b32613778565b5b601f5f6101000a81548160ff02191690836002811115610b5657610b55613778565b5b0217905550610b6f67f902cb342ceeec4e60c01b612df5565b6001601f60016101000a81548160ff021916908315150217905550610b9e6703e03877472062ef60c01b612df5565b610bb267770645ea2ab2f75260c01b612df5565b8460ff167f4e14f0de5191ba77ffd2040a79626c9bb4adb4e36196281dd3853be8909679bf8585604051610be7929190614094565b60405180910390a25050505050565b610c0a67911aac14171c72e760c01b612df5565b610c12612df8565b610c2667b4a60aab4e936d4a60c01b612df5565b610c3a675f5e5b3788eae35b60c01b612df5565b610c42612f60565b610c5667501f5ce94b30169960c01b612df5565b610c6a67f77621b1c7d6888460c01b612df5565b610c7e67baa55eeaf26fd5e760c01b612df5565b610c92672f854fdacc96342560c01b612df5565b5f479050610caa67d9c2220d6cf8c05c60c01b612df5565b610cbe67447d9a5cd1d08fc560c01b612df5565b610cd2672236afa1cfd3ed8d60c01b612df5565b5f8111610d14576040517f08c379a0000000000000000000000000000000000000000000000000000000008152600401610d0b9061412b565b60405180910390fd5b610d28670488f2aed19c05c560c01b612df5565b610d3c67b5d755fe7f417ec960c01b612df5565b610d5067594ba608aa00b8d160c01b612df5565b5f601f60029054906101000a900473ffffffffffffffffffffffffffffffffffffffff1673ffffffffffffffffffffffffffffffffffffffff1682604051610d9790614176565b5f6040518083038185875af1925050503d805f8114610dd1576040519150601f19603f3d011682016040523d82523d5f602084013e610dd6565b606091505b50509050610dee6763898b61d9a6fb3160c01b612df5565b610e0267ffaf4b453c06951560c01b612df5565b610e16671940594a5b6f9f5e60c01b612df5565b80610e56576040517f08c379a0000000000000000000000000000000000000000000000000000000008152600401610e4d906141d4565b60405180910390fd5b610e6a67ad2f02482151afb260c01b612df5565b610e7e677f1770fab975619560c01b612df5565b610e9267a0ffe5e219878a5460c01b612df5565b601f60029054906101000a900473ffffffffffffffffffffffffffffffffffffffff1673ffffffffffffffffffffffffffffffffffffffff167feaff4b37086828766ad3268786972c0cd24259d4c87a80f9d3963a3c3d999b0d83604051610efa9190613813565b60405180910390a25050610f0c612f82565b565b6021602052815f5260405f20602052805f5260405f205f91509150505481565b610f4267192bcf135f7f0b0360c01b612df5565b610f4a612df8565b610f5e67be3b6856f2a07fea60c01b612df5565b610f7267f3b35b48924929d360c01b612df5565b610f8667a91781d07682b83860c01b612df5565b610f8e612f9c565b565b610fa467e90e74cd39498f7460c01b612df5565b610fac612df8565b610fc067778cc7d5794137f160c01b612df5565b610fd4677c6bbbcdb503931160c01b612df5565b610fe867e4a0677034f7cbf460c01b612df5565b610ffc672cc8f2f624b670f460c01b612df5565b6110106722ff04aeb0cf3c9160c01b612df5565b60038260ff1610611056576040517f08c379a000000000000000000000000000000000000000000000000000000000815260040161104d90613f79565b60405180910390fd5b61106a679d6b822ed211defd60c01b612df5565b61107e6705885edc2df9536c60c01b612df5565b8060018360ff166003811061109657611095613fff565b5b600a0201600801819055505050565b5f8060149054906101000a900460ff16905090565b5f6110cf67ae76871c61b2a26560c01b612df5565b6110e367a820532a7052f26660c01b612df5565b6110f7671c6b23ffd0056c0760c01b612df5565b5f5b60038160ff1610156111525761111967db6b9e2bd150f05760c01b612df5565b60018160ff16600381106111305761112f613fff565b5b600a02016002015482611143919061421f565b915080806001019150506110f9565b5090565b601f60029054906101000a900473ffffffffffffffffffffffffffffffffffffffff1681565b611184612df8565b61118d5f612ffd565b565b6111a3677955c68c446deaff60c01b612df5565b6111ab612df8565b6111bf677cbdfac60ab9e56860c01b612df5565b6111d367e8f46506b99033bc60c01b612df5565b6111e767e377ae687caaa18860c01b612df5565b6111fb67d8ed39f865e39bb260c01b612df5565b61120f671f2e266f4cca1d8460c01b612df5565b60038260ff1610611255576040517f08c379a000000000000000000000000000000000000000000000000000000000815260040161124c90613f79565b60405180910390fd5b61126967f6f31fe4758e4e1160c01b612df5565b61127d67309df29a084f259760c01b612df5565b61129167559b5c4b130a70ec60c01b612df5565b6112a567be0a24c491d90bd460c01b612df5565b5f81116112e7576040517f08c379a00000000000000000000000000000000000000000000000000000000081526004016112de9061429c565b60405180910390fd5b6112fb674f284c6d0472601b60c01b612df5565b61130f675091c00f544837fd60c01b612df5565b6113236762803383c7eb0ddd60c01b612df5565b611337675214dd5e6d66218460c01b612df5565b60018260ff166003811061134e5761134d613fff565b5b600a02016009015f9054906101000a900460ff16156113a2576040517f08c379a000000000000000000000000000000000000000000000000000000000815260040161139990614304565b60405180910390fd5b6113b667a06d3768c0185f5b60c01b612df5565b6113ca672d8dea0ea50072c060c01b612df5565b8060018360ff16600381106113e2576113e1613fff565b5b600a02015f01819055505050565b61140467c89af41efcd4ab3460c01b612df5565b61140c612df8565b611420679b113aebcf840c0d60c01b612df5565b61143467f3911a40f518034860c01b612df5565b6114486784cce12c4bb2076360c01b612df5565b6114506130be565b565b5f611467670453d82d3e4ef90760c01b612df5565b61147b67226af666417033e160c01b612df5565b61148f67416f6b228017215a60c01b612df5565b5f60225f8473ffffffffffffffffffffffffffffffffffffffff1673ffffffffffffffffffffffffffffffffffffffff1681526020019081526020015f2090506114e3676ae648395aefa6a660c01b612df5565b6114f767e69da4312f43a5cb60c01b612df5565b5f815f015f9054906101000a900477ffffffffffffffffffffffffffffffffffffffffffffffff1677ffffffffffffffffffffffffffffffffffffffffffffffff160361156f57611552676f2e78cbfa8e806e60c01b612df5565b6115666759b7ca76bb31dc2560c01b612df5565b5f915050611621565b61158367b3f91045fb82795e60c01b612df5565b6115976731bdb008061f81ef60c01b612df5565b6115ab6766d1381b31591f3760c01b612df5565b5f6115b582613120565b90506115cb675fa21af2d93dbeca60c01b612df5565b6115df67dedb1ef4c6a8f3fe60c01b612df5565b816001015f9054906101000a90046fffffffffffffffffffffffffffffffff166fffffffffffffffffffffffffffffffff168161161c9190614322565b925050505b919050565b60018160038110611635575f80fd5b600a02015f91509050805f015490806001015490806002015490806003015490806004015490806005015490806006015490806007015f9054906101000a900460ff1690806008015490806009015f9054906101000a900460ff1690508a565b5f805f9054906101000a900473ffffffffffffffffffffffffffffffffffffffff16905090565b601f60019054906101000a900460ff1681565b6116e3677c0853ea2b0cb6bf60c01b612df5565b6116eb612f60565b6116ff67e30de3d8ba09680260c01b612df5565b6117136755859f56d34cbb5860c01b612df5565b61171b6133d9565b61172f67885e1808b5aebb1c60c01b612df5565b611743674013e2f5b5367abf60c01b612df5565b61175767ad3e6477852a1f9760c01b612df5565b61176b67f7e72c46eaec4bf660c01b612df5565b61177f67a4ba7396b4cf34f360c01b612df5565b601f60019054906101000a900460ff166117ce576040517f08c379a00000000000000000000000000000000000000000000000000000000081526004016117c59061439f565b60405180910390fd5b6117e2675d7954ece7d3984360c01b612df5565b6117f667e599dc8249dd3b2d60c01b612df5565b61180a671b37041487f4210d60c01b612df5565b5f601f5f9054906101000a900460ff16600281111561182c5761182b613778565b5b905061184267a6b2be7449c8334b60c01b612df5565b611856675362597c41dbd7bf60c01b612df5565b5f60018260ff166003811061186e5761186d613fff565b5b600a02019050611888677997e8df379ffb5160c01b612df5565b61189c67b0f4b8c167c090de60c01b612df5565b6118b0672eaaf6c0a24dab5a60c01b612df5565b80600501544210156118f7576040517f08c379a00000000000000000000000000000000000000000000000000000000081526004016118ee90614407565b60405180910390fd5b61190b675979585c9f0cad5060c01b612df5565b61191f6713a780868c72a10460c01b612df5565b61193367ba7d0a83c8e5e15260c01b612df5565b61194767f196c74ba364255e60c01b612df5565b806006015442111561198e576040517f08c379a00000000000000000000000000000000000000000000000000000000081526004016119859061446f565b60405180910390fd5b6119a26798623beea8ba083460c01b612df5565b6119b667b27e4a0b1db6cacf60c01b612df5565b6119ca67c607e2a359aa49a360c01b612df5565b6119de67494476272439867260c01b612df5565b806009015f9054906101000a900460ff1615611a2f576040517f08c379a0000000000000000000000000000000000000000000000000000000008152600401611a26906144d7565b60405180910390fd5b611a4367934c21154336b3d360c01b612df5565b611a5767b8e97e0cc66efffd60c01b612df5565b611a6b67ac8a899cb224c99b60c01b612df5565b611a7f6777efc5a11e2f9e1c60c01b612df5565b8060030154341015611ac6576040517f08c379a0000000000000000000000000000000000000000000000000000000008152600401611abd9061453f565b60405180910390fd5b611ada6729ea38645f84a1ab60c01b612df5565b611aee673231daf38ea9fc4e60c01b612df5565b611b0267700b175008ce518a60c01b612df5565b5f3460215f3373ffffffffffffffffffffffffffffffffffffffff1673ffffffffffffffffffffffffffffffffffffffff1681526020019081526020015f205f8560ff1660ff1681526020019081526020015f2054611b61919061421f565b9050611b776708c943cb1132811260c01b612df5565b611b8b67b6150d65f59624f960c01b612df5565b611b9f67984b45e430c0096960c01b612df5565b8160040154811115611be6576040517f08c379a0000000000000000000000000000000000000000000000000000000008152600401611bdd906145a7565b60405180910390fd5b611bfa67ca9ec14d68916f5460c01b612df5565b611c0e670e99fe7a074d8a3960c01b612df5565b611c2267898be439cdc1efcf60c01b612df5565b5f348360020154611c33919061421f565b9050611c49676cf2d9540ec7d5b660c01b612df5565b611c5d6794f99e35d684641860c01b612df5565b611c716709886bb03a79456260c01b612df5565b8260010154811115611cb8576040517f08c379a0000000000000000000000000000000000000000000000000000000008152600401611caf9061460f565b60405180910390fd5b611ccc676e5361ba07ad0e5760c01b612df5565b611ce067ab6d41a1cba58e1960c01b612df5565b611cf4673b7f448396a262a660c01b612df5565b826007015f9054906101000a900460ff1615611dbe57611d1e67ba8ec213a3e2ad1260c01b612df5565b611d3267d493df8d8f61d43560c01b612df5565b611d4667d61957ea1696e0e760c01b612df5565b611d5a6728b72d968724d45d60c01b612df5565b611d668433888861341a565b611da5576040517f08c379a0000000000000000000000000000000000000000000000000000000008152600401611d9c90614677565b60405180910390fd5b611db9677557fe005fe295d460c01b612df5565b611dd3565b611dd26767d109383edfce7460c01b612df5565b5b611de767b3c9cdf0821ed14260c01b612df5565b611dfb67c4a40c34987f32b960c01b612df5565b5f835f0154670de0b6b3a764000034611e149190614695565b611e1e9190614703565b9050611e346743406ef515745e7560c01b612df5565b818460020181905550611e516767da55c4e3396f0c60c01b612df5565b8260215f3373ffffffffffffffffffffffffffffffffffffffff1673ffffffffffffffffffffffffffffffffffffffff1681526020019081526020015f205f8760ff1660ff1681526020019081526020015f2081905550611ebc6750f3edb4cc4faa0360c01b612df5565b611ed067495a9614cb32218060c01b612df5565b5f60225f3373ffffffffffffffffffffffffffffffffffffffff1673ffffffffffffffffffffffffffffffffffffffff1681526020019081526020015f209050611f24670998a462b64fb88f60c01b612df5565b611f3867ce722c71c014391b60c01b612df5565b5f815f015f9054906101000a900477ffffffffffffffffffffffffffffffffffffffffffffffff1677ffffffffffffffffffffffffffffffffffffffffffffffff1603611fd657611f93672e4e74a9b2e5f23c60c01b612df5565b611fa767f01fa0a7a0a6e9a060c01b612df5565b42815f0160186101000a81548167ffffffffffffffff021916908367ffffffffffffffff160217905550611feb565b611fea67586958ee35133dc960c01b612df5565b5b611fff6737d1e6c463c86a5d60c01b612df5565b81815f015f8282829054906101000a900477ffffffffffffffffffffffffffffffffffffffffffffffff166120349190614733565b92506101000a81548177ffffffffffffffffffffffffffffffffffffffffffffffff021916908377ffffffffffffffffffffffffffffffffffffffffffffffff16021790555061208e6725f08206880d537760c01b612df5565b6120a267b985765b8a339e3260c01b612df5565b8560ff163373ffffffffffffffffffffffffffffffffffffffff167f78408fb808ae2018d121a91ae47221eb4b85530dc14522ce2ddcb93083e269d634856040516120ee929190614094565b60405180910390a361210a67650673a138b5c3b160c01b612df5565b61211e6782021d13b61cd1b160c01b612df5565b846001015483036121a15761213d6792e7b4ebecd4149260c01b612df5565b6121516719578d1f80fd54ae60c01b612df5565b612165675b0fd06e6dbced1660c01b612df5565b61216e86612e7f565b61218267866f5644d8c1da3160c01b612df5565b5f601f60016101000a81548160ff0219169083151502179055506121b6565b6121b56749db5e743eb2ab6260c01b612df5565b5b5050505050506121c4612f82565b5050565b6022602052805f5260405f205f91509050805f015f9054906101000a900477ffffffffffffffffffffffffffffffffffffffffffffffff1690805f0160189054906101000a900467ffffffffffffffff1690806001015f9054906101000a90046fffffffffffffffffffffffffffffffff16905083565b612253679ab582494d6e3dff60c01b612df5565b61225b612f60565b61226f677eb0578f5246738c60c01b612df5565b612283671fba8ba708e13efe60c01b612df5565b61228b6133d9565b61229f67287473c6bd96b74c60c01b612df5565b6122b367d64f7b16228f993560c01b612df5565b6122c767c1f256264e6eece960c01b612df5565b6122db67e0cbcedbd910516c60c01b612df5565b5f60225f3373ffffffffffffffffffffffffffffffffffffffff1673ffffffffffffffffffffffffffffffffffffffff1681526020019081526020015f20905061232f672860e63dd90f6aff60c01b612df5565b61234367946547f9e1c376a260c01b612df5565b61235767e76dc6b1dcaafab460c01b612df5565b5f815f015f9054906101000a900477ffffffffffffffffffffffffffffffffffffffffffffffff1677ffffffffffffffffffffffffffffffffffffffffffffffff16116123d9576040517f08c379a00000000000000000000000000000000000000000000000000000000081526004016123d0906147c8565b60405180910390fd5b6123ed676090cad08f0e2cc760c01b612df5565b612401676ab7ae4c597d2d9860c01b612df5565b612415673a248a46a932f86260c01b612df5565b5f61241f82613120565b9050612435677eb6afeee4a05f0f60c01b612df5565b612449672884fae85ed1708160c01b612df5565b5f826001015f9054906101000a90046fffffffffffffffffffffffffffffffff166fffffffffffffffffffffffffffffffff16826124879190614322565b905061249d67cc35d41686e2f03760c01b612df5565b6124b066365fcb15f7c2f060c01b612df5565b6124c4671b45fce68687eed760c01b612df5565b5f8111612506576040517f08c379a00000000000000000000000000000000000000000000000000000000081526004016124fd90614830565b60405180910390fd5b61251a67f201c83325b11d1c60c01b612df5565b61252e6795e14904962005bc60c01b612df5565b80836001015f8282829054906101000a90046fffffffffffffffffffffffffffffffff1661255c919061484e565b92506101000a8154816fffffffffffffffffffffffffffffffff02191690836fffffffffffffffffffffffffffffffff1602179055506125a667a1a4eb64ffffaaae60c01b612df5565b6125ba67d49e2573f0d33d9c60c01b612df5565b7f000000000000000000000000000000000000000000000000000000000000000073ffffffffffffffffffffffffffffffffffffffff166340c10f1933836040518363ffffffff1660e01b8152600401612615929190614891565b5f604051808303815f87803b15801561262c575f80fd5b505af115801561263e573d5f803e3d5ffd5b505050506126566775ff9a198f31add760c01b612df5565b61266a67e9210177f97a34b460c01b612df5565b3373ffffffffffffffffffffffffffffffffffffffff167f9fe9b7be9d151c7a8b6de49a1312ff27a15096d0d1d12999af85fe4310e0b125826040516126b09190613813565b60405180910390a25050506126c3612f82565b565b6126d9672432f8395772bcc460c01b612df5565b6126e1612df8565b6126f567d646bbe87945c59660c01b612df5565b61270967721352832d2cc6ce60c01b612df5565b61271d6724a5cd91cbd7360b60c01b612df5565b61273167a49e5c4e6b31de1360c01b612df5565b6127456770dceff0c133817060c01b612df5565b601f60019054906101000a900460ff16612794576040517f08c379a000000000000000000000000000000000000000000000000000000000815260040161278b90614902565b60405180910390fd5b6127a86789920087d1c034c960c01b612df5565b6127bc6703f3380e6a1bb79560c01b612df5565b6127d06763df4370872fc07060c01b612df5565b6127f9601f5f9054906101000a900460ff1660028111156127f4576127f3613778565b5b612e7f565b61280d67db6c7361ae85230c60c01b612df5565b5f601f60016101000a81548160ff021916908315150217905550565b612831613695565b6128456778c5bb32ff1800a260c01b612df5565b61285967f1254cf018473dc660c01b612df5565b61286d672aa14a7894ae458e60c01b612df5565b6001600380602002604051908101604052809291905f905b82821015612931578382600a0201604051806101400160405290815f8201548152602001600182015481526020016002820154815260200160038201548152602001600482015481526020016005820154815260200160068201548152602001600782015f9054906101000a900460ff1615151515815260200160088201548152602001600982015f9054906101000a900460ff16151515158152505081526020019060010190612885565b50505050905090565b5f61294f6721b07bf6f7b2f3d860c01b612df5565b61296367b7a1ecc4c1bc8f3b60c01b612df5565b612977674f9fd259834c73fd60c01b612df5565b601f60019054906101000a900460ff166129bb5761299f677b12ba21897fe70b60c01b612df5565b6129b3672cf9bc8d58547c3060c01b612df5565b5f9050612ae9565b6129cf67783852ec028aa35b60c01b612df5565b6129e367d094723ca36c684360c01b612df5565b6129f7670834c1ac97c8806460c01b612df5565b5f6001601f5f9054906101000a900460ff166002811115612a1b57612a1a613778565b5b60ff1660038110612a2f57612a2e613fff565b5b600a02019050612a496766122760a8fae46760c01b612df5565b612a5d674d282e1946d863ee60c01b612df5565b80600601544210612a9957612a7c6793f126a5e7828e1160c01b612df5565b612a9067acd5856c0fb9127060c01b612df5565b5f915050612ae9565b612aad679c8b9a4330ac4cbb60c01b612df5565b612ac167ea32e86ad2f43ff160c01b612df5565b612ad567d73e071a880aec0a60c01b612df5565b428160060154612ae59190614322565b9150505b90565b612b00677ff2eb30d7a803f360c01b612df5565b612b08612df8565b612b1c67bee0dc2b8ccf2cd360c01b612df5565b612b306796f88a54b439f46260c01b612df5565b612b4467d9e407455489549c60c01b612df5565b612b5867a42e06d0d513580c60c01b612df5565b612b6c6761cb86fae07bfa1d60c01b612df5565b5f73ffffffffffffffffffffffffffffffffffffffff168173ffffffffffffffffffffffffffffffffffffffff1603612bda576040517f08c379a0000000000000000000000000000000000000000000000000000000008152600401612bd19061496a565b60405180910390fd5b612bee67b013cace84c83dd160c01b612df5565b612c0267a3e1c6d334b64f8460c01b612df5565b80601f60026101000a81548173ffffffffffffffffffffffffffffffffffffffff021916908373ffffffffffffffffffffffffffffffffffffffff160217905550612c5767c8be97d8a552bc9560c01b612df5565b612c6b6782cfc9d9aafa747a60c01b612df5565b8073ffffffffffffffffffffffffffffffffffffffff167f7dae230f18360d76a040c81f050aa14eb9d6dc7901b20fc5d855e2a20fe814d160405160405180910390a250565b612cb9612df8565b5f73ffffffffffffffffffffffffffffffffffffffff168173ffffffffffffffffffffffffffffffffffffffff1603612d29575f6040517f1e4fbdf7000000000000000000000000000000000000000000000000000000008152600401612d209190613a11565b60405180910390fd5b612d3281612ffd565b50565b5f612d4a67c43bcdf51a84eb2a60c01b612df5565b612d5e67809b2a662a16787360c01b612df5565b612d72676b66f601266c4e5d60c01b612df5565b5f5b60038160ff161015612dcd57612d946798feccb9f2adf41460c01b612df5565b60018160ff1660038110612dab57612daa613fff565b5b600a02016001015482612dbe919061421f565b91508080600101915050612d74565b5090565b7f000000000000000000000000000000000000000000000000000000000000000081565b50565b612e0061351d565b73ffffffffffffffffffffffffffffffffffffffff16612e1e611695565b73ffffffffffffffffffffffffffffffffffffffff1614612e7d57612e4161351d565b6040517f118cdaa7000000000000000000000000000000000000000000000000000000008152600401612e749190613a11565b60405180910390fd5b565b612e93674b527a82bfbf98bd60c01b612df5565b612ea767e026cb155debead460c01b612df5565b6001808260ff1660038110612ebf57612ebe613fff565b5b600a02016009015f6101000a81548160ff021916908315150217905550612ef0673ebb53e1ea7022f060c01b612df5565b612f046707e2521f0cbbfa0260c01b612df5565b8060ff167fcffbcd5ac020e5594157981cb2e68b4b5b8d3fdeedb04cadb2a08e09bbdc642a60018360ff1660038110612f4057612f3f613fff565b5b600a020160020154604051612f559190613813565b60405180910390a250565b612f68613524565b6002612f7a612f75613565565b61358e565b5f0181905550565b6001612f94612f8f613565565b61358e565b5f0181905550565b612fa4613597565b5f8060146101000a81548160ff0219169083151502179055507f5db9ee0a495bf2e6ff9c91a7834c1ba4fdd244a5e8aa4e537bd38aeae4b073aa612fe661351d565b604051612ff39190613a11565b60405180910390a1565b5f805f9054906101000a900473ffffffffffffffffffffffffffffffffffffffff169050815f806101000a81548173ffffffffffffffffffffffffffffffffffffffff021916908373ffffffffffffffffffffffffffffffffffffffff1602179055508173ffffffffffffffffffffffffffffffffffffffff168173ffffffffffffffffffffffffffffffffffffffff167f8be0079c531659141344cd1fd0a4f28419497f9722a3daafe3b4186f6b6457e060405160405180910390a35050565b6130c66133d9565b60015f60146101000a81548160ff0219169083151502179055507f62e78cea01bee320cd4e420270b5ea74000d11b0c9f74754ebdbfc544b05a25861310961351d565b6040516131169190613a11565b60405180910390a1565b5f613135672f3e6526e09650b460c01b612df5565b61314967b2c675413a7b5c5260c01b612df5565b61315d67864d6bb8919492a160c01b612df5565b815f0160189054906101000a900467ffffffffffffffff1667ffffffffffffffff1642116131b5576131996773e63a61bb8671fa60c01b612df5565b6131ad676664711243a5992160c01b612df5565b5f90506133d4565b6131c967157127d39b413edf60c01b612df5565b6131dd67c1a8683609648f8f60c01b612df5565b6131f16758ca90c92090592560c01b612df5565b5f825f0160189054906101000a900467ffffffffffffffff1667ffffffffffffffff164261321f9190614322565b90506132356763efaaf978790cb460c01b612df5565b6132496767de0cb4022cc74560c01b612df5565b6201518081101561328557613268674feb05df352068ac60c01b612df5565b61327c67e8d6ff321ab2661160c01b612df5565b5f9150506133d4565b613299671549ce34c8fe8e0a60c01b612df5565b6132ad67dd3019bde662a2f360c01b612df5565b6132c1670733bb05c572a3df60c01b612df5565b602054811061333b576132de671508ab889065afec60c01b612df5565b6132f267bdc0399899c6953f60c01b612df5565b825f015f9054906101000a900477ffffffffffffffffffffffffffffffffffffffffffffffff1677ffffffffffffffffffffffffffffffffffffffffffffffff169150506133d4565b61334f67c67619cdc209aed460c01b612df5565b61336367b161dbbf3be7c48460c01b612df5565b61337767722ec1d5d53c86cf60c01b612df5565b60205481845f015f9054906101000a900477ffffffffffffffffffffffffffffffffffffffffffffffff1677ffffffffffffffffffffffffffffffffffffffffffffffff166133c69190614695565b6133d09190614703565b9150505b919050565b6133e16110a5565b15613418576040517fd93c066500000000000000000000000000000000000000000000000000000000815260040160405180910390fd5b565b5f61342f67713e30f2ad356b1060c01b612df5565b613443677faecca00fac62b960c01b612df5565b613457675a005e8cedba2ee260c01b612df5565b5f8460405160200161346991906149cd565b60405160208183030381529060405280519060200120905061349567a5937f50f0e96b1a60c01b612df5565b6134a9676100d382c646836760c01b612df5565b6135128484808060200260200160405190810160405280939291908181526020018383602002808284375f81840152601f19601f8201169050808301925050505050505060018860ff166003811061350457613503613fff565b5b600a020160080154836135d7565b915050949350505050565b5f33905090565b61352c6135ed565b15613563576040517f3ee5aeb500000000000000000000000000000000000000000000000000000000815260040160405180910390fd5b565b5f7f9b779b17422d0df92223018b32b4d1fa46e071723d6817e2486d003becc55f005f1b905090565b5f819050919050565b61359f6110a5565b6135d5576040517f8dfc202b00000000000000000000000000000000000000000000000000000000815260040160405180910390fd5b565b5f826135e38584613609565b1490509392505050565b5f60026136006135fb613565565b61358e565b5f015414905090565b5f808290505f5b845181101561364c5761363d828683815181106136305761362f613fff565b5b6020026020010151613657565b91508080600101915050613610565b508091505092915050565b5f81831061366e576136698284613681565b613679565b6136788383613681565b5b905092915050565b5f825f528160205260405f20905092915050565b60405180606001604052806003905b6136ac6136c2565b8152602001906001900390816136a45790505090565b6040518061014001604052805f81526020015f81526020015f81526020015f81526020015f81526020015f81526020015f81526020015f151581526020015f80191681526020015f151581525090565b5f80fd5b5f80fd5b5f819050919050565b61372c8161371a565b8114613736575f80fd5b50565b5f8135905061374781613723565b92915050565b5f6020828403121561376257613761613712565b5b5f61376f84828501613739565b91505092915050565b7f4e487b71000000000000000000000000000000000000000000000000000000005f52602160045260245ffd5b600381106137b6576137b5613778565b5b50565b5f8190506137c6826137a5565b919050565b5f6137d5826137b9565b9050919050565b6137e5816137cb565b82525050565b5f6020820190506137fe5f8301846137dc565b92915050565b61380d8161371a565b82525050565b5f6020820190506138265f830184613804565b92915050565b5f60ff82169050919050565b6138418161382c565b811461384b575f80fd5b50565b5f8135905061385c81613838565b92915050565b5f819050919050565b61387481613862565b811461387e575f80fd5b50565b5f8135905061388f8161386b565b92915050565b5f805f80608085870312156138ad576138ac613712565b5b5f6138ba8782880161384e565b94505060206138cb87828801613739565b93505060406138dc87828801613739565b92505060606138ed87828801613881565b91505092959194509250565b5f73ffffffffffffffffffffffffffffffffffffffff82169050919050565b5f613922826138f9565b9050919050565b61393281613918565b811461393c575f80fd5b50565b5f8135905061394d81613929565b92915050565b5f806040838503121561396957613968613712565b5b5f6139768582860161393f565b92505060206139878582860161384e565b9150509250929050565b5f80604083850312156139a7576139a6613712565b5b5f6139b48582860161384e565b92505060206139c585828601613881565b9150509250929050565b5f8115159050919050565b6139e3816139cf565b82525050565b5f6020820190506139fc5f8301846139da565b92915050565b613a0b81613918565b82525050565b5f602082019050613a245f830184613a02565b92915050565b5f8060408385031215613a4057613a3f613712565b5b5f613a4d8582860161384e565b9250506020613a5e85828601613739565b9150509250929050565b5f60208284031215613a7d57613a7c613712565b5b5f613a8a8482850161393f565b91505092915050565b613a9c81613862565b82525050565b5f61014082019050613ab65f83018d613804565b613ac3602083018c613804565b613ad0604083018b613804565b613add606083018a613804565b613aea6080830189613804565b613af760a0830188613804565b613b0460c0830187613804565b613b1160e08301866139da565b613b1f610100830185613a93565b613b2d6101208301846139da565b9b9a5050505050505050505050565b5f80fd5b5f80fd5b5f80fd5b5f8083601f840112613b5d57613b5c613b3c565b5b8235905067ffffffffffffffff811115613b7a57613b79613b40565b5b602083019150836020820283011115613b9657613b95613b44565b5b9250929050565b5f8060208385031215613bb357613bb2613712565b5b5f83013567ffffffffffffffff811115613bd057613bcf613716565b5b613bdc85828601613b48565b92509250509250929050565b5f77ffffffffffffffffffffffffffffffffffffffffffffffff82169050919050565b613c1481613be8565b82525050565b5f67ffffffffffffffff82169050919050565b613c3681613c1a565b82525050565b5f6fffffffffffffffffffffffffffffffff82169050919050565b613c6081613c3c565b82525050565b5f606082019050613c795f830186613c0b565b613c866020830185613c2d565b613c936040830184613c57565b949350505050565b5f60039050919050565b5f81905092915050565b5f819050919050565b613cc18161371a565b82525050565b613cd0816139cf565b82525050565b613cdf81613862565b82525050565b61014082015f820151613cfa5f850182613cb8565b506020820151613d0d6020850182613cb8565b506040820151613d206040850182613cb8565b506060820151613d336060850182613cb8565b506080820151613d466080850182613cb8565b5060a0820151613d5960a0850182613cb8565b5060c0820151613d6c60c0850182613cb8565b5060e0820151613d7f60e0850182613cc7565b50610100820151613d94610100850182613cd6565b50610120820151613da9610120850182613cc7565b50505050565b5f613dba8383613ce5565b6101408301905092915050565b5f602082019050919050565b613ddc81613c9b565b613de68184613ca5565b9250613df182613caf565b805f5b83811015613e21578151613e088782613daf565b9650613e1383613dc7565b925050600181019050613df4565b505050505050565b5f6103c082019050613e3d5f830184613dd3565b92915050565b5f819050919050565b5f613e66613e61613e5c846138f9565b613e43565b6138f9565b9050919050565b5f613e7782613e4c565b9050919050565b5f613e8882613e6d565b9050919050565b613e9881613e7e565b82525050565b5f602082019050613eb15f830184613e8f565b92915050565b5f82825260208201905092915050565b7f50726573616c655661756c743a207a65726f206475726174696f6e00000000005f82015250565b5f613efb601b83613eb7565b9150613f0682613ec7565b602082019050919050565b5f6020820190508181035f830152613f2881613eef565b9050919050565b7f50726573616c655661756c743a20696e76616c696420726f756e6400000000005f82015250565b5f613f63601b83613eb7565b9150613f6e82613f2f565b602082019050919050565b5f6020820190508181035f830152613f9081613f57565b9050919050565b7f50726573616c655661756c743a206261642077696e646f7700000000000000005f82015250565b5f613fcb601883613eb7565b9150613fd682613f97565b602082019050919050565b5f6020820190508181035f830152613ff881613fbf565b9050919050565b7f4e487b71000000000000000000000000000000000000000000000000000000005f52603260045260245ffd5b7f50726573616c655661756c743a20616c72656164792066696e616c697a6564005f82015250565b5f614060601f83613eb7565b915061406b8261402c565b602082019050919050565b5f6020820190508181035f83015261408d81614054565b9050919050565b5f6040820190506140a75f830185613804565b6140b46020830184613804565b9392505050565b7f50726573616c655661756c743a206e6f7468696e6720746f20776974686472615f8201527f7700000000000000000000000000000000000000000000000000000000000000602082015250565b5f614115602183613eb7565b9150614120826140bb565b604082019050919050565b5f6020820190508181035f83015261414281614109565b9050919050565b5f81905092915050565b50565b5f6141615f83614149565b915061416c82614153565b5f82019050919050565b5f61418082614156565b9150819050919050565b7f50726573616c655661756c743a207472616e73666572206661696c65640000005f82015250565b5f6141be601d83613eb7565b91506141c98261418a565b602082019050919050565b5f6020820190508181035f8301526141eb816141b2565b9050919050565b7f4e487b71000000000000000000000000000000000000000000000000000000005f52601160045260245ffd5b5f6142298261371a565b91506142348361371a565b925082820190508082111561424c5761424b6141f2565b5b92915050565b7f50726573616c655661756c743a207a65726f20707269636500000000000000005f82015250565b5f614286601883613eb7565b915061429182614252565b602082019050919050565b5f6020820190508181035f8301526142b38161427a565b9050919050565b7f50726573616c655661756c743a2066696e616c697a65640000000000000000005f82015250565b5f6142ee601783613eb7565b91506142f9826142ba565b602082019050919050565b5f6020820190508181035f83015261431b816142e2565b9050919050565b5f61432c8261371a565b91506143378361371a565b925082820390508181111561434f5761434e6141f2565b5b92915050565b7f50726573616c655661756c743a2073616c65206e6f74206f70656e00000000005f82015250565b5f614389601b83613eb7565b915061439482614355565b602082019050919050565b5f6020820190508181035f8301526143b68161437d565b9050919050565b7f50726573616c655661756c743a206e6f742073746172746564000000000000005f82015250565b5f6143f1601983613eb7565b91506143fc826143bd565b602082019050919050565b5f6020820190508181035f83015261441e816143e5565b9050919050565b7f50726573616c655661756c743a20726f756e6420656e646564000000000000005f82015250565b5f614459601983613eb7565b915061446482614425565b602082019050919050565b5f6020820190508181035f8301526144868161444d565b9050919050565b7f50726573616c655661756c743a20726f756e642066696e616c697a65640000005f82015250565b5f6144c1601d83613eb7565b91506144cc8261448d565b602082019050919050565b5f6020820190508181035f8301526144ee816144b5565b9050919050565b7f50726573616c655661756c743a2062656c6f77206d696e2062757900000000005f82015250565b5f614529601b83613eb7565b9150614534826144f5565b602082019050919050565b5f6020820190508181035f8301526145568161451d565b9050919050565b7f50726573616c655661756c743a20657863656564732077616c6c6574206361705f82015250565b5f614591602083613eb7565b915061459c8261455d565b602082019050919050565b5f6020820190508181035f8301526145be81614585565b9050919050565b7f50726573616c655661756c743a206861726463617020726561636865640000005f82015250565b5f6145f9601d83613eb7565b9150614604826145c5565b602082019050919050565b5f6020820190508181035f830152614626816145ed565b9050919050565b7f50726573616c655661756c743a206e6f742077686974656c69737465640000005f82015250565b5f614661601d83613eb7565b915061466c8261462d565b602082019050919050565b5f6020820190508181035f83015261468e81614655565b9050919050565b5f61469f8261371a565b91506146aa8361371a565b92508282026146b88161371a565b915082820484148315176146cf576146ce6141f2565b5b5092915050565b7f4e487b71000000000000000000000000000000000000000000000000000000005f52601260045260245ffd5b5f61470d8261371a565b91506147188361371a565b925082614728576147276146d6565b5b828204905092915050565b5f61473d82613be8565b915061474883613be8565b9250828201905077ffffffffffffffffffffffffffffffffffffffffffffffff811115614778576147776141f2565b5b92915050565b7f50726573616c655661756c743a206e6f20616c6c6f636174696f6e00000000005f82015250565b5f6147b2601b83613eb7565b91506147bd8261477e565b602082019050919050565b5f6020820190508181035f8301526147df816147a6565b9050919050565b7f50726573616c655661756c743a206e6f7468696e6720746f20636c61696d00005f82015250565b5f61481a601e83613eb7565b9150614825826147e6565b602082019050919050565b5f6020820190508181035f8301526148478161480e565b9050919050565b5f61485882613c3c565b915061486383613c3c565b925082820190506fffffffffffffffffffffffffffffffff81111561488b5761488a6141f2565b5b92915050565b5f6040820190506148a45f830185613a02565b6148b16020830184613804565b9392505050565b7f50726573616c655661756c743a206e6f206f70656e20726f756e6400000000005f82015250565b5f6148ec601b83613eb7565b91506148f7826148b8565b602082019050919050565b5f6020820190508181035f830152614919816148e0565b9050919050565b7f50726573616c655661756c743a207a65726f20616464726573730000000000005f82015250565b5f614954601a83613eb7565b915061495f82614920565b602082019050919050565b5f6020820190508181035f83015261498181614948565b9050919050565b5f8160601b9050919050565b5f61499e82614988565b9050919050565b5f6149af82614994565b9050919050565b6149c76149c282613918565b6149a5565b82525050565b5f6149d882846149b6565b6014820191508190509291505056fea26469706673582212207b881b95294f71ad80788ae79e49caa1769fe410432ab677464d89b05ba1cd5664736f6c634300081a0033",
  "linkReferences": {},
  "deployedLinkReferences": {}
}