{
  "_format": "hh-sol-artifact-1",
  "contractName": "VaultXToken",
  "sourceName": "contracts/VaultXToken.sol",
  "abi": [
    {
      "inputs": [
        {
          "internalType": "address",
          "name": "initialOwner",
          "type": "address"
        }
      ],
      "stateMutability": "nonpayable",
      "type": "constructor"
    },
    {
      "inputs": [],
      "name": "ECDSAInvalidSignature",
      "type": "error"
    },
    {
      "inputs": [
        {
          "internalType": "uint256",
          "name": "length",
          "type": "uint256"
        }
      ],
      "name": "ECDSAInvalidSignatureLength",
      "type": "error"
    },
    {
      "inputs": [
        {
          "internalType": "bytes32",
          "name": "s",
          "type": "bytes32"
        }
      ],
      "name": "ECDSAInvalidSignatureS",
      "type": "error"
    },
    {
      "inputs": [
        {
          "internalType": "address",
          "name": "spender",
          "type": "address"
        },
        {
          "internalType": "uint256",
          "name": "allowance",
          "type": "uint256"
        },
        {
          "internalType": "uint256",
          "name": "needed",
          "type": "uint256"
        }
      ],
      "name": "ERC20InsufficientAllowance",
      "type": "error"
    },
    {
      "inputs": [
        {
          "internalType": "address",
          "name": "sender",
          "type": "address"
        },
        {
          "internalType": "uint256",
          "name": "balance",
          "type": "uint256"
        },
        {
          "internalType": "uint256",
          "name": "needed",
          "type": "uint256"
        }
      ],
      "name": "ERC20InsufficientBalance",
      "type": "error"
    },
    {
      "inputs": [
        {
          "internalType": "address",
          "name": "approver",
          "type": "address"
        }
      ],
      "name": "ERC20InvalidApprover",
      "type": "error"
    },
    {
      "inputs": [
        {
          "internalType": "address",
          "name": "receiver",
          "type": "address"
        }
      ],
      "name": "ERC20InvalidReceiver",
      "type": "error"
    },
    {
      "inputs": [
        {
          "internalType": "address",
          "name": "sender",
          "type": "address"
        }
      ],
      "name": "ERC20InvalidSender",
      "type": "error"
    },
    {
      "inputs": [
        {
          "internalType": "address",
          "name": "spender",
          "type": "address"
        }
      ],
      "name": "ERC20InvalidSpender",
      "type": "error"
    },
    {
      "inputs": [
        {
          "internalType": "uint256",
          "name": "deadline",
          "type": "uint256"
        }
      ],
      "name": "ERC2612ExpiredSignature",
      "type": "error"
    },
    {
      "inputs": [
        {
          "internalType": "address",
          "name": "signer",
          "type": "address"
        },
        {
          "internalType": "address",
          "name": "owner",
          "type": "address"
        }
      ],
      "name": "ERC2612InvalidSigner",
      "type": "error"
    },
    {
      "inputs": [
        {
          "internalType": "address",
          "name": "account",
          "type": "address"
        },
        {
          "internalType": "uint256",
          "name": "currentNonce",
          "type": "uint256"
        }
      ],
      "name": "InvalidAccountNonce",
      "type": "error"
    },
    {
      "inputs": [],
      "name": "InvalidShortString",
      "type": "error"
    },
    {
      "inputs": [
        {
          "internalType": "address",
          "name": "owner",
          "type": "address"
        }
      ],
      "name": "OwnableInvalidOwner",
      "type": "error"
    },
    {
      "inputs": [
        {
          "internalType": "address",
          "name": "account",
          "type": "address"
        }
      ],
      "name": "OwnableUnauthorizedAccount",
      "type": "error"
    },
    {
      "inputs": [
        {
          "internalType": "string",
          "name": "str",
          "type": "string"
        }
      ],
      "name": "StringTooLong",
      "type": "error"
    },
    {
      "anonymous": false,
      "inputs": [
        {
          "indexed": true,
          "internalType": "address",
          "name": "owner",
          "type": "address"
        },
        {
          "indexed": true,
          "internalType": "address",
          "name": "spender",
          "type": "address"
        },
        {
          "indexed": false,
          "internalType": "uint256",
          "name": "value",
          "type": "uint256"
        }
      ],
      "name": "Approval",
      "type": "event"
    },
    {
      "anonymous": false,
      "inputs": [],
      "name": "EIP712DomainChanged",
      "type": "event"
    },
    {
      "anonymous": false,
      "inputs": [
        {
          "indexed": true,
          "internalType": "address",
          "name": "account",
          "type": "address"
        },
        {
          "indexed": false,
          "internalType": "bool",
          "name": "status",
          "type": "bool"
        }
      ],
      "name": "MinterSet",
      "type": "event"
    },
    {
      "anonymous": false,
      "inputs": [
        {
          "indexed": true,
          "internalType": "address",
          "name": "previousOwner",
          "type": "address"
        },
        {
          "indexed": true,
          "internalType": "address",
          "name": "newOwner",
          "type": "address"
        }
      ],
      "name": "OwnershipTransferred",
      "type": "event"
    },
    {
      "anonymous": false,
      "inputs": [
        {
          "indexed": true,
          "internalType": "address",
          "name": "from",
          "type": "address"
        },
        {
          "indexed": true,
          "internalType": "address",
          "name": "to",
          "type": "address"
        },
        {
          "indexed": false,
          "internalType": "uint256",
          "name": "value",
          "type": "uint256"
        }
      ],
      "name": "Transfer",
      "type": "event"
    },
    {
      "inputs": [],
      "name": "DOMAIN_SEPARATOR",
      "outputs": [
        {
          "internalType": "bytes32",
          "name": "",
          "type": "bytes32"
        }
      ],
      "stateMutability": "view",
      "type": "function"
    },
    {
      "inputs": [],
      "name": "MAX_SUPPLY",
      "outputs": [
        {
          "internalType": "uint256",
          "name": "",
          "type": "uint256"
        }
      ],
      "stateMutability": "view",
      "type": "function"
    },
    {
      "inputs": [
        {
          "internalType": "address",
          "name": "owner",
          "type": "address"
        },
        {
          "internalType": "address",
          "name": "spender",
          "type": "address"
        }
      ],
      "name": "allowance",
      "outputs": [
        {
          "internalType": "uint256",
          "name": "",
          "type": "uint256"
        }
      ],
      "stateMutability": "view",
      "type": "function"
    },
    {
      "inputs": [
        {
          "internalType": "address",
          "name": "spender",
          "type": "address"
        },
        {
          "internalType": "uint256",
          "name": "value",
          "type": "uint256"
        }
      ],
      "name": "approve",
      "outputs": [
        {
          "internalType": "bool",
          "name": "",
          "type": "bool"
        }
      ],
      "stateMutability": "nonpayable",
      "type": "function"
    },
    {
      "inputs": [
        {
          "internalType": "address",
          "name": "account",
          "type": "address"
        }
      ],
      "name": "balanceOf",
      "outputs": [
        {
          "internalType": "uint256",
          "name": "",
          "type": "uint256"
        }
      ],
      "stateMutability": "view",
      "type": "function"
    },
    {
      "inputs": [
        {
          "internalType": "uint256",
          "name": "amount",
          "type": "uint256"
        }
      ],
      "name": "burn",
      "outputs": [],
      "stateMutability": "nonpayable",
      "type": "function"
    },
    {
      "inputs": [],
      "name": "decimals",
      "outputs": [
        {
          "internalType": "uint8",
          "name": "",
          "type": "uint8"
        }
      ],
      "stateMutability": "view",
      "type": "function"
    },
    {
      "inputs": [],
      "name": "eip712Domain",
      "outputs": [
        {
          "internalType": "bytes1",
          "name": "fields",
          "type": "bytes1"
        },
        {
          "internalType": "string",
          "name": "name",
          "type": "string"
        },
        {
          "internalType": "string",
          "name": "version",
          "type": "string"
        },
        {
          "internalType": "uint256",
          "name": "chainId",
          "type": "uint256"
        },
        {
          "internalType": "address",
          "name": "verifyingContract",
          "type": "address"
        },
        {
          "internalType": "bytes32",
          "name": "salt",
          "type": "bytes32"
        },
        {
          "internalType": "uint256[]",
          "name": "extensions",
          "type": "uint256[]"
        }
      ],
      "stateMutability": "view",
      "type": "function"
    },
    {
      "inputs": [
        {
          "internalType": "address",
          "name": "to",
          "type": "address"
        },
        {
          "internalType": "uint256",
          "name": "amount",
          "type": "uint256"
        }
      ],
      "name": "mint",
      "outputs": [],
      "stateMutability": "nonpayable",
      "type": "function"
    },
    {
      "inputs": [
        {
          "internalType": "address",
          "name": "",
          "type": "address"
        }
      ],
      "name": "minters",
      "outputs": [
        {
          "internalType": "bool",
          "name": "",
          "type": "bool"
        }
      ],
      "stateMutability": "view",
      "type": "function"
    },
    {
      "inputs": [],
      "name": "name",
      "outputs": [
        {
          "internalType": "string",
          "name": "",
          "type": "string"
        }
      ],
      "stateMutability": "view",
      "type": "function"
    },
    {
      "inputs": [
        {
          "internalType": "address",
          "name": "owner",
          "type": "address"
        }
      ],
      "name": "nonces",
      "outputs": [
        {
          "internalType": "uint256",
          "name": "",
          "type": "uint256"
        }
      ],
      "stateMutability": "view",
      "type": "function"
    },
    {
      "inputs": [],
      "name": "owner",
      "outputs": [
        {
          "internalType": "address",
          "name": "",
          "type": "address"
        }
      ],
      "stateMutability": "view",
      "type": "function"
    },
    {
      "inputs": [
        {
          "internalType": "address",
          "name": "owner",
          "type": "address"
        },
        {
          "internalType": "address",
          "name": "spender",
          "type": "address"
        },
        {
          "internalType": "uint256",
          "name": "value",
          "type": "uint256"
        },
        {
          "internalType": "uint256",
          "name": "deadline",
          "type": "uint256"
        },
        {
          "internalType": "uint8",
          "name": "v",
          "type": "uint8"
        },
        {
          "internalType": "bytes32",
          "name": "r",
          "type": "bytes32"
        },
        {
          "internalType": "bytes32",
          "name": "s",
          "type": "bytes32"
        }
      ],
      "name": "permit",
      "outputs": [],
      "stateMutability": "nonpayable",
      "type": "function"
    },
    {
      "inputs": [],
      "name": "renounceOwnership",
      "outputs": [],
      "stateMutability": "nonpayable",
      "type": "function"
    },
    {
      "inputs": [
        {
          "internalType": "address",
          "name": "account",
          "type": "address"
        },
        {
          "internalType": "bool",
          "name": "status",
          "type": "bool"
        }
      ],
      "name": "setMinter",
      "outputs": [],
      "stateMutability": "nonpayable",
      "type": "function"
    },
    {
      "inputs": [],
      "name": "symbol",
      "outputs": [
        {
          "internalType": "string",
          "name": "",
          "type": "string"
        }
      ],
      "stateMutability": "view",
      "type": "function"
    },
    {
      "inputs": [],
      "name": "totalSupply",
      "outputs": [
        {
          "internalType": "uint256",
          "name": "",
          "type": "uint256"
        }
      ],
      "stateMutability": "view",
      "type": "function"
    },
    {
      "inputs": [
        {
          "internalType": "address",
          "name": "to",
          "type": "address"
        },
        {
          "internalType": "uint256",
          "name": "value",
          "type": "uint256"
        }
      ],
      "name": "transfer",
      "outputs": [
        {
          "internalType": "bool",
          "name": "",
          "type": "bool"
        }
      ],
      "stateMutability": "nonpayable",
      "type": "function"
    },
    {
      "inputs": [
        {
          "internalType": "address",
          "name": "from",
          "type": "address"
        },
        {
          "internalType": "address",
          "name": "to",
          "type": "address"
        },
        {
          "internalType": "uint256",
          "name": "value",
          "type": "uint256"
        }
      ],
      "name": "transferFrom",
      "outputs": [
        {
          "internalType": "bool",
          "name": "",
          "type": "bool"
        }
      ],
      "stateMutability": "nonpayable",
      "type": "function"
    },
    {
      "inputs": [
        {
          "internalType": "address",
          "name": "newOwner",
          "type": "address"
        }
      ],
      "name": "transferOwnership",
      "outputs": [],
      "stateMutability": "nonpayable",
      "type": "function"
    }
  ],
  "bytecode": "0x610160604052348015610010575f80fd5b5060405161171b38038061171b83398101604081905261002f91610280565b806040518060400160405280600c81526020016b2b30bab63a2c102a37b5b2b760a11b81525080604051806040016040528060018152602001603160f81b8152506040518060400160405280600c81526020016b2b30bab63a2c102a37b5b2b760a11b815250604051806040016040528060038152602001620aca8b60eb1b81525081600390816100c09190610345565b5060046100cd8282610345565b506100dd915083905060056101c0565b610120526100ec8160066101c0565b61014052815160208084019190912060e052815190820120610100524660a05261017860e05161010051604080517f8b73c3c69bb8fe3d512ecc4cf759cc79239f7b179b0ffacaa9a75d522b39400f60208201529081019290925260608201524660808201523060a08201525f9060c00160405160208183030381529060405280519060200120905090565b60805250503060c052506001600160a01b0381166101b057604051631e4fbdf760e01b81525f60048201526024015b60405180910390fd5b6101b9816101f2565b5050610457565b5f6020835110156101db576101d483610243565b90506101ec565b816101e68482610345565b5060ff90505b92915050565b600880546001600160a01b038381166001600160a01b0319831681179093556040519116919082907f8be0079c531659141344cd1fd0a4f28419497f9722a3daafe3b4186f6b6457e0905f90a35050565b5f80829050601f8151111561026d578260405163305a27a960e01b81526004016101a791906103ff565b805161027882610434565b179392505050565b5f60208284031215610290575f80fd5b81516001600160a01b03811681146102a6575f80fd5b9392505050565b634e487b7160e01b5f52604160045260245ffd5b600181811c908216806102d557607f821691505b6020821081036102f357634e487b7160e01b5f52602260045260245ffd5b50919050565b601f82111561034057805f5260205f20601f840160051c8101602085101561031e5750805b601f840160051c820191505b8181101561033d575f815560010161032a565b50505b505050565b81516001600160401b0381111561035e5761035e6102ad565b6103728161036c84546102c1565b846102f9565b6020601f8211600181146103a4575f831561038d5750848201515b5f19600385901b1c1916600184901b17845561033d565b5f84815260208120601f198516915b828110156103d357878501518255602094850194600190920191016103b3565b50848210156103f057868401515f19600387901b60f8161c191681555b50505050600190811b01905550565b602081525f82518060208401528060208501604085015e5f604082850101526040601f19601f83011684010191505092915050565b805160208083015191908110156102f3575f1960209190910360031b1b16919050565b60805160a05160c05160e0516101005161012051610140516112736104a85f395f610a6e01525f610a4101525f61090401525f6108dc01525f61083701525f61086101525f61088b01526112735ff3fe608060405234801561000f575f80fd5b5060043610610132575f3560e01c8063715018a6116100b4578063a9059cbb11610079578063a9059cbb1461026f578063cf456ae714610282578063d505accf14610295578063dd62ed3e146102a8578063f2fde38b146102e0578063f46eccc4146102f3575f80fd5b8063715018a6146102165780637ecebe001461021e57806384b0196e146102315780638da5cb5b1461024c57806395d89b4114610267575f80fd5b806332cb6b0c116100fa57806332cb6b0c146101ab5780633644e515146101be57806340c10f19146101c657806342966c68146101db57806370a08231146101ee575f80fd5b806306fdde0314610136578063095ea7b31461015457806318160ddd1461017757806323b872dd14610189578063313ce5671461019c575b5f80fd5b61013e610315565b60405161014b9190610f9f565b60405180910390f35b610167610162366004610fd3565b6103a5565b604051901515815260200161014b565b6002545b60405190815260200161014b565b610167610197366004610ffb565b6103be565b6040516012815260200161014b565b61017b6b033b2e3c9fd0803ce800000081565b61017b6103e1565b6101d96101d4366004610fd3565b6103ef565b005b6101d96101e9366004611035565b6104cf565b61017b6101fc36600461104c565b6001600160a01b03165f9081526020819052604090205490565b6101d96104dc565b61017b61022c36600461104c565b6104ef565b61023961050c565b60405161014b9796959493929190611065565b6008546040516001600160a01b03909116815260200161014b565b61013e61054e565b61016761027d366004610fd3565b61055d565b6101d96102903660046110fb565b61056a565b6101d96102a3366004611134565b6105d0565b61017b6102b63660046111a1565b6001600160a01b039182165f90815260016020908152604080832093909416825291909152205490565b6101d96102ee36600461104c565b610706565b61016761030136600461104c565b60096020525f908152604090205460ff1681565b606060038054610324906111d2565b80601f0160208091040260200160405190810160405280929190818152602001828054610350906111d2565b801561039b5780601f106103725761010080835404028352916020019161039b565b820191905f5260205f20905b81548152906001019060200180831161037e57829003601f168201915b5050505050905090565b5f336103b2818585610740565b60019150505b92915050565b5f336103cb858285610752565b6103d68585856107ce565b506001949350505050565b5f6103ea61082b565b905090565b335f9081526009602052604090205460ff166104525760405162461bcd60e51b815260206004820152601960248201527f5661756c7458546f6b656e3a206e6f742061206d696e7465720000000000000060448201526064015b60405180910390fd5b6b033b2e3c9fd0803ce80000008161046960025490565b610473919061120a565b11156104c15760405162461bcd60e51b815260206004820181905260248201527f5661756c7458546f6b656e3a206d617820737570706c792065786365656465646044820152606401610449565b6104cb8282610954565b5050565b6104d93382610988565b50565b6104e46109bc565b6104ed5f6109e9565b565b6001600160a01b0381165f908152600760205260408120546103b8565b5f6060805f805f606061051d610a3a565b610525610a67565b604080515f80825260208201909252600f60f81b9b939a50919850469750309650945092509050565b606060048054610324906111d2565b5f336103b28185856107ce565b6105726109bc565b6001600160a01b0382165f81815260096020908152604091829020805460ff191685151590811790915591519182527f583b0aa0e528532caf4b907c11d7a8158a122fe2a6fb80cd9b09776ebea8d92d910160405180910390a25050565b834211156105f45760405163313c898160e11b815260048101859052602401610449565b5f7f6e71edae12b1b97f4d1f60370fef10105fa2faae0126114a169c64845d6126c988888861063f8c6001600160a01b03165f90815260076020526040902080546001810190915590565b6040805160208101969096526001600160a01b0394851690860152929091166060840152608083015260a082015260c0810186905260e0016040516020818303038152906040528051906020012090505f61069982610a94565b90505f6106a882878787610ac0565b9050896001600160a01b0316816001600160a01b0316146106ef576040516325c0072360e11b81526001600160a01b0380831660048301528b166024820152604401610449565b6106fa8a8a8a610740565b50505050505050505050565b61070e6109bc565b6001600160a01b03811661073757604051631e4fbdf760e01b81525f6004820152602401610449565b6104d9816109e9565b61074d8383836001610aec565b505050565b6001600160a01b038381165f908152600160209081526040808320938616835292905220545f198110156107c857818110156107ba57604051637dc7a0d960e11b81526001600160a01b03841660048201526024810182905260448101839052606401610449565b6107c884848484035f610aec565b50505050565b6001600160a01b0383166107f757604051634b637e8f60e11b81525f6004820152602401610449565b6001600160a01b0382166108205760405163ec442f0560e01b81525f6004820152602401610449565b61074d838383610bbe565b5f306001600160a01b037f00000000000000000000000000000000000000000000000000000000000000001614801561088357507f000000000000000000000000000000000000000000000000000000000000000046145b156108ad57507f000000000000000000000000000000000000000000000000000000000000000090565b6103ea604080517f8b73c3c69bb8fe3d512ecc4cf759cc79239f7b179b0ffacaa9a75d522b39400f60208201527f0000000000000000000000000000000000000000000000000000000000000000918101919091527f000000000000000000000000000000000000000000000000000000000000000060608201524660808201523060a08201525f9060c00160405160208183030381529060405280519060200120905090565b6001600160a01b03821661097d5760405163ec442f0560e01b81525f6004820152602401610449565b6104cb5f8383610bbe565b6001600160a01b0382166109b157604051634b637e8f60e11b81525f6004820152602401610449565b6104cb825f83610bbe565b6008546001600160a01b031633146104ed5760405163118cdaa760e01b8152336004820152602401610449565b600880546001600160a01b038381166001600160a01b0319831681179093556040519116919082907f8be0079c531659141344cd1fd0a4f28419497f9722a3daafe3b4186f6b6457e0905f90a35050565b60606103ea7f00000000000000000000000000000000000000000000000000000000000000006005610ce4565b60606103ea7f00000000000000000000000000000000000000000000000000000000000000006006610ce4565b5f6103b8610aa061082b565b8360405161190160f01b8152600281019290925260228201526042902090565b5f805f80610ad088888888610d8d565b925092509250610ae08282610e55565b50909695505050505050565b6001600160a01b038416610b155760405163e602df0560e01b81525f6004820152602401610449565b6001600160a01b038316610b3e57604051634a1406b160e11b81525f6004820152602401610449565b6001600160a01b038085165f90815260016020908152604080832093871683529290522082905580156107c857826001600160a01b0316846001600160a01b03167f8c5be1e5ebec7d5bd14f71427d1e84f3dd0314c0f7b2291e5b200ac8c7c3b92584604051610bb091815260200190565b60405180910390a350505050565b6001600160a01b038316610be8578060025f828254610bdd919061120a565b90915550610c589050565b6001600160a01b0383165f9081526020819052604090205481811015610c3a5760405163391434e360e21b81526001600160a01b03851660048201526024810182905260448101839052606401610449565b6001600160a01b0384165f9081526020819052604090209082900390555b6001600160a01b038216610c7457600280548290039055610c92565b6001600160a01b0382165f9081526020819052604090208054820190555b816001600160a01b0316836001600160a01b03167fddf252ad1be2c89b69c2b068fc378daa952ba7f163c4a11628f55a4df523b3ef83604051610cd791815260200190565b60405180910390a3505050565b606060ff8314610cfe57610cf783610f0d565b90506103b8565b818054610d0a906111d2565b80601f0160208091040260200160405190810160405280929190818152602001828054610d36906111d2565b8015610d815780601f10610d5857610100808354040283529160200191610d81565b820191905f5260205f20905b815481529060010190602001808311610d6457829003601f168201915b505050505090506103b8565b5f80807f7fffffffffffffffffffffffffffffff5d576e7357a4501ddfe92f46681b20a0841115610dc657505f91506003905082610e4b565b604080515f808252602082018084528a905260ff891692820192909252606081018790526080810186905260019060a0016020604051602081039080840390855afa158015610e17573d5f803e3d5ffd5b5050604051601f1901519150506001600160a01b038116610e4257505f925060019150829050610e4b565b92505f91508190505b9450945094915050565b5f826003811115610e6857610e68611229565b03610e71575050565b6001826003811115610e8557610e85611229565b03610ea35760405163f645eedf60e01b815260040160405180910390fd5b6002826003811115610eb757610eb7611229565b03610ed85760405163fce698f760e01b815260048101829052602401610449565b6003826003811115610eec57610eec611229565b036104cb576040516335e2f38360e21b815260048101829052602401610449565b60605f610f1983610f4a565b6040805160208082528183019092529192505f91906020820181803683375050509182525060208101929092525090565b5f60ff8216601f8111156103b857604051632cd44ac360e21b815260040160405180910390fd5b5f81518084528060208401602086015e5f602082860101526020601f19601f83011685010191505092915050565b602081525f610fb16020830184610f71565b9392505050565b80356001600160a01b0381168114610fce575f80fd5b919050565b5f8060408385031215610fe4575f80fd5b610fed83610fb8565b946020939093013593505050565b5f805f6060848603121561100d575f80fd5b61101684610fb8565b925061102460208501610fb8565b929592945050506040919091013590565b5f60208284031215611045575f80fd5b5035919050565b5f6020828403121561105c575f80fd5b610fb182610fb8565b60ff60f81b8816815260e060208201525f61108360e0830189610f71565b82810360408401526110958189610f71565b606084018890526001600160a01b038716608085015260a0840186905283810360c0850152845180825260208087019350909101905f5b818110156110ea5783518352602093840193909201916001016110cc565b50909b9a5050505050505050505050565b5f806040838503121561110c575f80fd5b61111583610fb8565b915060208301358015158114611129575f80fd5b809150509250929050565b5f805f805f805f60e0888a03121561114a575f80fd5b61115388610fb8565b965061116160208901610fb8565b95506040880135945060608801359350608088013560ff81168114611184575f80fd5b9699959850939692959460a0840135945060c09093013592915050565b5f80604083850312156111b2575f80fd5b6111bb83610fb8565b91506111c960208401610fb8565b90509250929050565b600181811c908216806111e657607f821691505b60208210810361120457634e487b7160e01b5f52602260045260245ffd5b50919050565b808201808211156103b857634e487b7160e01b5f52601160045260245ffd5b634e487b7160e01b5f52602160045260245ffdfea26469706673582212209d3110ad7f15075507892927d86a0e55d3c3c791a9f402fb595ff32ab1912cbf64736f6c634300081a0033",
  "linkReferences": {},
  "deployedLinkReferences": {}
}