{
  "_format": "hh-sol-artifact-1",
  "contractName": "VaultXToken",
  "sourceName": "contracts/VaultXToken.sol",
  "abi": [
    {
      "inputs": [
        {
          "internalType": "address",
          "name": "initialOwner",
          "type": "address"
        }
      ],
      "stateMutability": "nonpayable",
      "type": "constructor"
    },
    {
      "inputs": [],
      "name": "ECDSAInvalidSignature",
      "type": "error"
    },
    {
      "inputs": [
        {
          "internalType": "uint256",
          "name": "length",
          "type": "uint256"
        }
      ],
      "name": "ECDSAInvalidSignatureLength",
      "type": "error"
    },
    {
      "inputs": [
        {
          "internalType": "bytes32",
          "name": "s",
          "type": "bytes32"
        }
      ],
      "name": "ECDSAInvalidSignatureS",
      "type": "error"
    },
    {
      "inputs": [
        {
          "internalType": "address",
          "name": "spender",
          "type": "address"
        },
        {
          "internalType": "uint256",
          "name": "allowance",
          "type": "uint256"
        },
        {
          "internalType": "uint256",
          "name": "needed",
          "type": "uint256"
        }
      ],
      "name": "ERC20InsufficientAllowance",
      "type": "error"
    },
    {
      "inputs": [
        {
          "internalType": "address",
          "name": "sender",
          "type": "address"
        },
        {
          "internalType": "uint256",
          "name": "balance",
          "type": "uint256"
        },
        {
          "internalType": "uint256",
          "name": "needed",
          "type": "uint256"
        }
      ],
      "name": "ERC20InsufficientBalance",
      "type": "error"
    },
    {
      "inputs": [
        {
          "internalType": "address",
          "name": "approver",
          "type": "address"
        }
      ],
      "name": "ERC20InvalidApprover",
      "type": "error"
    },
    {
      "inputs": [
        {
          "internalType": "address",
          "name": "receiver",
          "type": "address"
        }
      ],
      "name": "ERC20InvalidReceiver",
      "type": "error"
    },
    {
      "inputs": [
        {
          "internalType": "address",
          "name": "sender",
          "type": "address"
        }
      ],
      "name": "ERC20InvalidSender",
      "type": "error"
    },
    {
      "inputs": [
        {
          "internalType": "address",
          "name": "spender",
          "type": "address"
        }
      ],
      "name": "ERC20InvalidSpender",
      "type": "error"
    },
    {
      "inputs": [
        {
          "internalType": "uint256",
          "name": "deadline",
          "type": "uint256"
        }
      ],
      "name": "ERC2612ExpiredSignature",
      "type": "error"
    },
    {
      "inputs": [
        {
          "internalType": "address",
          "name": "signer",
          "type": "address"
        },
        {
          "internalType": "address",
          "name": "owner",
          "type": "address"
        }
      ],
      "name": "ERC2612InvalidSigner",
      "type": "error"
    },
    {
      "inputs": [
        {
          "internalType": "address",
          "name": "account",
          "type": "address"
        },
        {
          "internalType": "uint256",
          "name": "currentNonce",
          "type": "uint256"
        }
      ],
      "name": "InvalidAccountNonce",
      "type": "error"
    },
    {
      "inputs": [],
      "name": "InvalidShortString",
      "type": "error"
    },
    {
      "inputs": [
        {
          "internalType": "address",
          "name": "owner",
          "type": "address"
        }
      ],
      "name": "OwnableInvalidOwner",
      "type": "error"
    },
    {
      "inputs": [
        {
          "internalType": "address",
          "name": "account",
          "type": "address"
        }
      ],
      "name": "OwnableUnauthorizedAccount",
      "type": "error"
    },
    {
      "inputs": [
        {
          "internalType": "string",
          "name": "str",
          "type": "string"
        }
      ],
      "name": "StringTooLong",
      "type": "error"
    },
    {
      "anonymous": false,
      "inputs": [
        {
          "indexed": true,
          "internalType": "address",
          "name": "owner",
          "type": "address"
        },
        {
          "indexed": true,
          "internalType": "address",
          "name": "spender",
          "type": "address"
        },
        {
          "indexed": false,
          "internalType": "uint256",
          "name": "value",
          "type": "uint256"
        }
      ],
      "name": "Approval",
      "type": "event"
    },
    {
      "anonymous": false,
      "inputs": [],
      "name": "EIP712DomainChanged",
      "type": "event"
    },
    {
      "anonymous": false,
      "inputs": [
        {
          "indexed": true,
          "internalType": "address",
          "name": "account",
          "type": "address"
        },
        {
          "indexed": false,
          "internalType": "bool",
          "name": "status",
          "type": "bool"
        }
      ],
      "name": "MinterSet",
      "type": "event"
    },
    {
      "anonymous": false,
      "inputs": [
        {
          "indexed": true,
          "internalType": "address",
          "name": "previousOwner",
          "type": "address"
        },
        {
          "indexed": true,
          "internalType": "address",
          "name": "newOwner",
          "type": "address"
        }
      ],
      "name": "OwnershipTransferred",
      "type": "event"
    },
    {
      "anonymous": false,
      "inputs": [
        {
          "indexed": true,
          "internalType": "address",
          "name": "from",
          "type": "address"
        },
        {
          "indexed": true,
          "internalType": "address",
          "name": "to",
          "type": "address"
        },
        {
          "indexed": false,
          "internalType": "uint256",
          "name": "value",
          "type": "uint256"
        }
      ],
      "name": "Transfer",
      "type": "event"
    },
    {
      "inputs": [],
      "name": "DOMAIN_SEPARATOR",
      "outputs": [
        {
          "internalType": "bytes32",
          "name": "",
          "type": "bytes32"
        }
      ],
      "stateMutability": "view",
      "type": "function"
    },
    {
      "inputs": [],
      "name": "MAX_SUPPLY",
      "outputs": [
        {
          "internalType": "uint256",
          "name": "",
          "type": "uint256"
        }
      ],
      "stateMutability": "view",
      "type": "function"
    },
    {
      "inputs": [
        {
          "internalType": "address",
          "name": "owner",
          "type": "address"
        },
        {
          "internalType": "address",
          "name": "spender",
          "type": "address"
        }
      ],
      "name": "allowance",
      "outputs": [
        {
          "internalType": "uint256",
          "name": "",
          "type": "uint256"
        }
      ],
      "stateMutability": "view",
      "type": "function"
    },
    {
      "inputs": [
        {
          "internalType": "address",
          "name": "spender",
          "type": "address"
        },
        {
          "internalType": "uint256",
          "name": "value",
          "type": "uint256"
        }
      ],
      "name": "approve",
      "outputs": [
        {
          "internalType": "bool",
          "name": "",
          "type": "bool"
        }
      ],
      "stateMutability": "nonpayable",
      "type": "function"
    },
    {
      "inputs": [
        {
          "internalType": "address",
          "name": "account",
          "type": "address"
        }
      ],
      "name": "balanceOf",
      "outputs": [
        {
          "internalType": "uint256",
          "name": "",
          "type": "uint256"
        }
      ],
      "stateMutability": "view",
      "type": "function"
    },
    {
      "inputs": [
        {
          "internalType": "uint256",
          "name": "amount",
          "type": "uint256"
        }
      ],
      "name": "burn",
      "outputs": [],
      "stateMutability": "nonpayable",
      "type": "function"
    },
    {
      "inputs": [],
      "name": "decimals",
      "outputs": [
        {
          "internalType": "uint8",
          "name": "",
          "type": "uint8"
        }
      ],
      "stateMutability": "view",
      "type": "function"
    },
    {
      "inputs": [],
      "name": "eip712Domain",
      "outputs": [
        {
          "internalType": "bytes1",
          "name": "fields",
          "type": "bytes1"
        },
        {
          "internalType": "string",
          "name": "name",
          "type": "string"
        },
        {
          "internalType": "string",
          "name": "version",
          "type": "string"
        },
        {
          "internalType": "uint256",
          "name": "chainId",
          "type": "uint256"
        },
        {
          "internalType": "address",
          "name": "verifyingContract",
          "type": "address"
        },
        {
          "internalType": "bytes32",
          "name": "salt",
          "type": "bytes32"
        },
        {
          "internalType": "uint256[]",
          "name": "extensions",
          "type": "uint256[]"
        }
      ],
      "stateMutability": "view",
      "type": "function"
    },
    {
      "inputs": [
        {
          "internalType": "address",
          "name": "to",
          "type": "address"
        },
        {
          "internalType": "uint256",
          "name": "amount",
          "type": "uint256"
        }
      ],
      "name": "mint",
      "outputs": [],
      "stateMutability": "nonpayable",
      "type": "function"
    },
    {
      "inputs": [
        {
          "internalType": "address",
          "name": "",
          "type": "address"
        }
      ],
      "name": "minters",
      "outputs": [
        {
          "internalType": "bool",
          "name": "",
          "type": "bool"
        }
      ],
      "stateMutability": "view",
      "type": "function"
    },
    {
      "inputs": [],
      "name": "name",
      "outputs": [
        {
          "internalType": "string",
          "name": "",
          "type": "string"
        }
      ],
      "stateMutability": "view",
      "type": "function"
    },
    {
      "inputs": [
        {
          "internalType": "address",
          "name": "owner",
          "type": "address"
        }
      ],
      "name": "nonces",
      "outputs": [
        {
          "internalType": "uint256",
          "name": "",
          "type": "uint256"
        }
      ],
      "stateMutability": "view",
      "type": "function"
    },
    {
      "inputs": [],
      "name": "owner",
      "outputs": [
        {
          "internalType": "address",
          "name": "",
          "type": "address"
        }
      ],
      "stateMutability": "view",
      "type": "function"
    },
    {
      "inputs": [
        {
          "internalType": "address",
          "name": "owner",
          "type": "address"
        },
        {
          "internalType": "address",
          "name": "spender",
          "type": "address"
        },
        {
          "internalType": "uint256",
          "name": "value",
          "type": "uint256"
        },
        {
          "internalType": "uint256",
          "name": "deadline",
          "type": "uint256"
        },
        {
          "internalType": "uint8",
          "name": "v",
          "type": "uint8"
        },
        {
          "internalType": "bytes32",
          "name": "r",
          "type": "bytes32"
        },
        {
          "internalType": "bytes32",
          "name": "s",
          "type": "bytes32"
        }
      ],
      "name": "permit",
      "outputs": [],
      "stateMutability": "nonpayable",
      "type": "function"
    },
    {
      "inputs": [],
      "name": "renounceOwnership",
      "outputs": [],
      "stateMutability": "nonpayable",
      "type": "function"
    },
    {
      "inputs": [
        {
          "internalType": "address",
          "name": "account",
          "type": "address"
        },
        {
          "internalType": "bool",
          "name": "status",
          "type": "bool"
        }
      ],
      "name": "setMinter",
      "outputs": [],
      "stateMutability": "nonpayable",
      "type": "function"
    },
    {
      "inputs": [],
      "name": "symbol",
      "outputs": [
        {
          "internalType": "string",
          "name": "",
          "type": "string"
        }
      ],
      "stateMutability": "view",
      "type": "function"
    },
    {
      "inputs": [],
      "name": "totalSupply",
      "outputs": [
        {
          "internalType": "uint256",
          "name": "",
          "type": "uint256"
        }
      ],
      "stateMutability": "view",
      "type": "function"
    },
    {
      "inputs": [
        {
          "internalType": "address",
          "name": "to",
          "type": "address"
        },
        {
          "internalType": "uint256",
          "name": "value",
          "type": "uint256"
        }
      ],
      "name": "transfer",
      "outputs": [
        {
          "internalType": "bool",
          "name": "",
          "type": "bool"
        }
      ],
      "stateMutability": "nonpayable",
      "type": "function"
    },
    {
      "inputs": [
        {
          "internalType": "address",
          "name": "from",
          "type": "address"
        },
        {
          "internalType": "address",
          "name": "to",
          "type": "address"
        },
        {
          "internalType": "uint256",
          "name": "value",
          "type": "uint256"
        }
      ],
      "name": "transferFrom",
      "outputs": [
        {
          "internalType": "bool",
          "name": "",
          "type": "bool"
        }
      ],
      "stateMutability": "nonpayable",
      "type": "function"
    },
    {
      "inputs": [
        {
          "internalType": "address",
          "name": "newOwner",
          "type": "address"
        }
      ],
      "name": "transferOwnership",
      "outputs": [],
      "stateMutability": "nonpayable",
      "type": "function"
    }
  ],
  "bytecode": "0x610160604052348015610010575f80fd5b50604051612ec0380380612ec0833981810160405281019061003291906104b2565b806040518060400160405280600c81526020017f5661756c745820546f6b656e0000000000000000000000000000000000000000815250806040518060400160405280600181526020017f31000000000000000000000000000000000000000000000000000000000000008152506040518060400160405280600c81526020017f5661756c745820546f6b656e00000000000000000000000000000000000000008152506040518060400160405280600381526020017f5654580000000000000000000000000000000000000000000000000000000000815250816003908161011b9190610717565b50806004908161012b9190610717565b50505061014260058361027960201b90919060201c565b610120818152505061015e60068261027960201b90919060201c565b6101408181525050818051906020012060e08181525050808051906020012061010081815250504660a0818152505061019b6102c660201b60201c565b608081815250503073ffffffffffffffffffffffffffffffffffffffff1660c08173ffffffffffffffffffffffffffffffffffffffff16815250505050505f73ffffffffffffffffffffffffffffffffffffffff168173ffffffffffffffffffffffffffffffffffffffff1603610249575f6040517f1e4fbdf700000000000000000000000000000000000000000000000000000000815260040161024091906107f5565b60405180910390fd5b6102588161032060201b60201c565b5061027367206b7a55c802c81060c01b6103e360201b60201c565b5061099f565b5f60208351101561029a57610293836103e660201b60201c565b90506102c0565b826102aa8361044b60201b60201c565b5f0190816102b89190610717565b5060ff5f1b90505b92915050565b5f7f8b73c3c69bb8fe3d512ecc4cf759cc79239f7b179b0ffacaa9a75d522b39400f60e051610100514630604051602001610305959493929190610835565b60405160208183030381529060405280519060200120905090565b5f60085f9054906101000a900473ffffffffffffffffffffffffffffffffffffffff1690508160085f6101000a81548173ffffffffffffffffffffffffffffffffffffffff021916908373ffffffffffffffffffffffffffffffffffffffff1602179055508173ffffffffffffffffffffffffffffffffffffffff168173ffffffffffffffffffffffffffffffffffffffff167f8be0079c531659141344cd1fd0a4f28419497f9722a3daafe3b4186f6b6457e060405160405180910390a35050565b50565b5f80829050601f8151111561043257826040517f305a27a900000000000000000000000000000000000000000000000000000000815260040161042991906108ec565b60405180910390fd5b80518161043e90610939565b5f1c175f1b915050919050565b5f819050919050565b5f80fd5b5f73ffffffffffffffffffffffffffffffffffffffff82169050919050565b5f61048182610458565b9050919050565b61049181610477565b811461049b575f80fd5b50565b5f815190506104ac81610488565b92915050565b5f602082840312156104c7576104c6610454565b5b5f6104d48482850161049e565b91505092915050565b5f81519050919050565b7f4e487b71000000000000000000000000000000000000000000000000000000005f52604160045260245ffd5b7f4e487b71000000000000000000000000000000000000000000000000000000005f52602260045260245ffd5b5f600282049050600182168061055857607f821691505b60208210810361056b5761056a610514565b5b50919050565b5f819050815f5260205f209050919050565b5f6020601f8301049050919050565b5f82821b905092915050565b5f600883026105cd7fffffffffffffffffffffffffffffffffffffffffffffffffffffffffffffffff82610592565b6105d78683610592565b95508019841693508086168417925050509392505050565b5f819050919050565b5f819050919050565b5f61061b610616610611846105ef565b6105f8565b6105ef565b9050919050565b5f819050919050565b61063483610601565b61064861064082610622565b84845461059e565b825550505050565b5f90565b61065c610650565b61066781848461062b565b505050565b5b8181101561068a5761067f5f82610654565b60018101905061066d565b5050565b601f8211156106cf576106a081610571565b6106a984610583565b810160208510156106b8578190505b6106cc6106c485610583565b83018261066c565b50505b505050565b5f82821c905092915050565b5f6106ef5f19846008026106d4565b1980831691505092915050565b5f61070783836106e0565b9150826002028217905092915050565b610720826104dd565b67ffffffffffffffff811115610739576107386104e7565b5b6107438254610541565b61074e82828561068e565b5f60209050601f83116001811461077f575f841561076d578287015190505b61077785826106fc565b8655506107de565b601f19841661078d86610571565b5f5b828110156107b45784890151825560018201915060208501945060208101905061078f565b868310156107d157848901516107cd601f8916826106e0565b8355505b6001600288020188555050505b505050505050565b6107ef81610477565b82525050565b5f6020820190506108085f8301846107e6565b92915050565b5f819050919050565b6108208161080e565b82525050565b61082f816105ef565b82525050565b5f60a0820190506108485f830188610817565b6108556020830187610817565b6108626040830186610817565b61086f6060830185610826565b61087c60808301846107e6565b9695505050505050565b5f82825260208201905092915050565b8281835e5f83830152505050565b5f601f19601f8301169050919050565b5f6108be826104dd565b6108c88185610886565b93506108d8818560208601610896565b6108e1816108a4565b840191505092915050565b5f6020820190508181035f83015261090481846108b4565b905092915050565b5f81519050919050565b5f819050602082019050919050565b5f610930825161080e565b80915050919050565b5f6109438261090c565b8261094d84610916565b905061095881610925565b92506020821015610998576109937fffffffffffffffffffffffffffffffffffffffffffffffffffffffffffffffff83602003600802610592565b831692505b5050919050565b60805160a05160c05160e0516101005161012051610140516124d06109f05f395f61122e01525f6111f301525f61172701525f61170601525f610ea601525f610efc01525f610f2501526124d05ff3fe608060405234801561000f575f80fd5b5060043610610135575f3560e01c8063715018a6116100b6578063a9059cbb1161007a578063a9059cbb14610331578063cf456ae714610361578063d505accf1461037d578063dd62ed3e14610399578063f2fde38b146103c9578063f46eccc4146103e557610135565b8063715018a6146102975780637ecebe00146102a157806384b0196e146102d15780638da5cb5b146102f557806395d89b411461031357610135565b806332cb6b0c116100fd57806332cb6b0c146101f35780633644e5151461021157806340c10f191461022f57806342966c681461024b57806370a082311461026757610135565b806306fdde0314610139578063095ea7b31461015757806318160ddd1461018757806323b872dd146101a5578063313ce567146101d5575b5f80fd5b610141610415565b60405161014e9190611bdd565b60405180910390f35b610171600480360381019061016c9190611c8e565b6104a5565b60405161017e9190611ce6565b60405180910390f35b61018f6104c7565b60405161019c9190611d0e565b60405180910390f35b6101bf60048036038101906101ba9190611d27565b6104d0565b6040516101cc9190611ce6565b60405180910390f35b6101dd6104fe565b6040516101ea9190611d92565b60405180910390f35b6101fb610506565b6040516102089190611d0e565b60405180910390f35b610219610516565b6040516102269190611dc3565b60405180910390f35b61024960048036038101906102449190611c8e565b610524565b005b61026560048036038101906102609190611ddc565b610748565b005b610281600480360381019061027c9190611e07565b610791565b60405161028e9190611d0e565b60405180910390f35b61029f6107d6565b005b6102bb60048036038101906102b69190611e07565b6107e9565b6040516102c89190611d0e565b60405180910390f35b6102d96107fa565b6040516102ec9796959493929190611f32565b60405180910390f35b6102fd61089f565b60405161030a9190611fb4565b60405180910390f35b61031b6108c7565b6040516103289190611bdd565b60405180910390f35b61034b60048036038101906103469190611c8e565b610957565b6040516103589190611ce6565b60405180910390f35b61037b60048036038101906103769190611ff7565b610979565b005b61039760048036038101906103929190612089565b610a9f565b005b6103b360048036038101906103ae9190612126565b610be4565b6040516103c09190611d0e565b60405180910390f35b6103e360048036038101906103de9190611e07565b610c66565b005b6103ff60048036038101906103fa9190611e07565b610cea565b60405161040c9190611ce6565b60405180910390f35b60606003805461042490612191565b80601f016020809104026020016040519081016040528092919081815260200182805461045090612191565b801561049b5780601f106104725761010080835404028352916020019161049b565b820191905f5260205f20905b81548152906001019060200180831161047e57829003601f168201915b5050505050905090565b5f806104af610d07565b90506104bc818585610d0e565b600191505092915050565b5f600254905090565b5f806104da610d07565b90506104e7858285610d20565b6104f2858585610db3565b60019150509392505050565b5f6012905090565b6b033b2e3c9fd0803ce800000081565b5f61051f610ea3565b905090565b61053867d9801af49e2e3fe960c01b610f59565b61054c672978ba7933ac11c560c01b610f59565b61056067ac860a1d5858fa2260c01b610f59565b61057467245e6ebdd94a1b7360c01b610f59565b610588679af555beb4a8119b60c01b610f59565b60095f3373ffffffffffffffffffffffffffffffffffffffff1673ffffffffffffffffffffffffffffffffffffffff1681526020019081526020015f205f9054906101000a900460ff16610611576040517f08c379a00000000000000000000000000000000000000000000000000000000081526004016106089061220b565b60405180910390fd5b61062567ed3f413155a517ae60c01b610f59565b6106396733a9a850ed39f6bb60c01b610f59565b61064d6735c5335d66505abe60c01b610f59565b610661678a5f0fab39dafb3060c01b610f59565b61067567ba772d861f7fcfd460c01b610f59565b61068967736b523542a62e8460c01b610f59565b61069d67ffaff3238c4d8af360c01b610f59565b6b033b2e3c9fd0803ce8000000816106b36104c7565b6106bd9190612256565b11156106fe576040517f08c379a00000000000000000000000000000000000000000000000000000000081526004016106f5906122d3565b60405180910390fd5b61071267930031b9ec405abc60c01b610f59565b61072667fbe3f93c92049d5d60c01b610f59565b61073a6740c093bb09f965c960c01b610f59565b6107448282610f5c565b5050565b61075c67d055c3beb6ba25f560c01b610f59565b610770673431b4d4ab0b706860c01b610f59565b61078467ea811c5e562c749160c01b610f59565b61078e3382610fdb565b50565b5f805f8373ffffffffffffffffffffffffffffffffffffffff1673ffffffffffffffffffffffffffffffffffffffff1681526020019081526020015f20549050919050565b6107de61105a565b6107e75f6110e1565b565b5f6107f3826111a4565b9050919050565b5f6060805f805f606061080b6111ea565b610813611225565b46305f801b5f67ffffffffffffffff811115610832576108316122f1565b5b6040519080825280602002602001820160405280156108605781602001602082028036833780820191505090505b507f0f00000000000000000000000000000000000000000000000000000000000000959493929190965096509650965096509650965090919293949596565b5f60085f9054906101000a900473ffffffffffffffffffffffffffffffffffffffff16905090565b6060600480546108d690612191565b80601f016020809104026020016040519081016040528092919081815260200182805461090290612191565b801561094d5780601f106109245761010080835404028352916020019161094d565b820191905f5260205f20905b81548152906001019060200180831161093057829003601f168201915b5050505050905090565b5f80610961610d07565b905061096e818585610db3565b600191505092915050565b61098d67e5ed743bda847cd660c01b610f59565b61099561105a565b6109a96708436e919fe05bb460c01b610f59565b6109bd67403d6eed4d70987660c01b610f59565b6109d167b6ac7fd18895d18b60c01b610f59565b8060095f8473ffffffffffffffffffffffffffffffffffffffff1673ffffffffffffffffffffffffffffffffffffffff1681526020019081526020015f205f6101000a81548160ff021916908315150217905550610a3967e0f70db88c3f30a760c01b610f59565b610a4d67c2b23ea4e50fa35a60c01b610f59565b8173ffffffffffffffffffffffffffffffffffffffff167f583b0aa0e528532caf4b907c11d7a8158a122fe2a6fb80cd9b09776ebea8d92d82604051610a939190611ce6565b60405180910390a25050565b83421115610ae457836040517f62791302000000000000000000000000000000000000000000000000000000008152600401610adb9190611d0e565b60405180910390fd5b5f7f6e71edae12b1b97f4d1f60370fef10105fa2faae0126114a169c64845d6126c9888888610b128c611260565b89604051602001610b289695949392919061231e565b6040516020818303038152906040528051906020012090505f610b4a826112b3565b90505f610b59828787876112cc565b90508973ffffffffffffffffffffffffffffffffffffffff168173ffffffffffffffffffffffffffffffffffffffff1614610bcd57808a6040517f4b800e46000000000000000000000000000000000000000000000000000000008152600401610bc492919061237d565b60405180910390fd5b610bd88a8a8a610d0e565b50505050505050505050565b5f60015f8473ffffffffffffffffffffffffffffffffffffffff1673ffffffffffffffffffffffffffffffffffffffff1681526020019081526020015f205f8373ffffffffffffffffffffffffffffffffffffffff1673ffffffffffffffffffffffffffffffffffffffff1681526020019081526020015f2054905092915050565b610c6e61105a565b5f73ffffffffffffffffffffffffffffffffffffffff168173ffffffffffffffffffffffffffffffffffffffff1603610cde575f6040517f1e4fbdf7000000000000000000000000000000000000000000000000000000008152600401610cd59190611fb4565b60405180910390fd5b610ce7816110e1565b50565b6009602052805f5260405f205f915054906101000a900460ff1681565b5f33905090565b610d1b83838360016112fa565b505050565b5f610d2b8484610be4565b90507fffffffffffffffffffffffffffffffffffffffffffffffffffffffffffffffff811015610dad5781811015610d9e578281836040517ffb8f41b2000000000000000000000000000000000000000000000000000000008152600401610d95939291906123a4565b60405180910390fd5b610dac84848484035f6112fa565b5b50505050565b5f73ffffffffffffffffffffffffffffffffffffffff168373ffffffffffffffffffffffffffffffffffffffff1603610e23575f6040517f96c6fd1e000000000000000000000000000000000000000000000000000000008152600401610e1a9190611fb4565b60405180910390fd5b5f73ffffffffffffffffffffffffffffffffffffffff168273ffffffffffffffffffffffffffffffffffffffff1603610e93575f6040517fec442f05000000000000000000000000000000000000000000000000000000008152600401610e8a9190611fb4565b60405180910390fd5b610e9e8383836114c9565b505050565b5f7f000000000000000000000000000000000000000000000000000000000000000073ffffffffffffffffffffffffffffffffffffffff163073ffffffffffffffffffffffffffffffffffffffff16148015610f1e57507f000000000000000000000000000000000000000000000000000000000000000046145b15610f4b577f00000000000000000000000000000000000000000000000000000000000000009050610f56565b610f536116e2565b90505b90565b50565b5f73ffffffffffffffffffffffffffffffffffffffff168273ffffffffffffffffffffffffffffffffffffffff1603610fcc575f6040517fec442f05000000000000000000000000000000000000000000000000000000008152600401610fc39190611fb4565b60405180910390fd5b610fd75f83836114c9565b5050565b5f73ffffffffffffffffffffffffffffffffffffffff168273ffffffffffffffffffffffffffffffffffffffff160361104b575f6040517f96c6fd1e0000000000000000000000000000000000000000000000000000000081526004016110429190611fb4565b60405180910390fd5b611056825f836114c9565b5050565b611062610d07565b73ffffffffffffffffffffffffffffffffffffffff1661108061089f565b73ffffffffffffffffffffffffffffffffffffffff16146110df576110a3610d07565b6040517f118cdaa70000000000000000000000000000000000000000000000000000000081526004016110d69190611fb4565b60405180910390fd5b565b5f60085f9054906101000a900473ffffffffffffffffffffffffffffffffffffffff1690508160085f6101000a81548173ffffffffffffffffffffffffffffffffffffffff021916908373ffffffffffffffffffffffffffffffffffffffff1602179055508173ffffffffffffffffffffffffffffffffffffffff168173ffffffffffffffffffffffffffffffffffffffff167f8be0079c531659141344cd1fd0a4f28419497f9722a3daafe3b4186f6b6457e060405160405180910390a35050565b5f60075f8373ffffffffffffffffffffffffffffffffffffffff1673ffffffffffffffffffffffffffffffffffffffff1681526020019081526020015f20549050919050565b606061122060057f000000000000000000000000000000000000000000000000000000000000000061177790919063ffffffff16565b905090565b606061125b60067f000000000000000000000000000000000000000000000000000000000000000061177790919063ffffffff16565b905090565b5f60075f8373ffffffffffffffffffffffffffffffffffffffff1673ffffffffffffffffffffffffffffffffffffffff1681526020019081526020015f205f815480929190600101919050559050919050565b5f6112c56112bf610ea3565b83611824565b9050919050565b5f805f806112dc88888888611864565b9250925092506112ec828261194b565b829350505050949350505050565b5f73ffffffffffffffffffffffffffffffffffffffff168473ffffffffffffffffffffffffffffffffffffffff160361136a575f6040517fe602df050000000000000000000000000000000000000000000000000000000081526004016113619190611fb4565b60405180910390fd5b5f73ffffffffffffffffffffffffffffffffffffffff168373ffffffffffffffffffffffffffffffffffffffff16036113da575f6040517f94280d620000000000000000000000000000000000000000000000000000000081526004016113d19190611fb4565b60405180910390fd5b8160015f8673ffffffffffffffffffffffffffffffffffffffff1673ffffffffffffffffffffffffffffffffffffffff1681526020019081526020015f205f8573ffffffffffffffffffffffffffffffffffffffff1673ffffffffffffffffffffffffffffffffffffffff1681526020019081526020015f208190555080156114c3578273ffffffffffffffffffffffffffffffffffffffff168473ffffffffffffffffffffffffffffffffffffffff167f8c5be1e5ebec7d5bd14f71427d1e84f3dd0314c0f7b2291e5b200ac8c7c3b925846040516114ba9190611d0e565b60405180910390a35b50505050565b5f73ffffffffffffffffffffffffffffffffffffffff168373ffffffffffffffffffffffffffffffffffffffff1603611519578060025f82825461150d9190612256565b925050819055506115e7565b5f805f8573ffffffffffffffffffffffffffffffffffffffff1673ffffffffffffffffffffffffffffffffffffffff1681526020019081526020015f20549050818110156115a2578381836040517fe450d38c000000000000000000000000000000000000000000000000000000008152600401611599939291906123a4565b60405180910390fd5b8181035f808673ffffffffffffffffffffffffffffffffffffffff1673ffffffffffffffffffffffffffffffffffffffff1681526020019081526020015f2081905550505b5f73ffffffffffffffffffffffffffffffffffffffff168273ffffffffffffffffffffffffffffffffffffffff160361162e578060025f8282540392505081905550611678565b805f808473ffffffffffffffffffffffffffffffffffffffff1673ffffffffffffffffffffffffffffffffffffffff1681526020019081526020015f205f82825401925050819055505b8173ffffffffffffffffffffffffffffffffffffffff168373ffffffffffffffffffffffffffffffffffffffff167fddf252ad1be2c89b69c2b068fc378daa952ba7f163c4a11628f55a4df523b3ef836040516116d59190611d0e565b60405180910390a3505050565b5f7f8b73c3c69bb8fe3d512ecc4cf759cc79239f7b179b0ffacaa9a75d522b39400f7f00000000000000000000000000000000000000000000000000000000000000007f0000000000000000000000000000000000000000000000000000000000000000463060405160200161175c9594939291906123d9565b60405160208183030381529060405280519060200120905090565b606060ff5f1b83146117935761178c83611aad565b905061181e565b81805461179f90612191565b80601f01602080910402602001604051908101604052809291908181526020018280546117cb90612191565b80156118165780601f106117ed57610100808354040283529160200191611816565b820191905f5260205f20905b8154815290600101906020018083116117f957829003601f168201915b505050505090505b92915050565b5f6040517f190100000000000000000000000000000000000000000000000000000000000081528360028201528260228201526042812091505092915050565b5f805f7f7fffffffffffffffffffffffffffffff5d576e7357a4501ddfe92f46681b20a0845f1c11156118a0575f600385925092509250611941565b5f6001888888886040515f81526020016040526040516118c3949392919061242a565b6020604051602081039080840390855afa1580156118e3573d5f803e3d5ffd5b5050506020604051035190505f73ffffffffffffffffffffffffffffffffffffffff168173ffffffffffffffffffffffffffffffffffffffff1603611934575f60015f801b93509350935050611941565b805f805f1b935093509350505b9450945094915050565b5f600381111561195e5761195d61246d565b5b8260038111156119715761197061246d565b5b0315611aa9576001600381111561198b5761198a61246d565b5b82600381111561199e5761199d61246d565b5b036119d5576040517ff645eedf00000000000000000000000000000000000000000000000000000000815260040160405180910390fd5b600260038111156119e9576119e861246d565b5b8260038111156119fc576119fb61246d565b5b03611a4057805f1c6040517ffce698f7000000000000000000000000000000000000000000000000000000008152600401611a379190611d0e565b60405180910390fd5b600380811115611a5357611a5261246d565b5b826003811115611a6657611a6561246d565b5b03611aa857806040517fd78bce0c000000000000000000000000000000000000000000000000000000008152600401611a9f9190611dc3565b60405180910390fd5b5b5050565b60605f611ab983611b1f565b90505f602067ffffffffffffffff811115611ad757611ad66122f1565b5b6040519080825280601f01601f191660200182016040528015611b095781602001600182028036833780820191505090505b5090508181528360208201528092505050919050565b5f8060ff835f1c169050601f811115611b64576040517fb3512b0c00000000000000000000000000000000000000000000000000000000815260040160405180910390fd5b80915050919050565b5f81519050919050565b5f82825260208201905092915050565b8281835e5f83830152505050565b5f601f19601f8301169050919050565b5f611baf82611b6d565b611bb98185611b77565b9350611bc9818560208601611b87565b611bd281611b95565b840191505092915050565b5f6020820190508181035f830152611bf58184611ba5565b905092915050565b5f80fd5b5f73ffffffffffffffffffffffffffffffffffffffff82169050919050565b5f611c2a82611c01565b9050919050565b611c3a81611c20565b8114611c44575f80fd5b50565b5f81359050611c5581611c31565b92915050565b5f819050919050565b611c6d81611c5b565b8114611c77575f80fd5b50565b5f81359050611c8881611c64565b92915050565b5f8060408385031215611ca457611ca3611bfd565b5b5f611cb185828601611c47565b9250506020611cc285828601611c7a565b9150509250929050565b5f8115159050919050565b611ce081611ccc565b82525050565b5f602082019050611cf95f830184611cd7565b92915050565b611d0881611c5b565b82525050565b5f602082019050611d215f830184611cff565b92915050565b5f805f60608486031215611d3e57611d3d611bfd565b5b5f611d4b86828701611c47565b9350506020611d5c86828701611c47565b9250506040611d6d86828701611c7a565b9150509250925092565b5f60ff82169050919050565b611d8c81611d77565b82525050565b5f602082019050611da55f830184611d83565b92915050565b5f819050919050565b611dbd81611dab565b82525050565b5f602082019050611dd65f830184611db4565b92915050565b5f60208284031215611df157611df0611bfd565b5b5f611dfe84828501611c7a565b91505092915050565b5f60208284031215611e1c57611e1b611bfd565b5b5f611e2984828501611c47565b91505092915050565b5f7fff0000000000000000000000000000000000000000000000000000000000000082169050919050565b611e6681611e32565b82525050565b611e7581611c20565b82525050565b5f81519050919050565b5f82825260208201905092915050565b5f819050602082019050919050565b611ead81611c5b565b82525050565b5f611ebe8383611ea4565b60208301905092915050565b5f602082019050919050565b5f611ee082611e7b565b611eea8185611e85565b9350611ef583611e95565b805f5b83811015611f25578151611f0c8882611eb3565b9750611f1783611eca565b925050600181019050611ef8565b5085935050505092915050565b5f60e082019050611f455f83018a611e5d565b8181036020830152611f578189611ba5565b90508181036040830152611f6b8188611ba5565b9050611f7a6060830187611cff565b611f876080830186611e6c565b611f9460a0830185611db4565b81810360c0830152611fa68184611ed6565b905098975050505050505050565b5f602082019050611fc75f830184611e6c565b92915050565b611fd681611ccc565b8114611fe0575f80fd5b50565b5f81359050611ff181611fcd565b92915050565b5f806040838503121561200d5761200c611bfd565b5b5f61201a85828601611c47565b925050602061202b85828601611fe3565b9150509250929050565b61203e81611d77565b8114612048575f80fd5b50565b5f8135905061205981612035565b92915050565b61206881611dab565b8114612072575f80fd5b50565b5f813590506120838161205f565b92915050565b5f805f805f805f60e0888a0312156120a4576120a3611bfd565b5b5f6120b18a828b01611c47565b97505060206120c28a828b01611c47565b96505060406120d38a828b01611c7a565b95505060606120e48a828b01611c7a565b94505060806120f58a828b0161204b565b93505060a06121068a828b01612075565b92505060c06121178a828b01612075565b91505092959891949750929550565b5f806040838503121561213c5761213b611bfd565b5b5f61214985828601611c47565b925050602061215a85828601611c47565b9150509250929050565b7f4e487b71000000000000000000000000000000000000000000000000000000005f52602260045260245ffd5b5f60028204905060018216806121a857607f821691505b6020821081036121bb576121ba612164565b5b50919050565b7f5661756c7458546f6b656e3a206e6f742061206d696e746572000000000000005f82015250565b5f6121f5601983611b77565b9150612200826121c1565b602082019050919050565b5f6020820190508181035f830152612222816121e9565b9050919050565b7f4e487b71000000000000000000000000000000000000000000000000000000005f52601160045260245ffd5b5f61226082611c5b565b915061226b83611c5b565b925082820190508082111561228357612282612229565b5b92915050565b7f5661756c7458546f6b656e3a206d617820737570706c792065786365656465645f82015250565b5f6122bd602083611b77565b91506122c882612289565b602082019050919050565b5f6020820190508181035f8301526122ea816122b1565b9050919050565b7f4e487b71000000000000000000000000000000000000000000000000000000005f52604160045260245ffd5b5f60c0820190506123315f830189611db4565b61233e6020830188611e6c565b61234b6040830187611e6c565b6123586060830186611cff565b6123656080830185611cff565b61237260a0830184611cff565b979650505050505050565b5f6040820190506123905f830185611e6c565b61239d6020830184611e6c565b9392505050565b5f6060820190506123b75f830186611e6c565b6123c46020830185611cff565b6123d16040830184611cff565b949350505050565b5f60a0820190506123ec5f830188611db4565b6123f96020830187611db4565b6124066040830186611db4565b6124136060830185611cff565b6124206080830184611e6c565b9695505050505050565b5f60808201905061243d5f830187611db4565b61244a6020830186611d83565b6124576040830185611db4565b6124646060830184611db4565b95945050505050565b7f4e487b71000000000000000000000000000000000000000000000000000000005f52602160045260245ffdfea2646970667358221220108a8ab4eb9fa8ee71ed4f8bee2b9b45ed271d7061e02dce50e12fd033b5f97764736f6c634300081a0033",
  "linkReferences": {},
  "deployedLinkReferences": {}
}