{
  "_format": "hh-sol-artifact-1",
  "contractName": "VaultXStaking",
  "sourceName": "contracts/VaultXStaking.sol",
  "abi": [
    {
      "inputs": [
        {
          "internalType": "address",
          "name": "_token",
          "type": "address"
        },
        {
          "internalType": "address",
          "name": "_treasury",
          "type": "address"
        },
        {
          "internalType": "address",
          "name": "_owner",
          "type": "address"
        }
      ],
      "stateMutability": "nonpayable",
      "type": "constructor"
    },
    {
      "inputs": [],
      "name": "EnforcedPause",
      "type": "error"
    },
    {
      "inputs": [],
      "name": "ExpectedPause",
      "type": "error"
    },
    {
      "inputs": [
        {
          "internalType": "address",
          "name": "owner",
          "type": "address"
        }
      ],
      "name": "OwnableInvalidOwner",
      "type": "error"
    },
    {
      "inputs": [
        {
          "internalType": "address",
          "name": "account",
          "type": "address"
        }
      ],
      "name": "OwnableUnauthorizedAccount",
      "type": "error"
    },
    {
      "inputs": [],
      "name": "ReentrancyGuardReentrantCall",
      "type": "error"
    },
    {
      "anonymous": false,
      "inputs": [
        {
          "indexed": false,
          "internalType": "uint256",
          "name": "newApyBps",
          "type": "uint256"
        }
      ],
      "name": "BaseApyUpdated",
      "type": "event"
    },
    {
      "anonymous": false,
      "inputs": [
        {
          "indexed": false,
          "internalType": "uint256",
          "name": "newValue",
          "type": "uint256"
        }
      ],
      "name": "BlocksPerYearUpdated",
      "type": "event"
    },
    {
      "anonymous": false,
      "inputs": [
        {
          "indexed": true,
          "internalType": "address",
          "name": "previousOwner",
          "type": "address"
        },
        {
          "indexed": true,
          "internalType": "address",
          "name": "newOwner",
          "type": "address"
        }
      ],
      "name": "OwnershipTransferred",
      "type": "event"
    },
    {
      "anonymous": false,
      "inputs": [
        {
          "indexed": false,
          "internalType": "address",
          "name": "account",
          "type": "address"
        }
      ],
      "name": "Paused",
      "type": "event"
    },
    {
      "anonymous": false,
      "inputs": [
        {
          "indexed": true,
          "internalType": "address",
          "name": "user",
          "type": "address"
        },
        {
          "indexed": true,
          "internalType": "uint256",
          "name": "positionId",
          "type": "uint256"
        },
        {
          "indexed": false,
          "internalType": "uint256",
          "name": "amount",
          "type": "uint256"
        }
      ],
      "name": "RewardsClaimed",
      "type": "event"
    },
    {
      "anonymous": false,
      "inputs": [
        {
          "indexed": true,
          "internalType": "address",
          "name": "user",
          "type": "address"
        },
        {
          "indexed": true,
          "internalType": "uint256",
          "name": "positionId",
          "type": "uint256"
        },
        {
          "indexed": false,
          "internalType": "uint256",
          "name": "amount",
          "type": "uint256"
        },
        {
          "indexed": false,
          "internalType": "enum VaultXStaking.Tier",
          "name": "tier",
          "type": "uint8"
        },
        {
          "indexed": false,
          "internalType": "uint256",
          "name": "lockUntil",
          "type": "uint256"
        }
      ],
      "name": "Staked",
      "type": "event"
    },
    {
      "anonymous": false,
      "inputs": [
        {
          "indexed": true,
          "internalType": "address",
          "name": "newTreasury",
          "type": "address"
        }
      ],
      "name": "TreasuryUpdated",
      "type": "event"
    },
    {
      "anonymous": false,
      "inputs": [
        {
          "indexed": false,
          "internalType": "address",
          "name": "account",
          "type": "address"
        }
      ],
      "name": "Unpaused",
      "type": "event"
    },
    {
      "anonymous": false,
      "inputs": [
        {
          "indexed": true,
          "internalType": "address",
          "name": "user",
          "type": "address"
        },
        {
          "indexed": true,
          "internalType": "uint256",
          "name": "positionId",
          "type": "uint256"
        },
        {
          "indexed": false,
          "internalType": "uint256",
          "name": "amount",
          "type": "uint256"
        },
        {
          "indexed": false,
          "internalType": "uint256",
          "name": "penalty",
          "type": "uint256"
        },
        {
          "indexed": false,
          "internalType": "bool",
          "name": "earlyExit",
          "type": "bool"
        }
      ],
      "name": "Unstaked",
      "type": "event"
    },
    {
      "inputs": [],
      "name": "BPS_DENOMINATOR",
      "outputs": [
        {
          "internalType": "uint256",
          "name": "",
          "type": "uint256"
        }
      ],
      "stateMutability": "view",
      "type": "function"
    },
    {
      "inputs": [],
      "name": "EARLY_EXIT_PENALTY_BPS",
      "outputs": [
        {
          "internalType": "uint256",
          "name": "",
          "type": "uint256"
        }
      ],
      "stateMutability": "view",
      "type": "function"
    },
    {
      "inputs": [],
      "name": "PRECISION",
      "outputs": [
        {
          "internalType": "uint256",
          "name": "",
          "type": "uint256"
        }
      ],
      "stateMutability": "view",
      "type": "function"
    },
    {
      "inputs": [],
      "name": "accRewardPerToken",
      "outputs": [
        {
          "internalType": "uint256",
          "name": "",
          "type": "uint256"
        }
      ],
      "stateMutability": "view",
      "type": "function"
    },
    {
      "inputs": [],
      "name": "baseApyBps",
      "outputs": [
        {
          "internalType": "uint256",
          "name": "",
          "type": "uint256"
        }
      ],
      "stateMutability": "view",
      "type": "function"
    },
    {
      "inputs": [],
      "name": "blocksPerYear",
      "outputs": [
        {
          "internalType": "uint256",
          "name": "",
          "type": "uint256"
        }
      ],
      "stateMutability": "view",
      "type": "function"
    },
    {
      "inputs": [],
      "name": "claimAllRewards",
      "outputs": [],
      "stateMutability": "nonpayable",
      "type": "function"
    },
    {
      "inputs": [
        {
          "internalType": "uint256",
          "name": "positionId",
          "type": "uint256"
        }
      ],
      "name": "claimRewards",
      "outputs": [],
      "stateMutability": "nonpayable",
      "type": "function"
    },
    {
      "inputs": [
        {
          "internalType": "enum VaultXStaking.Tier",
          "name": "tier",
          "type": "uint8"
        }
      ],
      "name": "effectiveApyBps",
      "outputs": [
        {
          "internalType": "uint256",
          "name": "",
          "type": "uint256"
        }
      ],
      "stateMutability": "view",
      "type": "function"
    },
    {
      "inputs": [
        {
          "internalType": "address",
          "name": "wallet",
          "type": "address"
        }
      ],
      "name": "getWalletPositions",
      "outputs": [
        {
          "internalType": "uint256[]",
          "name": "ids",
          "type": "uint256[]"
        },
        {
          "components": [
            {
              "internalType": "uint256",
              "name": "amount",
              "type": "uint256"
            },
            {
              "internalType": "uint256",
              "name": "rewardDebt",
              "type": "uint256"
            },
            {
              "internalType": "uint256",
              "name": "stakedAt",
              "type": "uint256"
            },
            {
              "internalType": "uint256",
              "name": "lockUntil",
              "type": "uint256"
            },
            {
              "internalType": "enum VaultXStaking.Tier",
              "name": "tier",
              "type": "uint8"
            },
            {
              "internalType": "bool",
              "name": "active",
              "type": "bool"
            }
          ],
          "internalType": "struct VaultXStaking.StakePosition[]",
          "name": "posArr",
          "type": "tuple[]"
        }
      ],
      "stateMutability": "view",
      "type": "function"
    },
    {
      "inputs": [],
      "name": "lastRewardBlock",
      "outputs": [
        {
          "internalType": "uint256",
          "name": "",
          "type": "uint256"
        }
      ],
      "stateMutability": "view",
      "type": "function"
    },
    {
      "inputs": [],
      "name": "owner",
      "outputs": [
        {
          "internalType": "address",
          "name": "",
          "type": "address"
        }
      ],
      "stateMutability": "view",
      "type": "function"
    },
    {
      "inputs": [],
      "name": "pause",
      "outputs": [],
      "stateMutability": "nonpayable",
      "type": "function"
    },
    {
      "inputs": [],
      "name": "paused",
      "outputs": [
        {
          "internalType": "bool",
          "name": "",
          "type": "bool"
        }
      ],
      "stateMutability": "view",
      "type": "function"
    },
    {
      "inputs": [
        {
          "internalType": "uint256",
          "name": "positionId",
          "type": "uint256"
        }
      ],
      "name": "pendingRewards",
      "outputs": [
        {
          "internalType": "uint256",
          "name": "",
          "type": "uint256"
        }
      ],
      "stateMutability": "view",
      "type": "function"
    },
    {
      "inputs": [
        {
          "internalType": "uint256",
          "name": "",
          "type": "uint256"
        }
      ],
      "name": "positionOwner",
      "outputs": [
        {
          "internalType": "address",
          "name": "",
          "type": "address"
        }
      ],
      "stateMutability": "view",
      "type": "function"
    },
    {
      "inputs": [
        {
          "internalType": "uint256",
          "name": "",
          "type": "uint256"
        }
      ],
      "name": "positions",
      "outputs": [
        {
          "internalType": "uint256",
          "name": "amount",
          "type": "uint256"
        },
        {
          "internalType": "uint256",
          "name": "rewardDebt",
          "type": "uint256"
        },
        {
          "internalType": "uint256",
          "name": "stakedAt",
          "type": "uint256"
        },
        {
          "internalType": "uint256",
          "name": "lockUntil",
          "type": "uint256"
        },
        {
          "internalType": "enum VaultXStaking.Tier",
          "name": "tier",
          "type": "uint8"
        },
        {
          "internalType": "bool",
          "name": "active",
          "type": "bool"
        }
      ],
      "stateMutability": "view",
      "type": "function"
    },
    {
      "inputs": [],
      "name": "renounceOwnership",
      "outputs": [],
      "stateMutability": "nonpayable",
      "type": "function"
    },
    {
      "inputs": [
        {
          "internalType": "uint256",
          "name": "apyBps",
          "type": "uint256"
        }
      ],
      "name": "setBaseApy",
      "outputs": [],
      "stateMutability": "nonpayable",
      "type": "function"
    },
    {
      "inputs": [
        {
          "internalType": "uint256",
          "name": "bpy",
          "type": "uint256"
        }
      ],
      "name": "setBlocksPerYear",
      "outputs": [],
      "stateMutability": "nonpayable",
      "type": "function"
    },
    {
      "inputs": [
        {
          "internalType": "enum VaultXStaking.Tier",
          "name": "tier",
          "type": "uint8"
        },
        {
          "internalType": "uint256",
          "name": "minStake",
          "type": "uint256"
        }
      ],
      "name": "setTierMinStake",
      "outputs": [],
      "stateMutability": "nonpayable",
      "type": "function"
    },
    {
      "inputs": [
        {
          "internalType": "address",
          "name": "newTreasury",
          "type": "address"
        }
      ],
      "name": "setTreasury",
      "outputs": [],
      "stateMutability": "nonpayable",
      "type": "function"
    },
    {
      "inputs": [
        {
          "internalType": "uint256",
          "name": "amount",
          "type": "uint256"
        },
        {
          "internalType": "enum VaultXStaking.Tier",
          "name": "tier",
          "type": "uint8"
        }
      ],
      "name": "stake",
      "outputs": [
        {
          "internalType": "uint256",
          "name": "positionId",
          "type": "uint256"
        }
      ],
      "stateMutability": "nonpayable",
      "type": "function"
    },
    {
      "inputs": [
        {
          "internalType": "uint256",
          "name": "",
          "type": "uint256"
        }
      ],
      "name": "tiers",
      "outputs": [
        {
          "internalType": "uint256",
          "name": "lockDuration",
          "type": "uint256"
        },
        {
          "internalType": "uint256",
          "name": "multiplierBps",
          "type": "uint256"
        },
        {
          "internalType": "uint256",
          "name": "minStake",
          "type": "uint256"
        }
      ],
      "stateMutability": "view",
      "type": "function"
    },
    {
      "inputs": [],
      "name": "token",
      "outputs": [
        {
          "internalType": "contract VaultXToken",
          "name": "",
          "type": "address"
        }
      ],
      "stateMutability": "view",
      "type": "function"
    },
    {
      "inputs": [
        {
          "internalType": "address",
          "name": "wallet",
          "type": "address"
        }
      ],
      "name": "totalPendingRewards",
      "outputs": [
        {
          "internalType": "uint256",
          "name": "total",
          "type": "uint256"
        }
      ],
      "stateMutability": "view",
      "type": "function"
    },
    {
      "inputs": [],
      "name": "totalRewardsPaid",
      "outputs": [
        {
          "internalType": "uint256",
          "name": "",
          "type": "uint256"
        }
      ],
      "stateMutability": "view",
      "type": "function"
    },
    {
      "inputs": [],
      "name": "totalStaked",
      "outputs": [
        {
          "internalType": "uint256",
          "name": "",
          "type": "uint256"
        }
      ],
      "stateMutability": "view",
      "type": "function"
    },
    {
      "inputs": [
        {
          "internalType": "address",
          "name": "newOwner",
          "type": "address"
        }
      ],
      "name": "transferOwnership",
      "outputs": [],
      "stateMutability": "nonpayable",
      "type": "function"
    },
    {
      "inputs": [],
      "name": "treasury",
      "outputs": [
        {
          "internalType": "address",
          "name": "",
          "type": "address"
        }
      ],
      "stateMutability": "view",
      "type": "function"
    },
    {
      "inputs": [],
      "name": "unpause",
      "outputs": [],
      "stateMutability": "nonpayable",
      "type": "function"
    },
    {
      "inputs": [
        {
          "internalType": "uint256",
          "name": "positionId",
          "type": "uint256"
        }
      ],
      "name": "unstake",
      "outputs": [],
      "stateMutability": "nonpayable",
      "type": "function"
    },
    {
      "inputs": [
        {
          "internalType": "address",
          "name": "",
          "type": "address"
        },
        {
          "internalType": "uint256",
          "name": "",
          "type": "uint256"
        }
      ],
      "name": "walletPositionIds",
      "outputs": [
        {
          "internalType": "uint256",
          "name": "",
          "type": "uint256"
        }
      ],
      "stateMutability": "view",
      "type": "function"
    }
  ],
  "bytecode": "0x60a06040526107d0600b55622819a0600c556001601155348015610021575f80fd5b50604051611e48380380611e488339810160408190526100409161026d565b806001600160a01b03811661006f57604051631e4fbdf760e01b81525f60048201526024015b60405180910390fd5b61007881610203565b5060017f9b779b17422d0df92223018b32b4d1fa46e071723d6817e2486d003becc55f00556001600160a01b0383166100f35760405162461bcd60e51b815260206004820152601960248201527f5661756c74585374616b696e673a207a65726f20746f6b656e000000000000006044820152606401610066565b6001600160a01b0382166101495760405162461bcd60e51b815260206004820152601c60248201527f5661756c74585374616b696e673a207a65726f207472656173757279000000006044820152606401610066565b506001600160a01b03918216608052600180546001600160a01b0319169190921617905543600e55604080516060808201835262278d00808352612710602080850182905268056bc75e2d631000009486018590526002929092556003556004839055835180830185526276a700808252613a9882840181905291860185905260055560065560078390558351918201845262ed4e00808352614e2091830182905291909301829052600855600991909155600a556102ad565b5f80546001600160a01b038381166001600160a01b0319831681178455604051919092169283917f8be0079c531659141344cd1fd0a4f28419497f9722a3daafe3b4186f6b6457e09190a35050565b80516001600160a01b0381168114610268575f80fd5b919050565b5f805f6060848603121561027f575f80fd5b61028884610252565b925061029660208501610252565b91506102a460408501610252565b90509250925092565b608051611b676102e15f395f8181610493015281816108cb01528181610c6401528181610d24015261158b0152611b675ff3fe608060405234801561000f575f80fd5b50600436106101f2575f3560e01c806387a0953511610114578063b3060d36116100a9578063e5fa2b7011610079578063e5fa2b701461044c578063edb459a91461045f578063f0f4426014610468578063f2fde38b1461047b578063fc0c546a1461048e575f80fd5b8063b3060d36146103ff578063cbce44b414610427578063e1a4521814610430578063e5ae224014610439575f80fd5b80639b427368116100e45780639b427368146103cb578063a385fb96146103de578063a9f8d181146103e7578063aaf5eb68146103f0575f80fd5b806387a095351461032d5780638d8a69a3146103405780638da5cb5b1461036157806399fbab8814610371575f80fd5b80635c975abb1161018a57806376ab4a0b1161015a57806376ab4a0b146102f65780637dcb2abf14610309578063817b1cd21461031c5780638456cb5914610325575f80fd5b80635c975abb1461029e57806361d027b3146102ba578063715018a6146102e557806374958e35146102ed575f80fd5b80632e17de78116101c55780632e17de78146102675780633f4ba83a1461027a5780635b6dfd63146102825780635c82a11214610295575f80fd5b8063039af9eb146101f65780630962ef79146102295780630b83a7271461023e57806310087fb114610246575b5f80fd5b610209610204366004611809565b6104b5565b604080519384526020840192909252908201526060015b60405180910390f35b61023c610237366004611809565b6104db565b005b61023c610675565b610259610254366004611833565b61080e565b604051908152602001610220565b61023c610275366004611809565b610ae0565b61023c610df8565b610259610290366004611873565b610e08565b6102596103e881565b5f54600160a01b900460ff166040519015158152602001610220565b6001546102cd906001600160a01b031681565b6040516001600160a01b039091168152602001610220565b61023c610f22565b61025960105481565b610259610304366004611893565b610f33565b610259610317366004611809565b610f7d565b610259600f5481565b61023c610f87565b61025961033b3660046118ac565b610f97565b61035361034e366004611873565b610fc2565b604051610220929190611908565b5f546001600160a01b03166102cd565b6103b961037f366004611809565b60136020525f9081526040902080546001820154600283015460038401546004909401549293919290919060ff8082169161010090041686565b604051610220969594939291906119ca565b61023c6103d9366004611809565b61116e565b610259600c5481565b610259600e5481565b610259670de0b6b3a764000081565b6102cd61040d366004611809565b60146020525f90815260409020546001600160a01b031681565b610259600d5481565b61025961271081565b61023c610447366004611a06565b611211565b61023c61045a366004611809565b611250565b610259600b5481565b61023c610476366004611873565b6112da565b61023c610489366004611873565b611381565b6102cd7f000000000000000000000000000000000000000000000000000000000000000081565b600281600381106104c4575f80fd5b600302018054600182015460029092015490925083565b6104e36113bb565b6104eb6113d6565b5f818152601460205260409020546001600160a01b031633146105505760405162461bcd60e51b81526020600482015260186024820152772b30bab63a2c29ba30b5b4b7339d103737ba1037bbb732b960411b60448201526064015b60405180910390fd5b5f8181526013602052604090206004810154610100900460ff166105b25760405162461bcd60e51b81526020600482015260196024820152785661756c74585374616b696e673a206e6f742061637469766560381b6044820152606401610547565b6105ba611400565b5f6105c483611484565b90505f81116106115760405162461bcd60e51b81526020600482015260196024820152785661756c74585374616b696e673a206e6f207265776172647360381b6044820152606401610547565b600d546001830155610623338261154f565b604051818152839033907fdacbdde355ba930696a362ea6738feb9f8bd52dfb3d81947558fd3217e23e3259060200160405180910390a3505061067260015f80516020611b1283398151915255565b50565b61067d6113bb565b6106856113d6565b61068d611400565b335f90815260126020526040812090805b825481101561079e575f60135f8584815481106106bd576106bd611a20565b905f5260205f20015481526020019081526020015f2090508060040160019054906101000a900460ff166106f15750610796565b5f61071585848154811061070757610707611a20565b905f5260205f200154611484565b90508015610793576107278185611a48565b9350600d54826001018190555084838154811061074657610746611a20565b905f5260205f200154336001600160a01b03167fdacbdde355ba930696a362ea6738feb9f8bd52dfb3d81947558fd3217e23e3258360405161078a91815260200190565b60405180910390a35b50505b60010161069e565b505f81116107ea5760405162461bcd60e51b81526020600482015260196024820152785661756c74585374616b696e673a206e6f207265776172647360381b6044820152606401610547565b6107f4338261154f565b505061080c60015f80516020611b1283398151915255565b565b5f6108176113bb565b61081f6113d6565b5f6002836002811115610834576108346118d4565b60ff166003811061084757610847611a20565b60030201905080600201548410156108a15760405162461bcd60e51b815260206004820152601e60248201527f5661756c74585374616b696e673a2062656c6f77206d696e207374616b6500006044820152606401610547565b6108a9611400565b6040516323b872dd60e01b8152336004820152306024820152604481018590527f00000000000000000000000000000000000000000000000000000000000000006001600160a01b0316906323b872dd906064016020604051808303815f875af1158015610919573d5f803e3d5ffd5b505050506040513d601f19601f8201168201806040525081019061093d9190611a5b565b5083600f5f82825461094f9190611a48565b909155505060118054905f61096383611a7a565b9190505591506040518060c00160405280858152602001600d548152602001428152602001825f0154426109979190611a48565b81526020018460028111156109ae576109ae6118d4565b8152600160209182018190525f858152601383526040908190208451815592840151838301558301516002808401919091556060840151600384015560808401516004840180549193909260ff19909216918490811115610a1157610a116118d4565b021790555060a09190910151600490910180549115156101000261ff00199092169190911790555f82815260146020908152604080832080546001600160a01b031916339081179091558084526012835281842080546001810182559085528385200186905585845260139092529182902060030154915184927fcc10169be2ad544347561e230939849af48d1714c052d7fe247d12f3decb489691610abb918991899190611a92565b60405180910390a350610ada60015f80516020611b1283398151915255565b92915050565b610ae86113bb565b610af06113d6565b5f818152601460205260409020546001600160a01b03163314610b505760405162461bcd60e51b81526020600482015260186024820152772b30bab63a2c29ba30b5b4b7339d103737ba1037bbb732b960411b6044820152606401610547565b5f8181526013602052604090206004810154610100900460ff16610bb25760405162461bcd60e51b81526020600482015260196024820152785661756c74585374616b696e673a206e6f742061637469766560381b6044820152606401610547565b610bba611400565b5f610bc483611484565b90508015610c0e57610bd6338261154f565b604051818152839033907fdacbdde355ba930696a362ea6738feb9f8bd52dfb3d81947558fd3217e23e3259060200160405180910390a35b815460038301545f9042108015610cd057612710610c2e6103e885611ab4565b610c389190611acb565b60015460405163a9059cbb60e01b81526001600160a01b039182166004820152602481018390529193507f0000000000000000000000000000000000000000000000000000000000000000169063a9059cbb906044016020604051808303815f875af1158015610caa573d5f803e3d5ffd5b505050506040513d601f19601f82011682018060405250810190610cce9190611a5b565b505b5f610cdb8385611aea565b60048701805461ff00191690555f808855600f80549293508692909190610d03908490611aea565b909155505060405163a9059cbb60e01b8152336004820152602481018290527f00000000000000000000000000000000000000000000000000000000000000006001600160a01b03169063a9059cbb906044016020604051808303815f875af1158015610d72573d5f803e3d5ffd5b505050506040513d601f19601f82011682018060405250810190610d969190611a5b565b506040805182815260208101859052831515818301529051889133917fff8341777cba9e68275b3e441d3ba589282bbb8edac388b719995cca2d81b1e69181900360600190a350505050505061067260015f80516020611b1283398151915255565b610e006115e6565b61080c611612565b6001600160a01b0381165f90815260126020526040812081610e28611666565b90505f5b8254811015610f1a575f60135f858481548110610e4b57610e4b611a20565b905f5260205f20015481526020019081526020015f2090508060040160019054906101000a900460ff16610e7f5750610f12565b60048101545f9060029060ff1681811115610e9c57610e9c6118d4565b60ff1660038110610eaf57610eaf611a20565b600302016001015490505f670de0b6b3a7640000836001015486610ed39190611aea565b8454610edf9190611ab4565b610ee99190611acb565b9050612710610ef88383611ab4565b610f029190611acb565b610f0c9088611a48565b96505050505b600101610e2c565b505050919050565b610f2a6115e6565b61080c5f6116df565b5f6127106002836002811115610f4b57610f4b6118d4565b60ff1660038110610f5e57610f5e611a20565b6003020160010154600b54610f739190611ab4565b610ada9190611acb565b5f610ada82611484565b610f8f6115e6565b61080c61172e565b6012602052815f5260405f208181548110610fb0575f80fd5b905f5260205f20015f91509150505481565b60608060125f846001600160a01b03166001600160a01b031681526020019081526020015f2080548060200260200160405190810160405280929190818152602001828054801561103057602002820191905f5260205f20905b81548152602001906001019080831161101c575b50505050509150815167ffffffffffffffff81111561105157611051611afd565b60405190808252806020026020018201604052801561108a57816020015b6110776117c8565b81526020019060019003908161106f5790505b5090505f5b82518110156111685760135f8483815181106110ad576110ad611a20565b602002602001015181526020019081526020015f206040518060c00160405290815f8201548152602001600182015481526020016002820154815260200160038201548152602001600482015f9054906101000a900460ff166002811115611117576111176118d4565b6002811115611128576111286118d4565b815260049190910154610100900460ff161515602090910152825183908390811061115557611155611a20565b602090810291909101015260010161108f565b50915091565b6111766115e6565b5f811180156111885750620186a08111155b6111cd5760405162461bcd60e51b81526020600482015260166024820152755661756c74585374616b696e673a206261642041505960501b6044820152606401610547565b6111d5611400565b600b8190556040518181527fc3c8b505ae61941a9dac6c0a93a5de68df75ca6b3c33c33823a6b9c2ab856e7f906020015b60405180910390a150565b6112196115e6565b80600283600281111561122e5761122e6118d4565b60ff166003811061124157611241611a20565b60030201600201819055505050565b6112586115e6565b5f811161129d5760405162461bcd60e51b81526020600482015260136024820152725661756c74585374616b696e673a207a65726f60681b6044820152606401610547565b6112a5611400565b600c8190556040518181527f5017084af84f6329465a2e3f1a0eeb7f9926bf4b1550e9f3ec79572a6c8223ea90602001611206565b6112e26115e6565b6001600160a01b0381166113385760405162461bcd60e51b815260206004820152601b60248201527f5661756c74585374616b696e673a207a65726f206164647265737300000000006044820152606401610547565b600180546001600160a01b0319166001600160a01b0383169081179091556040517f7dae230f18360d76a040c81f050aa14eb9d6dc7901b20fc5d855e2a20fe814d1905f90a250565b6113896115e6565b6001600160a01b0381166113b257604051631e4fbdf760e01b81525f6004820152602401610547565b610672816116df565b6113c3611770565b60025f80516020611b1283398151915255565b5f54600160a01b900460ff161561080c5760405163d93c066560e01b815260040160405180910390fd5b600f545f0361140f5743600e55565b5f600e544361141e9190611aea565b9050805f0361142a5750565b5f600c5461271061143b9190611ab4565b670de0b6b3a7640000600b546114519190611ab4565b61145b9190611acb565b90506114678282611ab4565b600d5f8282546114779190611a48565b909155505043600e555050565b5f8181526013602052604081206004810154610100900460ff1615806114a957508054155b156114b657505f92915050565b5f6114bf611666565b60048301549091505f9060029060ff16818111156114df576114df6118d4565b60ff16600381106114f2576114f2611a20565b600302016001015490505f670de0b6b3a76400008460010154846115169190611aea565b85546115229190611ab4565b61152c9190611acb565b905061271061153b8383611ab4565b6115459190611acb565b9695505050505050565b8060105f8282546115609190611a48565b90915550506040516340c10f1960e01b81526001600160a01b038381166004830152602482018390527f000000000000000000000000000000000000000000000000000000000000000016906340c10f19906044015f604051808303815f87803b1580156115cc575f80fd5b505af11580156115de573d5f803e3d5ffd5b505050505050565b5f546001600160a01b0316331461080c5760405163118cdaa760e01b8152336004820152602401610547565b61161a61179f565b5f805460ff60a01b191690557f5db9ee0a495bf2e6ff9c91a7834c1ba4fdd244a5e8aa4e537bd38aeae4b073aa335b6040516001600160a01b03909116815260200160405180910390a1565b600d54600f545f036116755790565b5f600e54436116849190611aea565b9050805f03611691575090565b5f600c546127106116a29190611ab4565b670de0b6b3a7640000600b546116b89190611ab4565b6116c29190611acb565b90506116ce8282611ab4565b6116d89084611a48565b9250505090565b5f80546001600160a01b038381166001600160a01b0319831681178455604051919092169283917f8be0079c531659141344cd1fd0a4f28419497f9722a3daafe3b4186f6b6457e09190a35050565b6117366113d6565b5f805460ff60a01b1916600160a01b1790557f62e78cea01bee320cd4e420270b5ea74000d11b0c9f74754ebdbfc544b05a2586116493390565b5f80516020611b128339815191525460020361080c57604051633ee5aeb560e01b815260040160405180910390fd5b5f54600160a01b900460ff1661080c57604051638dfc202b60e01b815260040160405180910390fd5b6040518060c001604052805f81526020015f81526020015f81526020015f81526020015f60028111156117fd576117fd6118d4565b81525f60209091015290565b5f60208284031215611819575f80fd5b5035919050565b80356003811061182e575f80fd5b919050565b5f8060408385031215611844575f80fd5b8235915061185460208401611820565b90509250929050565b80356001600160a01b038116811461182e575f80fd5b5f60208284031215611883575f80fd5b61188c8261185d565b9392505050565b5f602082840312156118a3575f80fd5b61188c82611820565b5f80604083850312156118bd575f80fd5b6118c68361185d565b946020939093013593505050565b634e487b7160e01b5f52602160045260245ffd5b6003811061190457634e487b7160e01b5f52602160045260245ffd5b9052565b604080825283519082018190525f9060208501906060840190835b81811015611941578351835260209384019390920191600101611923565b5050838103602080860191909152855180835291810192508501905f5b818110156119be57825180518552602081015160208601526040810151604086015260608101516060860152608081015161199c60808701826118e8565b5060a09081015115159085015260c0909301926020929092019160010161195e565b50919695505050505050565b5f60c0820190508782528660208301528560408301528460608301526119f360808301856118e8565b82151560a0830152979650505050505050565b5f8060408385031215611a17575f80fd5b6118c683611820565b634e487b7160e01b5f52603260045260245ffd5b634e487b7160e01b5f52601160045260245ffd5b80820180821115610ada57610ada611a34565b5f60208284031215611a6b575f80fd5b8151801515811461188c575f80fd5b5f60018201611a8b57611a8b611a34565b5060010190565b83815260608101611aa660208301856118e8565b826040830152949350505050565b8082028115828204841417610ada57610ada611a34565b5f82611ae557634e487b7160e01b5f52601260045260245ffd5b500490565b81810381811115610ada57610ada611a34565b634e487b7160e01b5f52604160045260245ffdfe9b779b17422d0df92223018b32b4d1fa46e071723d6817e2486d003becc55f00a2646970667358221220e4e62d179c04b1bf43f40fe6294e94952b2b628f4368b035b70e9353e1103fa764736f6c634300081a0033",
  "linkReferences": {},
  "deployedLinkReferences": {}
}