{
  "_format": "hh-sol-artifact-1",
  "contractName": "VaultXStaking",
  "sourceName": "contracts/VaultXStaking.sol",
  "abi": [
    {
      "inputs": [
        {
          "internalType": "address",
          "name": "_token",
          "type": "address"
        },
        {
          "internalType": "address",
          "name": "_treasury",
          "type": "address"
        },
        {
          "internalType": "address",
          "name": "_owner",
          "type": "address"
        }
      ],
      "stateMutability": "nonpayable",
      "type": "constructor"
    },
    {
      "inputs": [],
      "name": "EnforcedPause",
      "type": "error"
    },
    {
      "inputs": [],
      "name": "ExpectedPause",
      "type": "error"
    },
    {
      "inputs": [
        {
          "internalType": "address",
          "name": "owner",
          "type": "address"
        }
      ],
      "name": "OwnableInvalidOwner",
      "type": "error"
    },
    {
      "inputs": [
        {
          "internalType": "address",
          "name": "account",
          "type": "address"
        }
      ],
      "name": "OwnableUnauthorizedAccount",
      "type": "error"
    },
    {
      "inputs": [],
      "name": "ReentrancyGuardReentrantCall",
      "type": "error"
    },
    {
      "anonymous": false,
      "inputs": [
        {
          "indexed": false,
          "internalType": "uint256",
          "name": "newApyBps",
          "type": "uint256"
        }
      ],
      "name": "BaseApyUpdated",
      "type": "event"
    },
    {
      "anonymous": false,
      "inputs": [
        {
          "indexed": false,
          "internalType": "uint256",
          "name": "newValue",
          "type": "uint256"
        }
      ],
      "name": "BlocksPerYearUpdated",
      "type": "event"
    },
    {
      "anonymous": false,
      "inputs": [
        {
          "indexed": true,
          "internalType": "address",
          "name": "previousOwner",
          "type": "address"
        },
        {
          "indexed": true,
          "internalType": "address",
          "name": "newOwner",
          "type": "address"
        }
      ],
      "name": "OwnershipTransferred",
      "type": "event"
    },
    {
      "anonymous": false,
      "inputs": [
        {
          "indexed": false,
          "internalType": "address",
          "name": "account",
          "type": "address"
        }
      ],
      "name": "Paused",
      "type": "event"
    },
    {
      "anonymous": false,
      "inputs": [
        {
          "indexed": true,
          "internalType": "address",
          "name": "user",
          "type": "address"
        },
        {
          "indexed": true,
          "internalType": "uint256",
          "name": "positionId",
          "type": "uint256"
        },
        {
          "indexed": false,
          "internalType": "uint256",
          "name": "amount",
          "type": "uint256"
        }
      ],
      "name": "RewardsClaimed",
      "type": "event"
    },
    {
      "anonymous": false,
      "inputs": [
        {
          "indexed": true,
          "internalType": "address",
          "name": "user",
          "type": "address"
        },
        {
          "indexed": true,
          "internalType": "uint256",
          "name": "positionId",
          "type": "uint256"
        },
        {
          "indexed": false,
          "internalType": "uint256",
          "name": "amount",
          "type": "uint256"
        },
        {
          "indexed": false,
          "internalType": "enum VaultXStaking.Tier",
          "name": "tier",
          "type": "uint8"
        },
        {
          "indexed": false,
          "internalType": "uint256",
          "name": "lockUntil",
          "type": "uint256"
        }
      ],
      "name": "Staked",
      "type": "event"
    },
    {
      "anonymous": false,
      "inputs": [
        {
          "indexed": true,
          "internalType": "address",
          "name": "newTreasury",
          "type": "address"
        }
      ],
      "name": "TreasuryUpdated",
      "type": "event"
    },
    {
      "anonymous": false,
      "inputs": [
        {
          "indexed": false,
          "internalType": "address",
          "name": "account",
          "type": "address"
        }
      ],
      "name": "Unpaused",
      "type": "event"
    },
    {
      "anonymous": false,
      "inputs": [
        {
          "indexed": true,
          "internalType": "address",
          "name": "user",
          "type": "address"
        },
        {
          "indexed": true,
          "internalType": "uint256",
          "name": "positionId",
          "type": "uint256"
        },
        {
          "indexed": false,
          "internalType": "uint256",
          "name": "amount",
          "type": "uint256"
        },
        {
          "indexed": false,
          "internalType": "uint256",
          "name": "penalty",
          "type": "uint256"
        },
        {
          "indexed": false,
          "internalType": "bool",
          "name": "earlyExit",
          "type": "bool"
        }
      ],
      "name": "Unstaked",
      "type": "event"
    },
    {
      "inputs": [],
      "name": "BPS_DENOMINATOR",
      "outputs": [
        {
          "internalType": "uint256",
          "name": "",
          "type": "uint256"
        }
      ],
      "stateMutability": "view",
      "type": "function"
    },
    {
      "inputs": [],
      "name": "EARLY_EXIT_PENALTY_BPS",
      "outputs": [
        {
          "internalType": "uint256",
          "name": "",
          "type": "uint256"
        }
      ],
      "stateMutability": "view",
      "type": "function"
    },
    {
      "inputs": [],
      "name": "PRECISION",
      "outputs": [
        {
          "internalType": "uint256",
          "name": "",
          "type": "uint256"
        }
      ],
      "stateMutability": "view",
      "type": "function"
    },
    {
      "inputs": [],
      "name": "accRewardPerToken",
      "outputs": [
        {
          "internalType": "uint256",
          "name": "",
          "type": "uint256"
        }
      ],
      "stateMutability": "view",
      "type": "function"
    },
    {
      "inputs": [],
      "name": "baseApyBps",
      "outputs": [
        {
          "internalType": "uint256",
          "name": "",
          "type": "uint256"
        }
      ],
      "stateMutability": "view",
      "type": "function"
    },
    {
      "inputs": [],
      "name": "blocksPerYear",
      "outputs": [
        {
          "internalType": "uint256",
          "name": "",
          "type": "uint256"
        }
      ],
      "stateMutability": "view",
      "type": "function"
    },
    {
      "inputs": [],
      "name": "claimAllRewards",
      "outputs": [],
      "stateMutability": "nonpayable",
      "type": "function"
    },
    {
      "inputs": [
        {
          "internalType": "uint256",
          "name": "positionId",
          "type": "uint256"
        }
      ],
      "name": "claimRewards",
      "outputs": [],
      "stateMutability": "nonpayable",
      "type": "function"
    },
    {
      "inputs": [
        {
          "internalType": "enum VaultXStaking.Tier",
          "name": "tier",
          "type": "uint8"
        }
      ],
      "name": "effectiveApyBps",
      "outputs": [
        {
          "internalType": "uint256",
          "name": "",
          "type": "uint256"
        }
      ],
      "stateMutability": "view",
      "type": "function"
    },
    {
      "inputs": [
        {
          "internalType": "address",
          "name": "wallet",
          "type": "address"
        }
      ],
      "name": "getWalletPositions",
      "outputs": [
        {
          "internalType": "uint256[]",
          "name": "ids",
          "type": "uint256[]"
        },
        {
          "components": [
            {
              "internalType": "uint256",
              "name": "amount",
              "type": "uint256"
            },
            {
              "internalType": "uint256",
              "name": "rewardDebt",
              "type": "uint256"
            },
            {
              "internalType": "uint256",
              "name": "stakedAt",
              "type": "uint256"
            },
            {
              "internalType": "uint256",
              "name": "lockUntil",
              "type": "uint256"
            },
            {
              "internalType": "enum VaultXStaking.Tier",
              "name": "tier",
              "type": "uint8"
            },
            {
              "internalType": "bool",
              "name": "active",
              "type": "bool"
            }
          ],
          "internalType": "struct VaultXStaking.StakePosition[]",
          "name": "posArr",
          "type": "tuple[]"
        }
      ],
      "stateMutability": "view",
      "type": "function"
    },
    {
      "inputs": [],
      "name": "lastRewardBlock",
      "outputs": [
        {
          "internalType": "uint256",
          "name": "",
          "type": "uint256"
        }
      ],
      "stateMutability": "view",
      "type": "function"
    },
    {
      "inputs": [],
      "name": "owner",
      "outputs": [
        {
          "internalType": "address",
          "name": "",
          "type": "address"
        }
      ],
      "stateMutability": "view",
      "type": "function"
    },
    {
      "inputs": [],
      "name": "pause",
      "outputs": [],
      "stateMutability": "nonpayable",
      "type": "function"
    },
    {
      "inputs": [],
      "name": "paused",
      "outputs": [
        {
          "internalType": "bool",
          "name": "",
          "type": "bool"
        }
      ],
      "stateMutability": "view",
      "type": "function"
    },
    {
      "inputs": [
        {
          "internalType": "uint256",
          "name": "positionId",
          "type": "uint256"
        }
      ],
      "name": "pendingRewards",
      "outputs": [
        {
          "internalType": "uint256",
          "name": "",
          "type": "uint256"
        }
      ],
      "stateMutability": "view",
      "type": "function"
    },
    {
      "inputs": [
        {
          "internalType": "uint256",
          "name": "",
          "type": "uint256"
        }
      ],
      "name": "positionOwner",
      "outputs": [
        {
          "internalType": "address",
          "name": "",
          "type": "address"
        }
      ],
      "stateMutability": "view",
      "type": "function"
    },
    {
      "inputs": [
        {
          "internalType": "uint256",
          "name": "",
          "type": "uint256"
        }
      ],
      "name": "positions",
      "outputs": [
        {
          "internalType": "uint256",
          "name": "amount",
          "type": "uint256"
        },
        {
          "internalType": "uint256",
          "name": "rewardDebt",
          "type": "uint256"
        },
        {
          "internalType": "uint256",
          "name": "stakedAt",
          "type": "uint256"
        },
        {
          "internalType": "uint256",
          "name": "lockUntil",
          "type": "uint256"
        },
        {
          "internalType": "enum VaultXStaking.Tier",
          "name": "tier",
          "type": "uint8"
        },
        {
          "internalType": "bool",
          "name": "active",
          "type": "bool"
        }
      ],
      "stateMutability": "view",
      "type": "function"
    },
    {
      "inputs": [],
      "name": "renounceOwnership",
      "outputs": [],
      "stateMutability": "nonpayable",
      "type": "function"
    },
    {
      "inputs": [
        {
          "internalType": "uint256",
          "name": "_apyBps",
          "type": "uint256"
        }
      ],
      "name": "setBaseApy",
      "outputs": [],
      "stateMutability": "nonpayable",
      "type": "function"
    },
    {
      "inputs": [
        {
          "internalType": "uint256",
          "name": "_bpy",
          "type": "uint256"
        }
      ],
      "name": "setBlocksPerYear",
      "outputs": [],
      "stateMutability": "nonpayable",
      "type": "function"
    },
    {
      "inputs": [
        {
          "internalType": "enum VaultXStaking.Tier",
          "name": "tier",
          "type": "uint8"
        },
        {
          "internalType": "uint256",
          "name": "minStake",
          "type": "uint256"
        }
      ],
      "name": "setTierMinStake",
      "outputs": [],
      "stateMutability": "nonpayable",
      "type": "function"
    },
    {
      "inputs": [
        {
          "internalType": "address",
          "name": "_treasury",
          "type": "address"
        }
      ],
      "name": "setTreasury",
      "outputs": [],
      "stateMutability": "nonpayable",
      "type": "function"
    },
    {
      "inputs": [
        {
          "internalType": "uint256",
          "name": "amount",
          "type": "uint256"
        },
        {
          "internalType": "enum VaultXStaking.Tier",
          "name": "tier",
          "type": "uint8"
        }
      ],
      "name": "stake",
      "outputs": [
        {
          "internalType": "uint256",
          "name": "positionId",
          "type": "uint256"
        }
      ],
      "stateMutability": "nonpayable",
      "type": "function"
    },
    {
      "inputs": [
        {
          "internalType": "uint256",
          "name": "",
          "type": "uint256"
        }
      ],
      "name": "tiers",
      "outputs": [
        {
          "internalType": "uint256",
          "name": "lockDuration",
          "type": "uint256"
        },
        {
          "internalType": "uint256",
          "name": "multiplierBps",
          "type": "uint256"
        },
        {
          "internalType": "uint256",
          "name": "minStake",
          "type": "uint256"
        }
      ],
      "stateMutability": "view",
      "type": "function"
    },
    {
      "inputs": [],
      "name": "token",
      "outputs": [
        {
          "internalType": "contract VaultXToken",
          "name": "",
          "type": "address"
        }
      ],
      "stateMutability": "view",
      "type": "function"
    },
    {
      "inputs": [
        {
          "internalType": "address",
          "name": "wallet",
          "type": "address"
        }
      ],
      "name": "totalPendingRewards",
      "outputs": [
        {
          "internalType": "uint256",
          "name": "total",
          "type": "uint256"
        }
      ],
      "stateMutability": "view",
      "type": "function"
    },
    {
      "inputs": [],
      "name": "totalRewardsPaid",
      "outputs": [
        {
          "internalType": "uint256",
          "name": "",
          "type": "uint256"
        }
      ],
      "stateMutability": "view",
      "type": "function"
    },
    {
      "inputs": [],
      "name": "totalStaked",
      "outputs": [
        {
          "internalType": "uint256",
          "name": "",
          "type": "uint256"
        }
      ],
      "stateMutability": "view",
      "type": "function"
    },
    {
      "inputs": [
        {
          "internalType": "address",
          "name": "newOwner",
          "type": "address"
        }
      ],
      "name": "transferOwnership",
      "outputs": [],
      "stateMutability": "nonpayable",
      "type": "function"
    },
    {
      "inputs": [],
      "name": "treasury",
      "outputs": [
        {
          "internalType": "address",
          "name": "",
          "type": "address"
        }
      ],
      "stateMutability": "view",
      "type": "function"
    },
    {
      "inputs": [],
      "name": "unpause",
      "outputs": [],
      "stateMutability": "nonpayable",
      "type": "function"
    },
    {
      "inputs": [
        {
          "internalType": "uint256",
          "name": "positionId",
          "type": "uint256"
        }
      ],
      "name": "unstake",
      "outputs": [],
      "stateMutability": "nonpayable",
      "type": "function"
    },
    {
      "inputs": [
        {
          "internalType": "address",
          "name": "",
          "type": "address"
        },
        {
          "internalType": "uint256",
          "name": "",
          "type": "uint256"
        }
      ],
      "name": "walletPositionIds",
      "outputs": [
        {
          "internalType": "uint256",
          "name": "",
          "type": "uint256"
        }
      ],
      "stateMutability": "view",
      "type": "function"
    }
  ],
  "bytecode": "0x60a06040526107d0600b55622819a0600c556001601155348015610021575f80fd5b506040516149523803806149528339818101604052810190610043919061067f565b805f73ffffffffffffffffffffffffffffffffffffffff168173ffffffffffffffffffffffffffffffffffffffff16036100b4575f6040517f1e4fbdf70000000000000000000000000000000000000000000000000000000081526004016100ab91906106de565b60405180910390fd5b6100c38161052b60201b60201c565b5060016100e26100d76105ec60201b60201c565b61061560201b60201c565b5f01819055506101026762701588cadaca4060c01b61061e60201b60201c565b61011c67e6ffd9e8ab1c50f160c01b61061e60201b60201c565b610136676936e1bfbcd24ac360c01b61061e60201b60201c565b610150678bbd90512160c69b60c01b61061e60201b60201c565b5f73ffffffffffffffffffffffffffffffffffffffff168373ffffffffffffffffffffffffffffffffffffffff16036101be576040517f08c379a00000000000000000000000000000000000000000000000000000000081526004016101b590610751565b60405180910390fd5b6101d8674735b65d0817312060c01b61061e60201b60201c565b6101f267ca50dd01679dcfe560c01b61061e60201b60201c565b61020c677d05188fc43ad16e60c01b61061e60201b60201c565b610226679d02ccd007102f2060c01b61061e60201b60201c565b5f73ffffffffffffffffffffffffffffffffffffffff168273ffffffffffffffffffffffffffffffffffffffff1603610294576040517f08c379a000000000000000000000000000000000000000000000000000000000815260040161028b906107b9565b60405180910390fd5b6102ae6796b595de3a7dddad60c01b61061e60201b60201c565b6102c86705748fe2af3a91c860c01b61061e60201b60201c565b8273ffffffffffffffffffffffffffffffffffffffff1660808173ffffffffffffffffffffffffffffffffffffffff1681525050610316673ca3ee003b617f4760c01b61061e60201b60201c565b8160015f6101000a81548173ffffffffffffffffffffffffffffffffffffffff021916908373ffffffffffffffffffffffffffffffffffffffff16021790555061037067abf87d1ad05e45dd60c01b61061e60201b60201c565b43600e81905550610391672eb6f37307cfc69660c01b61061e60201b60201c565b604051806060016040528062278d008152602001612710815260200168056bc75e2d6310000081525060025f60028111156103cf576103ce6107d7565b5b60ff16600381106103e3576103e2610804565b5b600302015f820151815f0155602082015181600101556040820151816002015590505061041f6621bd55e73dcb8b60c01b61061e60201b60201c565b60405180606001604052806276a7008152602001613a98815260200168056bc75e2d6310000081525060026001600281111561045e5761045d6107d7565b5b60ff166003811061047257610471610804565b5b600302015f820151815f015560208201518160010155604082015181600201559050506104af67cf4233259d1e600f60c01b61061e60201b60201c565b604051806060016040528062ed4e008152602001614e20815260200168056bc75e2d63100000815250600280808111156104ec576104eb6107d7565b5b60ff1660038110610500576104ff610804565b5b600302015f820151815f01556020820151816001015560408201518160020155905050505050610831565b5f805f9054906101000a900473ffffffffffffffffffffffffffffffffffffffff169050815f806101000a81548173ffffffffffffffffffffffffffffffffffffffff021916908373ffffffffffffffffffffffffffffffffffffffff1602179055508173ffffffffffffffffffffffffffffffffffffffff168173ffffffffffffffffffffffffffffffffffffffff167f8be0079c531659141344cd1fd0a4f28419497f9722a3daafe3b4186f6b6457e060405160405180910390a35050565b5f7f9b779b17422d0df92223018b32b4d1fa46e071723d6817e2486d003becc55f005f1b905090565b5f819050919050565b50565b5f80fd5b5f73ffffffffffffffffffffffffffffffffffffffff82169050919050565b5f61064e82610625565b9050919050565b61065e81610644565b8114610668575f80fd5b50565b5f8151905061067981610655565b92915050565b5f805f6060848603121561069657610695610621565b5b5f6106a38682870161066b565b93505060206106b48682870161066b565b92505060406106c58682870161066b565b9150509250925092565b6106d881610644565b82525050565b5f6020820190506106f15f8301846106cf565b92915050565b5f82825260208201905092915050565b7f5661756c74585374616b696e673a207a65726f20746f6b656e000000000000005f82015250565b5f61073b6019836106f7565b915061074682610707565b602082019050919050565b5f6020820190508181035f8301526107688161072f565b9050919050565b7f5661756c74585374616b696e673a207a65726f207472656173757279000000005f82015250565b5f6107a3601c836106f7565b91506107ae8261076f565b602082019050919050565b5f6020820190508181035f8301526107d081610797565b9050919050565b7f4e487b71000000000000000000000000000000000000000000000000000000005f52602160045260245ffd5b7f4e487b71000000000000000000000000000000000000000000000000000000005f52603260045260245ffd5b6080516140ed6108655f395f81816110ab015281816118e901528181611a97015281816129b90152612f1f01526140ed5ff3fe608060405234801561000f575f80fd5b50600436106101f9575f3560e01c806387a0953511610118578063b3060d36116100ab578063e5fa2b701161007a578063e5fa2b7014610597578063edb459a9146105b3578063f0f44260146105d1578063f2fde38b146105ed578063fc0c546a14610609576101f9565b8063b3060d361461050f578063cbce44b41461053f578063e1a452181461055d578063e5ae22401461057b576101f9565b80639b427368116100e75780639b42736814610499578063a385fb96146104b5578063a9f8d181146104d3578063aaf5eb68146104f1576101f9565b806387a09535146103e55780638d8a69a3146104155780638da5cb5b1461044657806399fbab8814610464576101f9565b80635c975abb1161019057806376ab4a0b1161015f57806376ab4a0b1461035d5780637dcb2abf1461038d578063817b1cd2146103bd5780638456cb59146103db576101f9565b80635c975abb146102f957806361d027b314610317578063715018a61461033557806374958e351461033f576101f9565b80632e17de78116101cc5780632e17de78146102855780633f4ba83a146102a15780635b6dfd63146102ab5780635c82a112146102db576101f9565b8063039af9eb146101fd5780630962ef791461022f5780630b83a7271461024b57806310087fb114610255575b5f80fd5b61021760048036038101906102129190613501565b610627565b6040516102269392919061353b565b60405180910390f35b61024960048036038101906102449190613501565b610654565b005b610253610a5e565b005b61026f600480360381019061026a9190613593565b610eed565b60405161027c91906135d1565b60405180910390f35b61029f600480360381019061029a9190613501565b611418565b005b6102a9611bbd565b005b6102c560048036038101906102c09190613644565b611c1f565b6040516102d291906135d1565b60405180910390f35b6102e3611ee3565b6040516102f091906135d1565b60405180910390f35b610301611ee9565b60405161030e9190613689565b60405180910390f35b61031f611efe565b60405161032c91906136b1565b60405180910390f35b61033d611f23565b005b610347611f36565b60405161035491906135d1565b60405180910390f35b610377600480360381019061037291906136ca565b611f3c565b60405161038491906135d1565b60405180910390f35b6103a760048036038101906103a29190613501565b611fcb565b6040516103b491906135d1565b60405180910390f35b6103c5612018565b6040516103d291906135d1565b60405180910390f35b6103e361201e565b005b6103ff60048036038101906103fa91906136f5565b612080565b60405161040c91906135d1565b60405180910390f35b61042f600480360381019061042a9190613644565b6120ab565b60405161043d92919061398d565b60405180910390f35b61044e6122f7565b60405161045b91906136b1565b60405180910390f35b61047e60048036038101906104799190613501565b61231e565b604051610490969594939291906139d1565b60405180910390f35b6104b360048036038101906104ae9190613501565b61236f565b005b6104bd612501565b6040516104ca91906135d1565b60405180910390f35b6104db612507565b6040516104e891906135d1565b60405180910390f35b6104f961250d565b60405161050691906135d1565b60405180910390f35b61052960048036038101906105249190613501565b612519565b60405161053691906136b1565b60405180910390f35b610547612549565b60405161055491906135d1565b60405180910390f35b61056561254f565b60405161057291906135d1565b60405180910390f35b61059560048036038101906105909190613a30565b612555565b005b6105b160048036038101906105ac9190613501565b6125e6565b005b6105bb612769565b6040516105c891906135d1565b60405180910390f35b6105eb60048036038101906105e69190613644565b61276f565b005b61060760048036038101906106029190613644565b612933565b005b6106116129b7565b60405161061e9190613ac9565b60405180910390f35b60028160038110610636575f80fd5b600302015f91509050805f0154908060010154908060020154905083565b61066867221df5c80bcc2e7360c01b6129db565b6106706129de565b61068467f39f8d9f063a1a5b60c01b6129db565b610698676c9feefd4d6c38ac60c01b6129db565b6106a0612a00565b6106b4673dc1c19a244ba73560c01b6129db565b6106c8674403f262f20b963460c01b6129db565b6106dc670447ec012371605060c01b6129db565b6106f067601f8e47130947c860c01b6129db565b6107046776b12423990ddd0c60c01b6129db565b3373ffffffffffffffffffffffffffffffffffffffff1660145f8381526020019081526020015f205f9054906101000a900473ffffffffffffffffffffffffffffffffffffffff1673ffffffffffffffffffffffffffffffffffffffff16146107a2576040517f08c379a000000000000000000000000000000000000000000000000000000000815260040161079990613b3c565b60405180910390fd5b6107b6674f162429717ebdba60c01b6129db565b6107ca6701fbb269c47ec80960c01b6129db565b6107de6734e6add3fc51c3ed60c01b6129db565b5f60135f8381526020019081526020015f209050610806672526ea78b4e5ace960c01b6129db565b61081a67045f3e2115c18a3260c01b6129db565b61082e678e7a84eeb980145060c01b6129db565b8060040160019054906101000a900460ff1661087f576040517f08c379a000000000000000000000000000000000000000000000000000000000815260040161087690613ba4565b60405180910390fd5b61089367d31c851763969a4460c01b6129db565b6108a767fa1d0c7b6325b0be60c01b6129db565b6108bb67637cdc2a8ff0def060c01b6129db565b6108c3612a41565b6108d76754e5ca4c1d0eefa160c01b6129db565b6108eb67839a9bb62bb1763960c01b6129db565b5f6108f583612c52565b905061090b67728af82baa37339e60c01b6129db565b61091f6751ec8ed535e09a4460c01b6129db565b610933675810e7c91aa7f4be60c01b6129db565b5f8111610975576040517f08c379a000000000000000000000000000000000000000000000000000000000815260040161096c90613c0c565b60405180910390fd5b61098967f627920e3249650b60c01b6129db565b61099d67366c75e1f9db19c760c01b6129db565b600d5482600101819055506109bc673cb95530deaf38fd60c01b6129db565b6109d067707b14b06aae9dec60c01b6129db565b6109da3382612eb5565b6109ee67adeac0cfca34568f60c01b6129db565b610a02673cb00e515fabe4d460c01b6129db565b823373ffffffffffffffffffffffffffffffffffffffff167fdacbdde355ba930696a362ea6738feb9f8bd52dfb3d81947558fd3217e23e32583604051610a4991906135d1565b60405180910390a35050610a5b612fa9565b50565b610a7267c6ed0ebb7410cff960c01b6129db565b610a7a6129de565b610a8e672a3c89760bae110860c01b6129db565b610aa267e205c165552a98c060c01b6129db565b610aaa612a00565b610abe67e87cae2bd52a35a660c01b6129db565b610ad267f610ab8cc46a4c5660c01b6129db565b610ae6676097af730c5771a160c01b6129db565b610afa6736bbe2e97feda27460c01b6129db565b610b02612a41565b610b16670502313d61aae29860c01b6129db565b610b2a670ad0bb870fb151f660c01b6129db565b5f60125f3373ffffffffffffffffffffffffffffffffffffffff1673ffffffffffffffffffffffffffffffffffffffff1681526020019081526020015f209050610b7e67dd07f2df5ffa7d4060c01b6129db565b610b92673249bd0beef1f3a060c01b6129db565b5f610ba767489bd8dceceba8a360c01b6129db565b610bbb67b3a0db04e7c8801360c01b6129db565b5f5b8280549050811015610e1c57610bdd679e5edf694b90b69660c01b6129db565b610bf16723ed3008b359691860c01b6129db565b5f60135f858481548110610c0857610c07613c2a565b5b905f5260205f20015481526020019081526020015f209050610c346778a8a98851672d7260c01b6129db565b610c4867084556a31aba8ee060c01b6129db565b8060040160019054906101000a900460ff16610c7857610c7267e4c183e9a92e165360c01b6129db565b50610e0f565b610c8c67a8ca3c0a5c14895b60c01b6129db565b610ca067a4c306957786219160c01b6129db565b610cb467bf1c9079fc85e20f60c01b6129db565b5f610cd9858481548110610ccb57610cca613c2a565b5b905f5260205f200154612c52565b9050610cef67d0fd94534952cdaf60c01b6129db565b610d036731e184e5ba2356a660c01b6129db565b5f811115610df757610d1f678a25aee3e95cadfc60c01b6129db565b610d336724c965d9232e10ae60c01b6129db565b8084610d3f9190613c84565b9350610d5567e2191f9ac94618bb60c01b6129db565b600d548260010181905550610d74673484d57b1d079a6360c01b6129db565b610d88674ca97a073b6b4fe860c01b6129db565b848381548110610d9b57610d9a613c2a565b5b905f5260205f2001543373ffffffffffffffffffffffffffffffffffffffff167fdacbdde355ba930696a362ea6738feb9f8bd52dfb3d81947558fd3217e23e32583604051610dea91906135d1565b60405180910390a3610e0c565b610e0b67c84accb70bbc48a260c01b6129db565b5b50505b8080600101915050610bbd565b50610e316729cb31edfb55dd0760c01b6129db565b610e45670dcb7af079bca74b60c01b6129db565b610e5967aace826f47a47df960c01b6129db565b5f8111610e9b576040517f08c379a0000000000000000000000000000000000000000000000000000000008152600401610e9290613c0c565b60405180910390fd5b610eaf6774694f823b57ab3860c01b6129db565b610ec36737ed93192532686360c01b6129db565b610ed767a3d5e47543f33ca360c01b6129db565b610ee13382612eb5565b5050610eeb612fa9565b565b5f610f02673ca5443a95314e2c60c01b6129db565b610f0a6129de565b610f1e6710f1eaa3201edc2d60c01b6129db565b610f32673f887d60b30e0a2060c01b6129db565b610f3a612a00565b610f4e679354deb88434889560c01b6129db565b610f626761e7dd86640e57fc60c01b6129db565b610f76676b166b92c84b187e60c01b6129db565b610f8a6717d1b30f2008aadb60c01b6129db565b5f6002836002811115610fa057610f9f613813565b5b60ff1660038110610fb457610fb3613c2a565b5b600302019050610fce6760ad53f204a7dc2760c01b6129db565b610fe267208c0687263c2f8d60c01b6129db565b610ff66781ac923e2b5c047760c01b6129db565b806002015484101561103d576040517f08c379a000000000000000000000000000000000000000000000000000000000815260040161103490613d01565b60405180910390fd5b611051670e68c0120f224bee60c01b6129db565b61106567ea45066365f93ee260c01b6129db565b61107967f0efb50edf02cfea60c01b6129db565b611081612a41565b61109567de50df136387b4fb60c01b6129db565b6110a967d8796c76987e68e360c01b6129db565b7f000000000000000000000000000000000000000000000000000000000000000073ffffffffffffffffffffffffffffffffffffffff166323b872dd3330876040518463ffffffff1660e01b815260040161110693929190613d1f565b6020604051808303815f875af1158015611122573d5f803e3d5ffd5b505050506040513d601f19601f820116820180604052508101906111469190613d7e565b5061115b67111cac10552fdc2b60c01b6129db565b83600f5f82825461116c9190613c84565b9250508190555061118767b2229bad0dffbf6660c01b6129db565b60115f81548092919061119990613da9565b9190505591506111b367f9adc5642c5a5ba560c01b6129db565b6040518060c00160405280858152602001600d548152602001428152602001825f0154426111e19190613c84565b81526020018460028111156111f9576111f8613813565b5b81526020016001151581525060135f8481526020019081526020015f205f820151815f01556020820151816001015560408201518160020155606082015181600301556080820151816004015f6101000a81548160ff0219169083600281111561126657611265613813565b5b021790555060a08201518160040160016101000a81548160ff0219169083151502179055509050506112a2678220cf0b892886ff60c01b6129db565b3360145f8481526020019081526020015f205f6101000a81548173ffffffffffffffffffffffffffffffffffffffff021916908373ffffffffffffffffffffffffffffffffffffffff160217905550611305679018afdb3bdb8b0760c01b6129db565b611319670d5fd6ffa785e2dd60c01b6129db565b60125f3373ffffffffffffffffffffffffffffffffffffffff1673ffffffffffffffffffffffffffffffffffffffff1681526020019081526020015f2082908060018154018082558091505060019003905f5260205f20015f909190919091505561138e678affe6ec159e962360c01b6129db565b6113a267891a71a9c27cd8be60c01b6129db565b813373ffffffffffffffffffffffffffffffffffffffff167fcc10169be2ad544347561e230939849af48d1714c052d7fe247d12f3decb4896868660135f8881526020019081526020015f206003015460405161140193929190613df0565b60405180910390a350611412612fa9565b92915050565b61142c6769ec6ea0aca1fdce60c01b6129db565b6114346129de565b6114486720231a1cab6fc10960c01b6129db565b61145c67540f6bd6527435a660c01b6129db565b611464612a00565b61147867aa4bc2fe1f70ea8760c01b6129db565b61148c67c434ae8d87637a4e60c01b6129db565b6114a067bb92217f57ec5c5760c01b6129db565b6114b4671b7a8670ccfe581760c01b6129db565b6114c8670e3ed07577e8495960c01b6129db565b3373ffffffffffffffffffffffffffffffffffffffff1660145f8381526020019081526020015f205f9054906101000a900473ffffffffffffffffffffffffffffffffffffffff1673ffffffffffffffffffffffffffffffffffffffff1614611566576040517f08c379a000000000000000000000000000000000000000000000000000000000815260040161155d90613b3c565b60405180910390fd5b61157a671d80a551413ff0f160c01b6129db565b61158e67fa21b12d2a422e7760c01b6129db565b6115a267934712db0e99a7cb60c01b6129db565b5f60135f8381526020019081526020015f2090506115ca67727f14aa479ee51360c01b6129db565b6115de67f57816b98945485d60c01b6129db565b6115f2678835e230065a359260c01b6129db565b8060040160019054906101000a900460ff16611643576040517f08c379a000000000000000000000000000000000000000000000000000000000815260040161163a90613ba4565b60405180910390fd5b61165767f3e98957b80e820560c01b6129db565b61166b676c77ae1dc1b7d3fa60c01b6129db565b61167f67bbaa3ec25415f68b60c01b6129db565b611687612a41565b61169b674fce683af71db74160c01b6129db565b6116af671fa83c4fb7d85c4060c01b6129db565b5f6116b983612c52565b90506116cf677792443530c73e4a60c01b6129db565b6116e36781c4b0c4a641668460c01b6129db565b5f8111156117ad576116ff67bc8ab675375448e460c01b6129db565b61171367698e48d36e81cb0260c01b6129db565b6117276718528c54c4b19c3460c01b6129db565b6117313382612eb5565b61174567ad5d2e202bd3c97060c01b6129db565b6117596728c5b4c6690a537b60c01b6129db565b823373ffffffffffffffffffffffffffffffffffffffff167fdacbdde355ba930696a362ea6738feb9f8bd52dfb3d81947558fd3217e23e325836040516117a091906135d1565b60405180910390a36117c2565b6117c167f89537e2d13d42f060c01b6129db565b5b6117d667057cbad37bfc2e7a60c01b6129db565b6117ea679c86115bef1d766260c01b6129db565b5f825f0154905061180567b42eda180d37cc4360c01b6129db565b611819675d1be1e9e7ca28b260c01b6129db565b5f61182e67cd25d2818529846460c01b6129db565b61184267464ea412034734f360c01b6129db565b5f8460030154421090506118606727b92bc6daf9644960c01b6129db565b611874675d25c804bc00e02b60c01b6129db565b80156119a95761188e67a5293ec2a752bd3e60c01b6129db565b6118a267f50e05a3b5b5d6ff60c01b6129db565b6127106103e8846118b39190613e25565b6118bd9190613e93565b91506118d367c258c9214c60028460c01b6129db565b6118e767780d6ba89fefafd060c01b6129db565b7f000000000000000000000000000000000000000000000000000000000000000073ffffffffffffffffffffffffffffffffffffffff1663a9059cbb60015f9054906101000a900473ffffffffffffffffffffffffffffffffffffffff16846040518363ffffffff1660e01b8152600401611963929190613ec3565b6020604051808303815f875af115801561197f573d5f803e3d5ffd5b505050506040513d601f19601f820116820180604052508101906119a39190613d7e565b506119be565b6119bd672e5860dfb3d7537260c01b6129db565b5b6119d2674319822fe8a0ddb460c01b6129db565b6119e667ed6f30e48622c36860c01b6129db565b5f82846119f39190613eea565b9050611a096702d50ba298c5824f60c01b6129db565b5f8660040160016101000a81548160ff021916908315150217905550611a39673cb89e802eb2b9aa60c01b6129db565b5f865f0181905550611a5567cd3cd0f384d8eae760c01b6129db565b83600f5f828254611a669190613eea565b92505081905550611a81673f29e386c694c01b60c01b6129db565b611a9567d693060bba7f9e6f60c01b6129db565b7f000000000000000000000000000000000000000000000000000000000000000073ffffffffffffffffffffffffffffffffffffffff1663a9059cbb33836040518363ffffffff1660e01b8152600401611af0929190613ec3565b6020604051808303815f875af1158015611b0c573d5f803e3d5ffd5b505050506040513d601f19601f82011682018060405250810190611b309190613d7e565b50611b4567f4162efcc5af696360c01b6129db565b611b5967e8c5d36fb567223960c01b6129db565b863373ffffffffffffffffffffffffffffffffffffffff167fff8341777cba9e68275b3e441d3ba589282bbb8edac388b719995cca2d81b1e6838686604051611ba493929190613f1d565b60405180910390a3505050505050611bba612fa9565b50565b611bd167ac3ca88abf4a55aa60c01b6129db565b611bd9612fc3565b611bed67a87c83312f8a7e5760c01b6129db565b611c0167e5e9fdde8f86075a60c01b6129db565b611c1567dd704e40239ed37160c01b6129db565b611c1d61304a565b565b5f611c34673a85c8356dec6aaf60c01b6129db565b611c486770e15bcb11acdc1b60c01b6129db565b611c5c672a09a7172afb197e60c01b6129db565b5f60125f8473ffffffffffffffffffffffffffffffffffffffff1673ffffffffffffffffffffffffffffffffffffffff1681526020019081526020015f209050611cb0676b4c683c8539eb2e60c01b6129db565b611cc467110f4b93188035c760c01b6129db565b5f611ccd6130ab565b9050611ce3679d6143371361486d60c01b6129db565b611cf767cc4a6e55ddca27ca60c01b6129db565b5f5b8280549050811015611edb57611d1967805dca8a7a855e2d60c01b6129db565b611d2d675ea6a2fc809002c760c01b6129db565b5f60135f858481548110611d4457611d43613c2a565b5b905f5260205f20015481526020019081526020015f209050611d7067ae02826939ecff3d60c01b6129db565b611d8467f16ab3e86ed5c10260c01b6129db565b8060040160019054906101000a900460ff16611db457611dae6762be329237d294a260c01b6129db565b50611ece565b611dc867e532fc9a9e83e63660c01b6129db565b611ddc670f0cb9e2120102f160c01b6129db565b611df0673c41742371a32ece60c01b6129db565b5f6002826004015f9054906101000a900460ff166002811115611e1657611e15613813565b5b60ff1660038110611e2a57611e29613c2a565b5b60030201600101549050611e4867146574f5712db04060c01b6129db565b611e5c67fe04ea2fef46065060c01b6129db565b5f670de0b6b3a7640000836001015486611e769190613eea565b845f0154611e849190613e25565b611e8e9190613e93565b9050611ea467c920fb22885d66eb60c01b6129db565b6127108282611eb39190613e25565b611ebd9190613e93565b87611ec89190613c84565b96505050505b8080600101915050611cf9565b505050919050565b6103e881565b5f8060149054906101000a900460ff16905090565b60015f9054906101000a900473ffffffffffffffffffffffffffffffffffffffff1681565b611f2b612fc3565b611f345f613283565b565b60105481565b5f611f5167487523d216ed5fe860c01b6129db565b611f6567ed96c2eb15f3dbeb60c01b6129db565b611f79679ec65299006b00dc60c01b6129db565b6127106002836002811115611f9157611f90613813565b5b60ff1660038110611fa557611fa4613c2a565b5b6003020160010154600b54611fba9190613e25565b611fc49190613e93565b9050919050565b5f611fe0679956dcaa66056a1560c01b6129db565b611ff4673071fce75d8f939460c01b6129db565b61200867a2285e70c87f60fa60c01b6129db565b61201182612c52565b9050919050565b600f5481565b612032671c314e5c0839f8ac60c01b6129db565b61203a612fc3565b61204e67bf9e47cbf122903960c01b6129db565b61206267e97ec16e74ae95ac60c01b6129db565b61207667da84b61fac8a235160c01b6129db565b61207e613344565b565b6012602052815f5260405f208181548110612099575f80fd5b905f5260205f20015f91509150505481565b6060806120c26724c24a85f3f0f98060c01b6129db565b6120d66759706252ea0503dd60c01b6129db565b60125f8473ffffffffffffffffffffffffffffffffffffffff1673ffffffffffffffffffffffffffffffffffffffff1681526020019081526020015f2080548060200260200160405190810160405280929190818152602001828054801561215b57602002820191905f5260205f20905b815481526020019060010190808311612147575b50505050509150612176677d8d137871acd65460c01b6129db565b815167ffffffffffffffff81111561219157612190613f52565b5b6040519080825280602002602001820160405280156121ca57816020015b6121b7613486565b8152602001906001900390816121af5790505b5090506121e167cc4658f990b01f9560c01b6129db565b6121f5673219f1b5b276972f60c01b6129db565b5f5b82518110156122f15761221467c4b39b371887f61c60c01b6129db565b60135f84838151811061222a57612229613c2a565b5b602002602001015181526020019081526020015f206040518060c00160405290815f8201548152602001600182015481526020016002820154815260200160038201548152602001600482015f9054906101000a900460ff16600281111561229557612294613813565b5b60028111156122a7576122a6613813565b5b81526020016004820160019054906101000a900460ff1615151515815250508282815181106122d9576122d8613c2a565b5b602002602001018190525080806001019150506121f7565b50915091565b5f805f9054906101000a900473ffffffffffffffffffffffffffffffffffffffff16905090565b6013602052805f5260405f205f91509050805f015490806001015490806002015490806003015490806004015f9054906101000a900460ff16908060040160019054906101000a900460ff16905086565b61238367d7d4b0ac78cf107560c01b6129db565b61238b612fc3565b61239f67f0b3019ab80cf0e360c01b6129db565b6123b367eb1675dda940ab3060c01b6129db565b6123c76772e431e32a29738a60c01b6129db565b6123db67058b8393f719177760c01b6129db565b6123ef67a4fc9292032fa8cd60c01b6129db565b5f811180156124015750620186a08111155b612440576040517f08c379a000000000000000000000000000000000000000000000000000000000815260040161243790613fc9565b60405180910390fd5b61245467ebd57fe59a296fe060c01b6129db565b6124686797bd657414c9a79c60c01b6129db565b61247c67bf2069196b92465b60c01b6129db565b612484612a41565b612498672bb06c3e05f3fab960c01b6129db565b80600b819055506124b3679d763bd342a6c10960c01b6129db565b6124c76786f790ce2077a38f60c01b6129db565b7fc3c8b505ae61941a9dac6c0a93a5de68df75ca6b3c33c33823a6b9c2ab856e7f816040516124f691906135d1565b60405180910390a150565b600c5481565b600e5481565b670de0b6b3a764000081565b6014602052805f5260405f205f915054906101000a900473ffffffffffffffffffffffffffffffffffffffff1681565b600d5481565b61271081565b612569670de6a57bfc34509860c01b6129db565b612571612fc3565b61258567930fe1c5d0e41ec960c01b6129db565b612599670bd7d0a69b86d6e960c01b6129db565b6125ad679295f1915eaaa7a160c01b6129db565b8060028360028111156125c3576125c2613813565b5b60ff16600381106125d7576125d6613c2a565b5b60030201600201819055505050565b6125fa6768ce053a2c3408b260c01b6129db565b612602612fc3565b6126166766d1208ec5377a5d60c01b6129db565b61262a677fa98a92cb42bd7460c01b6129db565b61263e67939c926d7e37406560c01b6129db565b612652679a0981a4cacd152760c01b6129db565b612666672614aa1011b720fd60c01b6129db565b5f81116126a8576040517f08c379a000000000000000000000000000000000000000000000000000000000815260040161269f90614031565b60405180910390fd5b6126bc676fa5affaf5c6f7be60c01b6129db565b6126d067a4f3891d0542e44660c01b6129db565b6126e4676d5499b24a19dae660c01b6129db565b6126ec612a41565b61270067ae938247eaaed08260c01b6129db565b80600c8190555061271b67343af4d5c3988a6960c01b6129db565b61272f67d59e71859a4ccfc260c01b6129db565b7f5017084af84f6329465a2e3f1a0eeb7f9926bf4b1550e9f3ec79572a6c8223ea8160405161275e91906135d1565b60405180910390a150565b600b5481565b6127836781ebfe2cb4b44d9560c01b6129db565b61278b612fc3565b61279f67222102071142915260c01b6129db565b6127b367ab50c18cca0d28e760c01b6129db565b6127c7679b5622c74169236760c01b6129db565b6127db67a1e5f33adc13bc0f60c01b6129db565b6127ef67bd710bc692540b9960c01b6129db565b5f73ffffffffffffffffffffffffffffffffffffffff168173ffffffffffffffffffffffffffffffffffffffff160361285d576040517f08c379a000000000000000000000000000000000000000000000000000000000815260040161285490614099565b60405180910390fd5b61287167d266664c44c5e37660c01b6129db565b61288567dccd9cfcdc7a4bb860c01b6129db565b8060015f6101000a81548173ffffffffffffffffffffffffffffffffffffffff021916908373ffffffffffffffffffffffffffffffffffffffff1602179055506128d9677f7b144170a3693460c01b6129db565b6128ed677d3593410e4b42fd60c01b6129db565b8073ffffffffffffffffffffffffffffffffffffffff167f7dae230f18360d76a040c81f050aa14eb9d6dc7901b20fc5d855e2a20fe814d160405160405180910390a250565b61293b612fc3565b5f73ffffffffffffffffffffffffffffffffffffffff168173ffffffffffffffffffffffffffffffffffffffff16036129ab575f6040517f1e4fbdf70000000000000000000000000000000000000000000000000000000081526004016129a291906136b1565b60405180910390fd5b6129b481613283565b50565b7f000000000000000000000000000000000000000000000000000000000000000081565b50565b6129e66133a6565b60026129f86129f36133e7565b613410565b5f0181905550565b612a08611ee9565b15612a3f576040517fd93c066500000000000000000000000000000000000000000000000000000000815260040160405180910390fd5b565b612a5567da928eef7e2fb36a60c01b6129db565b612a69676de7ca8389ec053560c01b6129db565b612a7d67bc6a7d9a624b582960c01b6129db565b5f600f5403612ae257612a9a67ce73651e85a1190d60c01b6129db565b612aae67f9f2182940382cab60c01b6129db565b43600e81905550612ac9678974455eeca00c7260c01b6129db565b612add6710c0cfbd21736b5360c01b6129db565b612c50565b612af6672887b9543646687b60c01b6129db565b612b0a670b1cfc3f7b46a37360c01b6129db565b612b1e67a455c2ad4508b7ca60c01b6129db565b5f600e5443612b2d9190613eea565b9050612b43677fc814b36ad1007360c01b6129db565b612b5767b391ee20c67dec0960c01b6129db565b5f8103612b8c57612b72679df32382c97eb41960c01b6129db565b612b86670c2e1ab89e2bc48660c01b6129db565b50612c50565b612ba06739fa08af8ed02b9b60c01b6129db565b612bb4672e1a9db1ee178ced60c01b6129db565b612bc867a975320afecb6b9260c01b6129db565b5f600c54612710612bd99190613e25565b670de0b6b3a7640000600b54612bef9190613e25565b612bf99190613e93565b9050612c0f677358bd5c1a8f6bac60c01b6129db565b8181612c1b9190613e25565b600d5f828254612c2b9190613c84565b92505081905550612c4667c191d989853ccb4e60c01b6129db565b43600e8190555050505b565b5f612c6767323272095d494af960c01b6129db565b612c7b67260591237179cfda60c01b6129db565b612c8f67e44221d654613c7160c01b6129db565b5f60135f8481526020019081526020015f209050612cb7673ae4dfc6f0867a7c60c01b6129db565b612ccb67caa3b77abbf12a6860c01b6129db565b8060040160019054906101000a900460ff16158015612cfa5750612cf9670e2bdbcaf4bac42660c01b613419565b5b80612d2357505f815f0154148015612d225750612d2167d136b27e7d3892d360c01b613419565b5b5b15612d5957612d3c671eae107255c045df60c01b6129db565b612d50670a80db1b69542e9060c01b6129db565b5f915050612eb0565b612d6d67c50c30a01893f8ca60c01b6129db565b612d8167055c3588263600b060c01b6129db565b612d9567b8081bc60c1ad32c60c01b6129db565b5f612d9e6130ab565b9050612db467831d6c083e9f1ea060c01b6129db565b612dc867b499e8c7674bfa1060c01b6129db565b5f6002836004015f9054906101000a900460ff166002811115612dee57612ded613813565b5b60ff1660038110612e0257612e01613c2a565b5b60030201600101549050612e20674e4de976c7862a7a60c01b6129db565b612e34677d9c6f5d161aa44660c01b6129db565b5f670de0b6b3a7640000846001015484612e4e9190613eea565b855f0154612e5c9190613e25565b612e669190613e93565b9050612e7c67ca67c139a45e69fa60c01b6129db565b612e9067f9dcc24845903d9f60c01b6129db565b6127108282612e9f9190613e25565b612ea99190613e93565b9450505050505b919050565b612ec9673961a26cfa3fe7b160c01b6129db565b612edd67ff8bda952556279760c01b6129db565b8060105f828254612eee9190613c84565b92505081905550612f0967a9a0310cd8c018da60c01b6129db565b612f1d6730a68b8ea536d33760c01b6129db565b7f000000000000000000000000000000000000000000000000000000000000000073ffffffffffffffffffffffffffffffffffffffff166340c10f1983836040518363ffffffff1660e01b8152600401612f78929190613ec3565b5f604051808303815f87803b158015612f8f575f80fd5b505af1158015612fa1573d5f803e3d5ffd5b505050505050565b6001612fbb612fb66133e7565b613410565b5f0181905550565b612fcb613423565b73ffffffffffffffffffffffffffffffffffffffff16612fe96122f7565b73ffffffffffffffffffffffffffffffffffffffff16146130485761300c613423565b6040517f118cdaa700000000000000000000000000000000000000000000000000000000815260040161303f91906136b1565b60405180910390fd5b565b61305261342a565b5f8060146101000a81548160ff0219169083151502179055507f5db9ee0a495bf2e6ff9c91a7834c1ba4fdd244a5e8aa4e537bd38aeae4b073aa613094613423565b6040516130a191906136b1565b60405180910390a1565b5f6130c06792642995de24ab9660c01b6129db565b6130d467864ccdcd4fa3676a60c01b6129db565b600d5490506130ed676945a8df62cf1cfd60c01b6129db565b61310167e67e7b335d89c00660c01b6129db565b5f600f54036131375761311e67f1a56b35af4bf24e60c01b6129db565b61313267cb98900cf854743960c01b6129db565b613280565b61314b6732a11ce8620096e260c01b6129db565b61315f679bf1d4ffa806030e60c01b6129db565b61317367cf8c70861c248c9b60c01b6129db565b5f600e54436131829190613eea565b905061319867dc9c8e8f53aff0e960c01b6129db565b6131ac673915c04aed61794760c01b6129db565b5f81036131e1576131c76759323a7c69e74be460c01b6129db565b6131db6769b11cf37c781aea60c01b6129db565b50613280565b6131f5670120adfc685e5a8260c01b6129db565b61320967fd6f3383ebf8b26c60c01b6129db565b61321d67bfed86ebc5dd2a6360c01b6129db565b5f600c5461271061322e9190613e25565b670de0b6b3a7640000600b546132449190613e25565b61324e9190613e93565b9050613264670894965055ad623f60c01b6129db565b81816132709190613e25565b8361327b9190613c84565b925050505b90565b5f805f9054906101000a900473ffffffffffffffffffffffffffffffffffffffff169050815f806101000a81548173ffffffffffffffffffffffffffffffffffffffff021916908373ffffffffffffffffffffffffffffffffffffffff1602179055508173ffffffffffffffffffffffffffffffffffffffff168173ffffffffffffffffffffffffffffffffffffffff167f8be0079c531659141344cd1fd0a4f28419497f9722a3daafe3b4186f6b6457e060405160405180910390a35050565b61334c612a00565b60015f60146101000a81548160ff0219169083151502179055507f62e78cea01bee320cd4e420270b5ea74000d11b0c9f74754ebdbfc544b05a25861338f613423565b60405161339c91906136b1565b60405180910390a1565b6133ae61346a565b156133e5576040517f3ee5aeb500000000000000000000000000000000000000000000000000000000815260040160405180910390fd5b565b5f7f9b779b17422d0df92223018b32b4d1fa46e071723d6817e2486d003becc55f005f1b905090565b5f819050919050565b5f60019050919050565b5f33905090565b613432611ee9565b613468576040517f8dfc202b00000000000000000000000000000000000000000000000000000000815260040160405180910390fd5b565b5f600261347d6134786133e7565b613410565b5f015414905090565b6040518060c001604052805f81526020015f81526020015f81526020015f81526020015f60028111156134bc576134bb613813565b5b81526020015f151581525090565b5f80fd5b5f819050919050565b6134e0816134ce565b81146134ea575f80fd5b50565b5f813590506134fb816134d7565b92915050565b5f60208284031215613516576135156134ca565b5b5f613523848285016134ed565b91505092915050565b613535816134ce565b82525050565b5f60608201905061354e5f83018661352c565b61355b602083018561352c565b613568604083018461352c565b949350505050565b6003811061357c575f80fd5b50565b5f8135905061358d81613570565b92915050565b5f80604083850312156135a9576135a86134ca565b5b5f6135b6858286016134ed565b92505060206135c78582860161357f565b9150509250929050565b5f6020820190506135e45f83018461352c565b92915050565b5f73ffffffffffffffffffffffffffffffffffffffff82169050919050565b5f613613826135ea565b9050919050565b61362381613609565b811461362d575f80fd5b50565b5f8135905061363e8161361a565b92915050565b5f60208284031215613659576136586134ca565b5b5f61366684828501613630565b91505092915050565b5f8115159050919050565b6136838161366f565b82525050565b5f60208201905061369c5f83018461367a565b92915050565b6136ab81613609565b82525050565b5f6020820190506136c45f8301846136a2565b92915050565b5f602082840312156136df576136de6134ca565b5b5f6136ec8482850161357f565b91505092915050565b5f806040838503121561370b5761370a6134ca565b5b5f61371885828601613630565b9250506020613729858286016134ed565b9150509250929050565b5f81519050919050565b5f82825260208201905092915050565b5f819050602082019050919050565b613765816134ce565b82525050565b5f613776838361375c565b60208301905092915050565b5f602082019050919050565b5f61379882613733565b6137a2818561373d565b93506137ad8361374d565b805f5b838110156137dd5781516137c4888261376b565b97506137cf83613782565b9250506001810190506137b0565b5085935050505092915050565b5f81519050919050565b5f82825260208201905092915050565b5f819050602082019050919050565b7f4e487b71000000000000000000000000000000000000000000000000000000005f52602160045260245ffd5b6003811061385157613850613813565b5b50565b5f81905061386182613840565b919050565b5f61387082613854565b9050919050565b61388081613866565b82525050565b61388f8161366f565b82525050565b60c082015f8201516138a95f85018261375c565b5060208201516138bc602085018261375c565b5060408201516138cf604085018261375c565b5060608201516138e2606085018261375c565b5060808201516138f56080850182613877565b5060a082015161390860a0850182613886565b50505050565b5f6139198383613895565b60c08301905092915050565b5f602082019050919050565b5f61393b826137ea565b61394581856137f4565b935061395083613804565b805f5b83811015613980578151613967888261390e565b975061397283613925565b925050600181019050613953565b5085935050505092915050565b5f6040820190508181035f8301526139a5818561378e565b905081810360208301526139b98184613931565b90509392505050565b6139cb81613866565b82525050565b5f60c0820190506139e45f83018961352c565b6139f1602083018861352c565b6139fe604083018761352c565b613a0b606083018661352c565b613a1860808301856139c2565b613a2560a083018461367a565b979650505050505050565b5f8060408385031215613a4657613a456134ca565b5b5f613a538582860161357f565b9250506020613a64858286016134ed565b9150509250929050565b5f819050919050565b5f613a91613a8c613a87846135ea565b613a6e565b6135ea565b9050919050565b5f613aa282613a77565b9050919050565b5f613ab382613a98565b9050919050565b613ac381613aa9565b82525050565b5f602082019050613adc5f830184613aba565b92915050565b5f82825260208201905092915050565b7f5661756c74585374616b696e673a206e6f74206f776e657200000000000000005f82015250565b5f613b26601883613ae2565b9150613b3182613af2565b602082019050919050565b5f6020820190508181035f830152613b5381613b1a565b9050919050565b7f5661756c74585374616b696e673a206e6f7420616374697665000000000000005f82015250565b5f613b8e601983613ae2565b9150613b9982613b5a565b602082019050919050565b5f6020820190508181035f830152613bbb81613b82565b9050919050565b7f5661756c74585374616b696e673a206e6f2072657761726473000000000000005f82015250565b5f613bf6601983613ae2565b9150613c0182613bc2565b602082019050919050565b5f6020820190508181035f830152613c2381613bea565b9050919050565b7f4e487b71000000000000000000000000000000000000000000000000000000005f52603260045260245ffd5b7f4e487b71000000000000000000000000000000000000000000000000000000005f52601160045260245ffd5b5f613c8e826134ce565b9150613c99836134ce565b9250828201905080821115613cb157613cb0613c57565b5b92915050565b7f5661756c74585374616b696e673a2062656c6f77206d696e207374616b6500005f82015250565b5f613ceb601e83613ae2565b9150613cf682613cb7565b602082019050919050565b5f6020820190508181035f830152613d1881613cdf565b9050919050565b5f606082019050613d325f8301866136a2565b613d3f60208301856136a2565b613d4c604083018461352c565b949350505050565b613d5d8161366f565b8114613d67575f80fd5b50565b5f81519050613d7881613d54565b92915050565b5f60208284031215613d9357613d926134ca565b5b5f613da084828501613d6a565b91505092915050565b5f613db3826134ce565b91507fffffffffffffffffffffffffffffffffffffffffffffffffffffffffffffffff8203613de557613de4613c57565b5b600182019050919050565b5f606082019050613e035f83018661352c565b613e1060208301856139c2565b613e1d604083018461352c565b949350505050565b5f613e2f826134ce565b9150613e3a836134ce565b9250828202613e48816134ce565b91508282048414831517613e5f57613e5e613c57565b5b5092915050565b7f4e487b71000000000000000000000000000000000000000000000000000000005f52601260045260245ffd5b5f613e9d826134ce565b9150613ea8836134ce565b925082613eb857613eb7613e66565b5b828204905092915050565b5f604082019050613ed65f8301856136a2565b613ee3602083018461352c565b9392505050565b5f613ef4826134ce565b9150613eff836134ce565b9250828203905081811115613f1757613f16613c57565b5b92915050565b5f606082019050613f305f83018661352c565b613f3d602083018561352c565b613f4a604083018461367a565b949350505050565b7f4e487b71000000000000000000000000000000000000000000000000000000005f52604160045260245ffd5b7f5661756c74585374616b696e673a2062616420415059000000000000000000005f82015250565b5f613fb3601683613ae2565b9150613fbe82613f7f565b602082019050919050565b5f6020820190508181035f830152613fe081613fa7565b9050919050565b7f5661756c74585374616b696e673a207a65726f000000000000000000000000005f82015250565b5f61401b601383613ae2565b915061402682613fe7565b602082019050919050565b5f6020820190508181035f8301526140488161400f565b9050919050565b7f5661756c74585374616b696e673a207a65726f206164647265737300000000005f82015250565b5f614083601b83613ae2565b915061408e8261404f565b602082019050919050565b5f6020820190508181035f8301526140b081614077565b905091905056fea26469706673582212209273f30fc36bac2fb8d39e7c0fd323d877c804820eac19bcf37818e2af4e6fee64736f6c634300081a0033",
  "linkReferences": {},
  "deployedLinkReferences": {}
}